{
  "_format": "hh-sol-artifact-1",
  "contractName": "Ghosts",
  "sourceName": "contracts/Ghosts.sol",
  "abi": [
    {
      "inputs": [
        {
          "internalType": "address",
          "name": "verifierAddress",
          "type": "address"
        }
      ],
      "stateMutability": "nonpayable",
      "type": "constructor"
    },
    {
      "anonymous": false,
      "inputs": [
        {
          "indexed": true,
          "internalType": "bytes32",
          "name": "_game",
          "type": "bytes32"
        },
        {
          "indexed": false,
          "internalType": "address",
          "name": "_turnPlayer",
          "type": "address"
        }
      ],
      "name": "MustReveal",
      "type": "event"
    },
    {
      "anonymous": false,
      "inputs": [
        {
          "indexed": true,
          "internalType": "bytes32",
          "name": "_game",
          "type": "bytes32"
        },
        {
          "indexed": false,
          "internalType": "address",
          "name": "_turnPlayer",
          "type": "address"
        }
      ],
      "name": "TurnStart",
      "type": "event"
    },
    {
      "anonymous": false,
      "inputs": [
        {
          "indexed": true,
          "internalType": "bytes32",
          "name": "_game",
          "type": "bytes32"
        },
        {
          "indexed": false,
          "internalType": "address",
          "name": "_winner",
          "type": "address"
        }
      ],
      "name": "Winner",
      "type": "event"
    },
    {
      "inputs": [],
      "name": "currentPieceStatuses",
      "outputs": [
        {
          "internalType": "uint8[8]",
          "name": "",
          "type": "uint8[8]"
        },
        {
          "internalType": "uint8[8]",
          "name": "",
          "type": "uint8[8]"
        }
      ],
      "stateMutability": "view",
      "type": "function"
    },
    {
      "inputs": [],
      "name": "currentPositions",
      "outputs": [
        {
          "internalType": "uint8[2][8]",
          "name": "",
          "type": "uint8[2][8]"
        },
        {
          "internalType": "uint8[2][8]",
          "name": "",
          "type": "uint8[2][8]"
        }
      ],
      "stateMutability": "view",
      "type": "function"
    },
    {
      "inputs": [
        {
          "internalType": "uint256[2]",
          "name": "a",
          "type": "uint256[2]"
        },
        {
          "internalType": "uint256[2][2]",
          "name": "b",
          "type": "uint256[2][2]"
        },
        {
          "internalType": "uint256[2]",
          "name": "c",
          "type": "uint256[2]"
        },
        {
          "internalType": "uint256[2]",
          "name": "input",
          "type": "uint256[2]"
        }
      ],
      "name": "isValidProof",
      "outputs": [
        {
          "internalType": "bool",
          "name": "",
          "type": "bool"
        }
      ],
      "stateMutability": "view",
      "type": "function"
    },
    {
      "inputs": [
        {
          "internalType": "uint8",
          "name": "idx",
          "type": "uint8"
        },
        {
          "internalType": "uint8",
          "name": "toX",
          "type": "uint8"
        },
        {
          "internalType": "uint8",
          "name": "toY",
          "type": "uint8"
        }
      ],
      "name": "move",
      "outputs": [],
      "stateMutability": "nonpayable",
      "type": "function"
    },
    {
      "inputs": [
        {
          "internalType": "bytes32",
          "name": "",
          "type": "bytes32"
        },
        {
          "internalType": "address",
          "name": "",
          "type": "address"
        },
        {
          "internalType": "uint256",
          "name": "",
          "type": "uint256"
        }
      ],
      "name": "pieceStatuses",
      "outputs": [
        {
          "internalType": "uint8",
          "name": "",
          "type": "uint8"
        }
      ],
      "stateMutability": "view",
      "type": "function"
    },
    {
      "inputs": [
        {
          "internalType": "bytes32",
          "name": "",
          "type": "bytes32"
        },
        {
          "internalType": "address",
          "name": "",
          "type": "address"
        },
        {
          "internalType": "uint256",
          "name": "",
          "type": "uint256"
        },
        {
          "internalType": "uint256",
          "name": "",
          "type": "uint256"
        }
      ],
      "name": "pieces",
      "outputs": [
        {
          "internalType": "uint8",
          "name": "",
          "type": "uint8"
        }
      ],
      "stateMutability": "view",
      "type": "function"
    },
    {
      "inputs": [
        {
          "internalType": "bytes32",
          "name": "",
          "type": "bytes32"
        },
        {
          "internalType": "uint256",
          "name": "",
          "type": "uint256"
        }
      ],
      "name": "players",
      "outputs": [
        {
          "internalType": "address",
          "name": "",
          "type": "address"
        }
      ],
      "stateMutability": "view",
      "type": "function"
    },
    {
      "inputs": [
        {
          "internalType": "address",
          "name": "",
          "type": "address"
        }
      ],
      "name": "playingGame",
      "outputs": [
        {
          "internalType": "bytes32",
          "name": "",
          "type": "bytes32"
        }
      ],
      "stateMutability": "view",
      "type": "function"
    },
    {
      "inputs": [
        {
          "internalType": "uint8",
          "name": "idx",
          "type": "uint8"
        },
        {
          "internalType": "uint8",
          "name": "status",
          "type": "uint8"
        }
      ],
      "name": "revealPiece",
      "outputs": [],
      "stateMutability": "nonpayable",
      "type": "function"
    },
    {
      "inputs": [
        {
          "internalType": "uint256[2]",
          "name": "a",
          "type": "uint256[2]"
        },
        {
          "internalType": "uint256[2][2]",
          "name": "b",
          "type": "uint256[2][2]"
        },
        {
          "internalType": "uint256[2]",
          "name": "c",
          "type": "uint256[2]"
        },
        {
          "internalType": "uint256[2]",
          "name": "input",
          "type": "uint256[2]"
        }
      ],
      "name": "startGame",
      "outputs": [
        {
          "internalType": "bytes32",
          "name": "",
          "type": "bytes32"
        }
      ],
      "stateMutability": "nonpayable",
      "type": "function"
    },
    {
      "inputs": [
        {
          "internalType": "bytes32",
          "name": "",
          "type": "bytes32"
        }
      ],
      "name": "timeLimit",
      "outputs": [
        {
          "internalType": "uint256",
          "name": "",
          "type": "uint256"
        }
      ],
      "stateMutability": "view",
      "type": "function"
    },
    {
      "inputs": [
        {
          "internalType": "bytes32",
          "name": "",
          "type": "bytes32"
        }
      ],
      "name": "turnPlayer",
      "outputs": [
        {
          "internalType": "address",
          "name": "",
          "type": "address"
        }
      ],
      "stateMutability": "view",
      "type": "function"
    },
    {
      "inputs": [],
      "name": "waitingGame",
      "outputs": [
        {
          "internalType": "bytes32",
          "name": "",
          "type": "bytes32"
        }
      ],
      "stateMutability": "view",
      "type": "function"
    },
    {
      "inputs": [],
      "name": "winMove",
      "outputs": [],
      "stateMutability": "nonpayable",
      "type": "function"
    },
    {
      "inputs": [
        {
          "internalType": "bytes32",
          "name": "",
          "type": "bytes32"
        }
      ],
      "name": "winner",
      "outputs": [
        {
          "internalType": "address",
          "name": "",
          "type": "address"
        }
      ],
      "stateMutability": "view",
      "type": "function"
    }
  ],
  "bytecode": "0x60806040523480156200001157600080fd5b5060405162005eef38038062005eef833981810160405281019062000037919062000095565b806000806101000a81548173ffffffffffffffffffffffffffffffffffffffff021916908373ffffffffffffffffffffffffffffffffffffffff160217905550506200010f565b6000815190506200008f81620000f5565b92915050565b600060208284031215620000a857600080fd5b6000620000b8848285016200007e565b91505092915050565b6000620000ce82620000d5565b9050919050565b600073ffffffffffffffffffffffffffffffffffffffff82169050919050565b6200010081620000c1565b81146200010c57600080fd5b50565b615dd0806200011f6000396000f3fe608060405234801561001057600080fd5b50600436106100f55760003560e01c80638e38d8c811610097578063bfd5a99211610066578063bfd5a992146102ae578063c26d94d6146102de578063e71ba77c146102fc578063fb0ed68014610318576100f5565b80638e38d8c8146102255780638ee3de0214610244578063b860a0601461024e578063bc9148541461027e576100f5565b806338798545116100d357806338798545146101765780634761cdc6146101955780634d49ad23146101c557806366e4521e146101f5576100f5565b806319e9cc8c146100fa57806329dae39d1461012a578063305b630c14610146575b600080fd5b610114600480360381019061010f919061506f565b610348565b604051610121919061559e565b60405180910390f35b610144600480360381019061013f91906150e7565b61038d565b005b610160600480360381019061015b9190614f94565b61135a565b60405161016d919061559e565b60405180910390f35b61017e61138d565b60405161018c9291906155b9565b60405180910390f35b6101af60048036038101906101aa9190614f94565b611a8b565b6040516101bc919061559e565b60405180910390f35b6101df60048036038101906101da9190614f06565b611abe565b6040516101ec9190615671565b60405180910390f35b61020f600480360381019061020a919061500c565b612489565b60405161021c91906157c7565b60405180910390f35b61022d6124df565b60405161023b92919061562b565b60405180910390f35b61024c612b09565b005b61026860048036038101906102639190614fbd565b613c36565b60405161027591906157c7565b60405180910390f35b61029860048036038101906102939190614f06565b613c7c565b6040516102a59190615656565b60405180910390f35b6102c860048036038101906102c39190614edd565b613d38565b6040516102d59190615671565b60405180910390f35b6102e6613d50565b6040516102f39190615671565b60405180910390f35b610316600480360381019061031191906150ab565b613d56565b005b610332600480360381019061032d9190614f94565b614172565b60405161033f91906157ac565b60405180910390f35b6002602052816000526040600020816002811061036457600080fd5b016000915091509054906101000a900473ffffffffffffffffffffffffffffffffffffffff1681565b6000600660003373ffffffffffffffffffffffffffffffffffffffff1673ffffffffffffffffffffffffffffffffffffffff1681526020019081526020016000205490506000811415610415576040517f08c379a000000000000000000000000000000000000000000000000000000000815260040161040c9061576c565b60405180910390fd5b3373ffffffffffffffffffffffffffffffffffffffff166004600083815260200190815260200160002060009054906101000a900473ffffffffffffffffffffffffffffffffffffffff1673ffffffffffffffffffffffffffffffffffffffff16146104b6576040517f08c379a00000000000000000000000000000000000000000000000000000000081526004016104ad906156ec565b60405180910390fd5b8383836000600660003373ffffffffffffffffffffffffffffffffffffffff1673ffffffffffffffffffffffffffffffffffffffff16815260200190815260200160002054905060006003600083815260200190815260200160002060003373ffffffffffffffffffffffffffffffffffffffff1673ffffffffffffffffffffffffffffffffffffffff1681526020019081526020016000208560ff166008811061058a577f4e487b7100000000000000000000000000000000000000000000000000000000600052603260045260246000fd5b016000600281106105c4577f4e487b7100000000000000000000000000000000000000000000000000000000600052603260045260246000fd5b602091828204019190069054906101000a900460ff16905060006003600084815260200190815260200160002060003373ffffffffffffffffffffffffffffffffffffffff1673ffffffffffffffffffffffffffffffffffffffff1681526020019081526020016000208660ff1660088110610669577f4e487b7100000000000000000000000000000000000000000000000000000000600052603260045260246000fd5b016001600281106106a3577f4e487b7100000000000000000000000000000000000000000000000000000000600052603260045260246000fd5b602091828204019190069054906101000a900460ff169050600082866106c99190615987565b9050600082866106d99190615987565b9050600060016106e88461418a565b60000b148015610703575060006106fe8361418a565b60000b145b80610730575060006107148461418a565b60000b14801561072f5750600161072a8361418a565b60000b145b5b905060006001905060005b60088160ff1610156108f2576000600360008a815260200190815260200160002060003373ffffffffffffffffffffffffffffffffffffffff1673ffffffffffffffffffffffffffffffffffffffff1681526020019081526020016000208260ff16600881106107d4577f4e487b7100000000000000000000000000000000000000000000000000000000600052603260045260246000fd5b01600280602002604051908101604052809291908260028015610832576020028201916000905b82829054906101000a900460ff1660ff16815260200190600101906020826000010492830192600103820291508084116107fb5790505b5050505050905080600060028110610873577f4e487b7100000000000000000000000000000000000000000000000000000000600052603260045260246000fd5b602002015160ff168b60ff161480156108cf5750806001600281106108c1577f4e487b7100000000000000000000000000000000000000000000000000000000600052603260045260246000fd5b602002015160ff168a60ff16145b156108de5760009250506108f2565b5080806108ea90615a99565b91505061073b565b508180156108fd5750805b61093c576040517f08c379a00000000000000000000000000000000000000000000000000000000081526004016109339061574c565b60405180910390fd5b505050505050506000600660003373ffffffffffffffffffffffffffffffffffffffff1673ffffffffffffffffffffffffffffffffffffffff16815260200190815260200160002054905060006001905060005b60088160ff161015610a6457600a6008600085815260200190815260200160002060003373ffffffffffffffffffffffffffffffffffffffff1673ffffffffffffffffffffffffffffffffffffffff1681526020019081526020016000208260ff1660088110610a29577f4e487b7100000000000000000000000000000000000000000000000000000000600052603260045260246000fd5b602091828204019190069054906101000a900460ff1660ff161415610a515760009150610a64565b8080610a5c90615a99565b915050610990565b5080610aa5576040517f08c379a0000000000000000000000000000000000000000000000000000000008152600401610a9c9061572c565b60405180910390fd5b505060405180604001604052808760ff1660ff1681526020018660ff1660ff1681525060036000600660003373ffffffffffffffffffffffffffffffffffffffff1673ffffffffffffffffffffffffffffffffffffffff16815260200190815260200160002054815260200190815260200160002060003373ffffffffffffffffffffffffffffffffffffffff1673ffffffffffffffffffffffffffffffffffffffff1681526020019081526020016000208860ff1660088110610b92577f4e487b7100000000000000000000000000000000000000000000000000000000600052603260045260246000fd5b01906002610ba1929190614bbd565b5060003373ffffffffffffffffffffffffffffffffffffffff1660026000600660003373ffffffffffffffffffffffffffffffffffffffff1673ffffffffffffffffffffffffffffffffffffffff168152602001908152602001600020548152602001908152602001600020600060028110610c46577f4e487b7100000000000000000000000000000000000000000000000000000000600052603260045260246000fd5b0160009054906101000a900473ffffffffffffffffffffffffffffffffffffffff1673ffffffffffffffffffffffffffffffffffffffff161415610d385760026000600660003373ffffffffffffffffffffffffffffffffffffffff1673ffffffffffffffffffffffffffffffffffffffff168152602001908152602001600020548152602001908152602001600020600160028110610d0f577f4e487b7100000000000000000000000000000000000000000000000000000000600052603260045260246000fd5b0160009054906101000a900473ffffffffffffffffffffffffffffffffffffffff169050610de8565b60026000600660003373ffffffffffffffffffffffffffffffffffffffff1673ffffffffffffffffffffffffffffffffffffffff168152602001908152602001600020548152602001908152602001600020600060028110610dc3577f4e487b7100000000000000000000000000000000000000000000000000000000600052603260045260246000fd5b0160009054906101000a900473ffffffffffffffffffffffffffffffffffffffff1690505b6000805b60088160ff1610156111c557600060036000600660003373ffffffffffffffffffffffffffffffffffffffff1673ffffffffffffffffffffffffffffffffffffffff16815260200190815260200160002054815260200190815260200160002060008573ffffffffffffffffffffffffffffffffffffffff1673ffffffffffffffffffffffffffffffffffffffff1681526020019081526020016000208260ff1660088110610ec4577f4e487b7100000000000000000000000000000000000000000000000000000000600052603260045260246000fd5b01600280602002604051908101604052809291908260028015610f22576020028201916000905b82829054906101000a900460ff1660ff1681526020019060010190602082600001049283019260010382029150808411610eeb5790505b5050505050905080600060028110610f63577f4e487b7100000000000000000000000000000000000000000000000000000000600052603260045260246000fd5b602002015160ff168a60ff16148015610fbf575080600160028110610fb1577f4e487b7100000000000000000000000000000000000000000000000000000000600052603260045260246000fd5b602002015160ff168960ff16145b156111b1576040518060400160405280600a60ff168152602001600a60ff1681525060036000600660003373ffffffffffffffffffffffffffffffffffffffff1673ffffffffffffffffffffffffffffffffffffffff16815260200190815260200160002054815260200190815260200160002060008673ffffffffffffffffffffffffffffffffffffffff1673ffffffffffffffffffffffffffffffffffffffff1681526020019081526020016000208360ff16600881106110ab577f4e487b7100000000000000000000000000000000000000000000000000000000600052603260045260246000fd5b019060026110ba929190614bbd565b50600a60086000600660003373ffffffffffffffffffffffffffffffffffffffff1673ffffffffffffffffffffffffffffffffffffffff16815260200190815260200160002054815260200190815260200160002060008673ffffffffffffffffffffffffffffffffffffffff1673ffffffffffffffffffffffffffffffffffffffff1681526020019081526020016000208360ff1660088110611187577f4e487b7100000000000000000000000000000000000000000000000000000000600052603260045260246000fd5b602091828204019190066101000a81548160ff021916908360ff16021790555060019250506111c5565b5080806111bd90615a99565b915050610dec565b508160046000600660003373ffffffffffffffffffffffffffffffffffffffff1673ffffffffffffffffffffffffffffffffffffffff16815260200190815260200160002054815260200190815260200160002060006101000a81548173ffffffffffffffffffffffffffffffffffffffff021916908373ffffffffffffffffffffffffffffffffffffffff160217905550806112d857600660003373ffffffffffffffffffffffffffffffffffffffff1673ffffffffffffffffffffffffffffffffffffffff168152602001908152602001600020547f825d226c0713a8034f222c43993e2ec904eabba2af0bb6b9bbb170b3d765b6cf836040516112cb919061559e565b60405180910390a261134f565b600660003373ffffffffffffffffffffffffffffffffffffffff1673ffffffffffffffffffffffffffffffffffffffff168152602001908152602001600020547ec2cfd8b34bd5a81e73bcdab6a2992dcd05302c85788f3c5141f91638325e8983604051611346919061559e565b60405180910390a25b505050505050505050565b60076020528060005260406000206000915054906101000a900473ffffffffffffffffffffffffffffffffffffffff1681565b611395614c57565b61139d614c57565b3373ffffffffffffffffffffffffffffffffffffffff1660026000600660003373ffffffffffffffffffffffffffffffffffffffff1673ffffffffffffffffffffffffffffffffffffffff16815260200190815260200160002054815260200190815260200160002060006002811061143f577f4e487b7100000000000000000000000000000000000000000000000000000000600052603260045260246000fd5b0160009054906101000a900473ffffffffffffffffffffffffffffffffffffffff1673ffffffffffffffffffffffffffffffffffffffff1614156117845760036000600660003373ffffffffffffffffffffffffffffffffffffffff1673ffffffffffffffffffffffffffffffffffffffff16815260200190815260200160002054815260200190815260200160002060003373ffffffffffffffffffffffffffffffffffffffff1673ffffffffffffffffffffffffffffffffffffffff16815260200190815260200160002060036000600660003373ffffffffffffffffffffffffffffffffffffffff1673ffffffffffffffffffffffffffffffffffffffff168152602001908152602001600020548152602001908152602001600020600060026000600660003373ffffffffffffffffffffffffffffffffffffffff1673ffffffffffffffffffffffffffffffffffffffff1681526020019081526020016000205481526020019081526020016000206001600281106115eb577f4e487b7100000000000000000000000000000000000000000000000000000000600052603260045260246000fd5b0160009054906101000a900473ffffffffffffffffffffffffffffffffffffffff1673ffffffffffffffffffffffffffffffffffffffff1673ffffffffffffffffffffffffffffffffffffffff16815260200190815260200160002081600880602002604051908101604052809291906000905b828210156116db578382016002806020026040519081016040528092919082600280156116c7576020028201916000905b82829054906101000a900460ff1660ff16815260200190600101906020826000010492830192600103820291508084116116905790505b50505050508152602001906001019061165f565b50505050915080600880602002604051908101604052809291906000905b8282101561177557838201600280602002604051908101604052809291908260028015611761576020028201916000905b82829054906101000a900460ff1660ff168152602001906001019060208260000104928301926001038202915080841161172a5790505b5050505050815260200190600101906116f9565b50505050905091509150611a87565b60036000600660003373ffffffffffffffffffffffffffffffffffffffff1673ffffffffffffffffffffffffffffffffffffffff16815260200190815260200160002054815260200190815260200160002060003373ffffffffffffffffffffffffffffffffffffffff1673ffffffffffffffffffffffffffffffffffffffff16815260200190815260200160002060036000600660003373ffffffffffffffffffffffffffffffffffffffff1673ffffffffffffffffffffffffffffffffffffffff168152602001908152602001600020548152602001908152602001600020600060026000600660003373ffffffffffffffffffffffffffffffffffffffff1673ffffffffffffffffffffffffffffffffffffffff1681526020019081526020016000205481526020019081526020016000206000600281106118f2577f4e487b7100000000000000000000000000000000000000000000000000000000600052603260045260246000fd5b0160009054906101000a900473ffffffffffffffffffffffffffffffffffffffff1673ffffffffffffffffffffffffffffffffffffffff1673ffffffffffffffffffffffffffffffffffffffff16815260200190815260200160002081600880602002604051908101604052809291906000905b828210156119e2578382016002806020026040519081016040528092919082600280156119ce576020028201916000905b82829054906101000a900460ff1660ff16815260200190600101906020826000010492830192600103820291508084116119975790505b505050505081526020019060010190611966565b50505050915080600880602002604051908101604052809291906000905b82821015611a7c57838201600280602002604051908101604052809291908260028015611a68576020028201916000905b82829054906101000a900460ff1660ff1681526020019060010190602082600001049283019260010382029150808411611a315790505b505050505081526020019060010190611a00565b505050509050915091505b9091565b60046020528060005260406000206000915054906101000a900473ffffffffffffffffffffffffffffffffffffffff1681565b600080600660003373ffffffffffffffffffffffffffffffffffffffff1673ffffffffffffffffffffffffffffffffffffffff1681526020019081526020016000205414611b41576040517f08c379a0000000000000000000000000000000000000000000000000000000008152600401611b38906156cc565b60405180910390fd5b60008054906101000a900473ffffffffffffffffffffffffffffffffffffffff1673ffffffffffffffffffffffffffffffffffffffff1663f5c9d69e868686866040518563ffffffff1660e01b8152600401611ba094939291906155e4565b60206040518083038186803b158015611bb857600080fd5b505afa158015611bcc573d6000803e3d6000fd5b505050506040513d601f19601f82011682018060405250810190611bf09190614f6b565b611c2f576040517f08c379a0000000000000000000000000000000000000000000000000000000008152600401611c269061570c565b60405180910390fd5b60006001541415611f11573342604051602001611c4d929190615572565b6040516020818303038152906040528051906020012060018190555033600260006001548152602001908152602001600020600060028110611cb8577f4e487b7100000000000000000000000000000000000000000000000000000000600052603260045260246000fd5b0160006101000a81548173ffffffffffffffffffffffffffffffffffffffff021916908373ffffffffffffffffffffffffffffffffffffffff160217905550600154600660003373ffffffffffffffffffffffffffffffffffffffff1673ffffffffffffffffffffffffffffffffffffffff168152602001908152602001600020819055506040518061010001604052806040518060400160405280600160ff168152602001600460ff1681525081526020016040518060400160405280600260ff168152602001600460ff1681525081526020016040518060400160405280600360ff168152602001600460ff1681525081526020016040518060400160405280600460ff168152602001600460ff1681525081526020016040518060400160405280600160ff168152602001600560ff1681525081526020016040518060400160405280600260ff168152602001600560ff1681525081526020016040518060400160405280600360ff168152602001600560ff1681525081526020016040518060400160405280600460ff168152602001600560ff1681525081525060036000600154815260200190815260200160002060003373ffffffffffffffffffffffffffffffffffffffff1673ffffffffffffffffffffffffffffffffffffffff168152602001908152602001600020906008611eb7929190614c85565b503360046000600154815260200190815260200160002060006101000a81548173ffffffffffffffffffffffffffffffffffffffff021916908373ffffffffffffffffffffffffffffffffffffffff160217905550612330565b3373ffffffffffffffffffffffffffffffffffffffff16600260006001548152602001908152602001600020600060028110611f76577f4e487b7100000000000000000000000000000000000000000000000000000000600052603260045260246000fd5b0160009054906101000a900473ffffffffffffffffffffffffffffffffffffffff1673ffffffffffffffffffffffffffffffffffffffff161415611fef576040517f08c379a0000000000000000000000000000000000000000000000000000000008152600401611fe69061578c565b60405180910390fd5b600154600660003373ffffffffffffffffffffffffffffffffffffffff1673ffffffffffffffffffffffffffffffffffffffff1681526020019081526020016000208190555033600260006001548152602001908152602001600020600160028110612084577f4e487b7100000000000000000000000000000000000000000000000000000000600052603260045260246000fd5b0160006101000a81548173ffffffffffffffffffffffffffffffffffffffff021916908373ffffffffffffffffffffffffffffffffffffffff1602179055506040518061010001604052806040518060400160405280600160ff168152602001600060ff1681525081526020016040518060400160405280600260ff168152602001600060ff1681525081526020016040518060400160405280600360ff168152602001600060ff1681525081526020016040518060400160405280600460ff168152602001600060ff1681525081526020016040518060400160405280600160ff168152602001600160ff1681525081526020016040518060400160405280600260ff168152602001600160ff1681525081526020016040518060400160405280600360ff168152602001600160ff1681525081526020016040518060400160405280600460ff168152602001600160ff1681525081525060036000600154815260200190815260200160002060003373ffffffffffffffffffffffffffffffffffffffff1673ffffffffffffffffffffffffffffffffffffffff16815260200190815260200160002090600861223d929190614c85565b506000600181905550600660003373ffffffffffffffffffffffffffffffffffffffff1673ffffffffffffffffffffffffffffffffffffffff168152602001908152602001600020547f825d226c0713a8034f222c43993e2ec904eabba2af0bb6b9bbb170b3d765b6cf60046000600660003373ffffffffffffffffffffffffffffffffffffffff1673ffffffffffffffffffffffffffffffffffffffff16815260200190815260200160002054815260200190815260200160002060009054906101000a900473ffffffffffffffffffffffffffffffffffffffff16604051612327919061559e565b60405180910390a25b60005b60088160ff16101561243e57600560086000600660003373ffffffffffffffffffffffffffffffffffffffff1673ffffffffffffffffffffffffffffffffffffffff16815260200190815260200160002054815260200190815260200160002060003373ffffffffffffffffffffffffffffffffffffffff1673ffffffffffffffffffffffffffffffffffffffff1681526020019081526020016000208260ff166008811061240b577f4e487b7100000000000000000000000000000000000000000000000000000000600052603260045260246000fd5b602091828204019190066101000a81548160ff021916908360ff160217905550808061243690615a99565b915050612333565b50600660003373ffffffffffffffffffffffffffffffffffffffff1673ffffffffffffffffffffffffffffffffffffffff168152602001908152602001600020549050949350505050565b600360205283600052604060002060205282600052604060002082600881106124b157600080fd5b0181600281106124c057600080fd5b602091828204019190069350935050509054906101000a900460ff1681565b6124e7614cd3565b6124ef614cd3565b3373ffffffffffffffffffffffffffffffffffffffff1660026000600660003373ffffffffffffffffffffffffffffffffffffffff1673ffffffffffffffffffffffffffffffffffffffff168152602001908152602001600020548152602001908152602001600020600060028110612591577f4e487b7100000000000000000000000000000000000000000000000000000000600052603260045260246000fd5b0160009054906101000a900473ffffffffffffffffffffffffffffffffffffffff1673ffffffffffffffffffffffffffffffffffffffff16141561286c5760086000600660003373ffffffffffffffffffffffffffffffffffffffff1673ffffffffffffffffffffffffffffffffffffffff16815260200190815260200160002054815260200190815260200160002060003373ffffffffffffffffffffffffffffffffffffffff1673ffffffffffffffffffffffffffffffffffffffff16815260200190815260200160002060086000600660003373ffffffffffffffffffffffffffffffffffffffff1673ffffffffffffffffffffffffffffffffffffffff168152602001908152602001600020548152602001908152602001600020600060026000600660003373ffffffffffffffffffffffffffffffffffffffff1673ffffffffffffffffffffffffffffffffffffffff16815260200190815260200160002054815260200190815260200160002060016002811061273d577f4e487b7100000000000000000000000000000000000000000000000000000000600052603260045260246000fd5b0160009054906101000a900473ffffffffffffffffffffffffffffffffffffffff1673ffffffffffffffffffffffffffffffffffffffff1673ffffffffffffffffffffffffffffffffffffffff168152602001908152602001600020816008806020026040519081016040528092919082600880156127f7576020028201916000905b82829054906101000a900460ff1660ff16815260200190600101906020826000010492830192600103820291508084116127c05790505b505050505091508060088060200260405190810160405280929190826008801561285c576020028201916000905b82829054906101000a900460ff1660ff16815260200190600101906020826000010492830192600103820291508084116128255790505b5050505050905091509150612b05565b60086000600660003373ffffffffffffffffffffffffffffffffffffffff1673ffffffffffffffffffffffffffffffffffffffff16815260200190815260200160002054815260200190815260200160002060003373ffffffffffffffffffffffffffffffffffffffff1673ffffffffffffffffffffffffffffffffffffffff16815260200190815260200160002060086000600660003373ffffffffffffffffffffffffffffffffffffffff1673ffffffffffffffffffffffffffffffffffffffff168152602001908152602001600020548152602001908152602001600020600060026000600660003373ffffffffffffffffffffffffffffffffffffffff1673ffffffffffffffffffffffffffffffffffffffff1681526020019081526020016000205481526020019081526020016000206000600281106129da577f4e487b7100000000000000000000000000000000000000000000000000000000600052603260045260246000fd5b0160009054906101000a900473ffffffffffffffffffffffffffffffffffffffff1673ffffffffffffffffffffffffffffffffffffffff1673ffffffffffffffffffffffffffffffffffffffff16815260200190815260200160002081600880602002604051908101604052809291908260088015612a94576020028201916000905b82829054906101000a900460ff1660ff1681526020019060010190602082600001049283019260010382029150808411612a5d5790505b5050505050915080600880602002604051908101604052809291908260088015612af9576020028201916000905b82829054906101000a900460ff1660ff1681526020019060010190602082600001049283019260010382029150808411612ac25790505b50505050509050915091505b9091565b6000600660003373ffffffffffffffffffffffffffffffffffffffff1673ffffffffffffffffffffffffffffffffffffffff1681526020019081526020016000205490506000811415612b91576040517f08c379a0000000000000000000000000000000000000000000000000000000008152600401612b889061576c565b60405180910390fd5b3373ffffffffffffffffffffffffffffffffffffffff166004600083815260200190815260200160002060009054906101000a900473ffffffffffffffffffffffffffffffffffffffff1673ffffffffffffffffffffffffffffffffffffffff1614612c32576040517f08c379a0000000000000000000000000000000000000000000000000000000008152600401612c29906156ec565b60405180910390fd5b6000600660003373ffffffffffffffffffffffffffffffffffffffff1673ffffffffffffffffffffffffffffffffffffffff168152602001908152602001600020549050600060026000838152602001908152602001600020600060028110612cc4577f4e487b7100000000000000000000000000000000000000000000000000000000600052603260045260246000fd5b0160009054906101000a900473ffffffffffffffffffffffffffffffffffffffff169050600060026000848152602001908152602001600020600160028110612d36577f4e487b7100000000000000000000000000000000000000000000000000000000600052603260045260246000fd5b0160009054906101000a900473ffffffffffffffffffffffffffffffffffffffff1690503373ffffffffffffffffffffffffffffffffffffffff168273ffffffffffffffffffffffffffffffffffffffff1614156134e15760005b60088160ff1610156134db5760006003600086815260200190815260200160002060003373ffffffffffffffffffffffffffffffffffffffff1673ffffffffffffffffffffffffffffffffffffffff1681526020019081526020016000208260ff1660088110612e2a577f4e487b7100000000000000000000000000000000000000000000000000000000600052603260045260246000fd5b01600060028110612e64577f4e487b7100000000000000000000000000000000000000000000000000000000600052603260045260246000fd5b602091828204019190069054906101000a900460ff1660ff16148015612f67575060006003600086815260200190815260200160002060003373ffffffffffffffffffffffffffffffffffffffff1673ffffffffffffffffffffffffffffffffffffffff1681526020019081526020016000208260ff1660088110612f12577f4e487b7100000000000000000000000000000000000000000000000000000000600052603260045260246000fd5b01600160028110612f4c577f4e487b7100000000000000000000000000000000000000000000000000000000600052603260045260246000fd5b602091828204019190069054906101000a900460ff1660ff16145b8015613016575060016008600086815260200190815260200160002060003373ffffffffffffffffffffffffffffffffffffffff1673ffffffffffffffffffffffffffffffffffffffff1681526020019081526020016000208260ff1660088110612ffb577f4e487b7100000000000000000000000000000000000000000000000000000000600052603260045260246000fd5b602091828204019190069054906101000a900460ff1660ff16145b1561313457336007600086815260200190815260200160002060006101000a81548173ffffffffffffffffffffffffffffffffffffffff021916908373ffffffffffffffffffffffffffffffffffffffff1602179055506000600660003373ffffffffffffffffffffffffffffffffffffffff1673ffffffffffffffffffffffffffffffffffffffff168152602001908152602001600020819055506000600660008473ffffffffffffffffffffffffffffffffffffffff1673ffffffffffffffffffffffffffffffffffffffff16815260200190815260200160002081905550837f356820a8ffb2e87f807efe30f3a77937f6273fa64c46730bdd8653974f3ecb3733604051613127919061559e565b60405180910390a26134c8565b60056003600086815260200190815260200160002060003373ffffffffffffffffffffffffffffffffffffffff1673ffffffffffffffffffffffffffffffffffffffff1681526020019081526020016000208260ff16600881106131c1577f4e487b7100000000000000000000000000000000000000000000000000000000600052603260045260246000fd5b016000600281106131fb577f4e487b7100000000000000000000000000000000000000000000000000000000600052603260045260246000fd5b602091828204019190069054906101000a900460ff1660ff161480156132fe575060006003600086815260200190815260200160002060003373ffffffffffffffffffffffffffffffffffffffff1673ffffffffffffffffffffffffffffffffffffffff1681526020019081526020016000208260ff16600881106132a9577f4e487b7100000000000000000000000000000000000000000000000000000000600052603260045260246000fd5b016001600281106132e3577f4e487b7100000000000000000000000000000000000000000000000000000000600052603260045260246000fd5b602091828204019190069054906101000a900460ff1660ff16145b80156133ad575060016008600086815260200190815260200160002060003373ffffffffffffffffffffffffffffffffffffffff1673ffffffffffffffffffffffffffffffffffffffff1681526020019081526020016000208260ff1660088110613392577f4e487b7100000000000000000000000000000000000000000000000000000000600052603260045260246000fd5b602091828204019190069054906101000a900460ff1660ff16145b156134c757336007600086815260200190815260200160002060006101000a81548173ffffffffffffffffffffffffffffffffffffffff021916908373ffffffffffffffffffffffffffffffffffffffff1602179055506000600660003373ffffffffffffffffffffffffffffffffffffffff1673ffffffffffffffffffffffffffffffffffffffff168152602001908152602001600020819055506000600660008473ffffffffffffffffffffffffffffffffffffffff1673ffffffffffffffffffffffffffffffffffffffff16815260200190815260200160002081905550837f356820a8ffb2e87f807efe30f3a77937f6273fa64c46730bdd8653974f3ecb37336040516134be919061559e565b60405180910390a25b5b80806134d390615a99565b915050612d91565b50613c30565b60005b60088160ff161015613c2e5760006003600086815260200190815260200160002060003373ffffffffffffffffffffffffffffffffffffffff1673ffffffffffffffffffffffffffffffffffffffff1681526020019081526020016000208260ff166008811061357d577f4e487b7100000000000000000000000000000000000000000000000000000000600052603260045260246000fd5b016000600281106135b7577f4e487b7100000000000000000000000000000000000000000000000000000000600052603260045260246000fd5b602091828204019190069054906101000a900460ff1660ff161480156136ba575060056003600086815260200190815260200160002060003373ffffffffffffffffffffffffffffffffffffffff1673ffffffffffffffffffffffffffffffffffffffff1681526020019081526020016000208260ff1660088110613665577f4e487b7100000000000000000000000000000000000000000000000000000000600052603260045260246000fd5b0160016002811061369f577f4e487b7100000000000000000000000000000000000000000000000000000000600052603260045260246000fd5b602091828204019190069054906101000a900460ff1660ff16145b8015613769575060016008600086815260200190815260200160002060003373ffffffffffffffffffffffffffffffffffffffff1673ffffffffffffffffffffffffffffffffffffffff1681526020019081526020016000208260ff166008811061374e577f4e487b7100000000000000000000000000000000000000000000000000000000600052603260045260246000fd5b602091828204019190069054906101000a900460ff1660ff16145b1561388757336007600086815260200190815260200160002060006101000a81548173ffffffffffffffffffffffffffffffffffffffff021916908373ffffffffffffffffffffffffffffffffffffffff1602179055506000600660003373ffffffffffffffffffffffffffffffffffffffff1673ffffffffffffffffffffffffffffffffffffffff168152602001908152602001600020819055506000600660008573ffffffffffffffffffffffffffffffffffffffff1673ffffffffffffffffffffffffffffffffffffffff16815260200190815260200160002081905550837f356820a8ffb2e87f807efe30f3a77937f6273fa64c46730bdd8653974f3ecb373360405161387a919061559e565b60405180910390a2613c1b565b60056003600086815260200190815260200160002060003373ffffffffffffffffffffffffffffffffffffffff1673ffffffffffffffffffffffffffffffffffffffff1681526020019081526020016000208260ff1660088110613914577f4e487b7100000000000000000000000000000000000000000000000000000000600052603260045260246000fd5b0160006002811061394e577f4e487b7100000000000000000000000000000000000000000000000000000000600052603260045260246000fd5b602091828204019190069054906101000a900460ff1660ff16148015613a51575060056003600086815260200190815260200160002060003373ffffffffffffffffffffffffffffffffffffffff1673ffffffffffffffffffffffffffffffffffffffff1681526020019081526020016000208260ff16600881106139fc577f4e487b7100000000000000000000000000000000000000000000000000000000600052603260045260246000fd5b01600160028110613a36577f4e487b7100000000000000000000000000000000000000000000000000000000600052603260045260246000fd5b602091828204019190069054906101000a900460ff1660ff16145b8015613b00575060016008600086815260200190815260200160002060003373ffffffffffffffffffffffffffffffffffffffff1673ffffffffffffffffffffffffffffffffffffffff1681526020019081526020016000208260ff1660088110613ae5577f4e487b7100000000000000000000000000000000000000000000000000000000600052603260045260246000fd5b602091828204019190069054906101000a900460ff1660ff16145b15613c1a57336007600086815260200190815260200160002060006101000a81548173ffffffffffffffffffffffffffffffffffffffff021916908373ffffffffffffffffffffffffffffffffffffffff1602179055506000600660003373ffffffffffffffffffffffffffffffffffffffff1673ffffffffffffffffffffffffffffffffffffffff168152602001908152602001600020819055506000600660008573ffffffffffffffffffffffffffffffffffffffff1673ffffffffffffffffffffffffffffffffffffffff16815260200190815260200160002081905550837f356820a8ffb2e87f807efe30f3a77937f6273fa64c46730bdd8653974f3ecb3733604051613c11919061559e565b60405180910390a25b5b8080613c2690615a99565b9150506134e4565b505b50505050565b60086020528260005260406000206020528160005260406000208160088110613c5e57600080fd5b6020918282040191900692509250509054906101000a900460ff1681565b60008060009054906101000a900473ffffffffffffffffffffffffffffffffffffffff1673ffffffffffffffffffffffffffffffffffffffff1663f5c9d69e868686866040518563ffffffff1660e01b8152600401613cde94939291906155e4565b60206040518083038186803b158015613cf657600080fd5b505afa158015613d0a573d6000803e3d6000fd5b505050506040513d601f19601f82011682018060405250810190613d2e9190614f6b565b9050949350505050565b60066020528060005260406000206000915090505481565b60015481565b6000600660003373ffffffffffffffffffffffffffffffffffffffff1673ffffffffffffffffffffffffffffffffffffffff1681526020019081526020016000205490506000811415613dde576040517f08c379a0000000000000000000000000000000000000000000000000000000008152600401613dd59061576c565b60405180910390fd5b3373ffffffffffffffffffffffffffffffffffffffff166004600083815260200190815260200160002060009054906101000a900473ffffffffffffffffffffffffffffffffffffffff1673ffffffffffffffffffffffffffffffffffffffff1614613e7f576040517f08c379a0000000000000000000000000000000000000000000000000000000008152600401613e76906156ec565b60405180910390fd5b600a60086000600660003373ffffffffffffffffffffffffffffffffffffffff1673ffffffffffffffffffffffffffffffffffffffff16815260200190815260200160002054815260200190815260200160002060003373ffffffffffffffffffffffffffffffffffffffff1673ffffffffffffffffffffffffffffffffffffffff1681526020019081526020016000208460ff1660088110613f4b577f4e487b7100000000000000000000000000000000000000000000000000000000600052603260045260246000fd5b602091828204019190069054906101000a900460ff1660ff1614613fa4576040517f08c379a0000000000000000000000000000000000000000000000000000000008152600401613f9b906156ac565b60405180910390fd5b60008260ff161480613fb9575060018260ff16145b613ff8576040517f08c379a0000000000000000000000000000000000000000000000000000000008152600401613fef9061568c565b60405180910390fd5b8160086000600660003373ffffffffffffffffffffffffffffffffffffffff1673ffffffffffffffffffffffffffffffffffffffff16815260200190815260200160002054815260200190815260200160002060003373ffffffffffffffffffffffffffffffffffffffff1673ffffffffffffffffffffffffffffffffffffffff1681526020019081526020016000208460ff16600881106140c3577f4e487b7100000000000000000000000000000000000000000000000000000000600052603260045260246000fd5b602091828204019190066101000a81548160ff021916908360ff16021790555060006140ed6141af565b90508061416c57600660003373ffffffffffffffffffffffffffffffffffffffff1673ffffffffffffffffffffffffffffffffffffffff168152602001908152602001600020547f825d226c0713a8034f222c43993e2ec904eabba2af0bb6b9bbb170b3d765b6cf33604051614163919061559e565b60405180910390a25b50505050565b60056020528060005260406000206000915090505481565b6000808260000b12156141a657816141a190615af1565b6141a8565b815b9050919050565b600080600090506000805b60088160ff1610156143d457600060086000600660003373ffffffffffffffffffffffffffffffffffffffff1673ffffffffffffffffffffffffffffffffffffffff16815260200190815260200160002054815260200190815260200160002060003373ffffffffffffffffffffffffffffffffffffffff1673ffffffffffffffffffffffffffffffffffffffff1681526020019081526020016000208260ff1660088110614292577f4e487b7100000000000000000000000000000000000000000000000000000000600052603260045260246000fd5b602091828204019190069054906101000a900460ff1660ff1614156142c5576001826142be9190615950565b91506143c1565b600160086000600660003373ffffffffffffffffffffffffffffffffffffffff1673ffffffffffffffffffffffffffffffffffffffff16815260200190815260200160002054815260200190815260200160002060003373ffffffffffffffffffffffffffffffffffffffff1673ffffffffffffffffffffffffffffffffffffffff1681526020019081526020016000208260ff1660088110614391577f4e487b7100000000000000000000000000000000000000000000000000000000600052603260045260246000fd5b602091828204019190069054906101000a900460ff1660ff1614156143c0576001836143bd9190615950565b92505b5b80806143cc90615a99565b9150506141ba565b5060048260ff16106147c45760003373ffffffffffffffffffffffffffffffffffffffff1660026000600660003373ffffffffffffffffffffffffffffffffffffffff1673ffffffffffffffffffffffffffffffffffffffff168152602001908152602001600020548152602001908152602001600020600060028110614484577f4e487b7100000000000000000000000000000000000000000000000000000000600052603260045260246000fd5b0160009054906101000a900473ffffffffffffffffffffffffffffffffffffffff1673ffffffffffffffffffffffffffffffffffffffff1614156145765760026000600660003373ffffffffffffffffffffffffffffffffffffffff1673ffffffffffffffffffffffffffffffffffffffff16815260200190815260200160002054815260200190815260200160002060016002811061454d577f4e487b7100000000000000000000000000000000000000000000000000000000600052603260045260246000fd5b0160009054906101000a900473ffffffffffffffffffffffffffffffffffffffff169050614626565b60026000600660003373ffffffffffffffffffffffffffffffffffffffff1673ffffffffffffffffffffffffffffffffffffffff168152602001908152602001600020548152602001908152602001600020600060028110614601577f4e487b7100000000000000000000000000000000000000000000000000000000600052603260045260246000fd5b0160009054906101000a900473ffffffffffffffffffffffffffffffffffffffff1690505b8060076000600660003373ffffffffffffffffffffffffffffffffffffffff1673ffffffffffffffffffffffffffffffffffffffff16815260200190815260200160002054815260200190815260200160002060006101000a81548173ffffffffffffffffffffffffffffffffffffffff021916908373ffffffffffffffffffffffffffffffffffffffff160217905550600660003373ffffffffffffffffffffffffffffffffffffffff1673ffffffffffffffffffffffffffffffffffffffff168152602001908152602001600020547f356820a8ffb2e87f807efe30f3a77937f6273fa64c46730bdd8653974f3ecb3782604051614726919061559e565b60405180910390a26000600660003373ffffffffffffffffffffffffffffffffffffffff1673ffffffffffffffffffffffffffffffffffffffff168152602001908152602001600020819055506000600660008373ffffffffffffffffffffffffffffffffffffffff1673ffffffffffffffffffffffffffffffffffffffff1681526020019081526020016000208190555060019350505050614bba565b60048160ff1610614bb35760003373ffffffffffffffffffffffffffffffffffffffff1660026000600660003373ffffffffffffffffffffffffffffffffffffffff1673ffffffffffffffffffffffffffffffffffffffff168152602001908152602001600020548152602001908152602001600020600060028110614873577f4e487b7100000000000000000000000000000000000000000000000000000000600052603260045260246000fd5b0160009054906101000a900473ffffffffffffffffffffffffffffffffffffffff1673ffffffffffffffffffffffffffffffffffffffff1614156149655760026000600660003373ffffffffffffffffffffffffffffffffffffffff1673ffffffffffffffffffffffffffffffffffffffff16815260200190815260200160002054815260200190815260200160002060016002811061493c577f4e487b7100000000000000000000000000000000000000000000000000000000600052603260045260246000fd5b0160009054906101000a900473ffffffffffffffffffffffffffffffffffffffff169050614a15565b60026000600660003373ffffffffffffffffffffffffffffffffffffffff1673ffffffffffffffffffffffffffffffffffffffff1681526020019081526020016000205481526020019081526020016000206000600281106149f0577f4e487b7100000000000000000000000000000000000000000000000000000000600052603260045260246000fd5b0160009054906101000a900473ffffffffffffffffffffffffffffffffffffffff1690505b3360076000600660003373ffffffffffffffffffffffffffffffffffffffff1673ffffffffffffffffffffffffffffffffffffffff16815260200190815260200160002054815260200190815260200160002060006101000a81548173ffffffffffffffffffffffffffffffffffffffff021916908373ffffffffffffffffffffffffffffffffffffffff160217905550600660003373ffffffffffffffffffffffffffffffffffffffff1673ffffffffffffffffffffffffffffffffffffffff168152602001908152602001600020547f356820a8ffb2e87f807efe30f3a77937f6273fa64c46730bdd8653974f3ecb3733604051614b15919061559e565b60405180910390a26000600660003373ffffffffffffffffffffffffffffffffffffffff1673ffffffffffffffffffffffffffffffffffffffff168152602001908152602001600020819055506000600660008373ffffffffffffffffffffffffffffffffffffffff1673ffffffffffffffffffffffffffffffffffffffff1681526020019081526020016000208190555060019350505050614bba565b6000925050505b90565b826002601f01602090048101928215614c465791602002820160005b83821115614c1757835183826101000a81548160ff021916908360ff1602179055509260200192600101602081600001049283019260010302614bd9565b8015614c445782816101000a81549060ff0219169055600101602081600001049283019260010302614c17565b505b509050614c539190614cf6565b5090565b6040518061010001604052806008905b614c6f614d13565b815260200190600190039081614c675790505090565b8260088101928215614cc2579160200282015b82811115614cc157825182906002614cb1929190614bbd565b5091602001919060010190614c98565b5b509050614ccf9190614d35565b5090565b604051806101000160405280600890602082028036833780820191505090505090565b5b80821115614d0f576000816000905550600101614cf7565b5090565b6040518060400160405280600290602082028036833780820191505090505090565b5b80821115614d555760008181614d4c9190614d59565b50600101614d36565b5090565b5060009055565b6000614d73614d6e84615807565b6157e2565b90508082856040860282011115614d8957600080fd5b60005b85811015614db95781614d9f8882614e62565b845260208401935060408301925050600181019050614d8c565b5050509392505050565b6000614dd6614dd18461582d565b6157e2565b90508082856020860282011115614dec57600080fd5b60005b85811015614e1c5781614e028882614eb3565b845260208401935060208301925050600181019050614def565b5050509392505050565b600081359050614e3581615d27565b92915050565b600082601f830112614e4c57600080fd5b6002614e59848285614d60565b91505092915050565b600082601f830112614e7357600080fd5b6002614e80848285614dc3565b91505092915050565b600081519050614e9881615d3e565b92915050565b600081359050614ead81615d55565b92915050565b600081359050614ec281615d6c565b92915050565b600081359050614ed781615d83565b92915050565b600060208284031215614eef57600080fd5b6000614efd84828501614e26565b91505092915050565b6000806000806101408587031215614f1d57600080fd5b6000614f2b87828801614e62565b9450506040614f3c87828801614e3b565b93505060c0614f4d87828801614e62565b925050610100614f5f87828801614e62565b91505092959194509250565b600060208284031215614f7d57600080fd5b6000614f8b84828501614e89565b91505092915050565b600060208284031215614fa657600080fd5b6000614fb484828501614e9e565b91505092915050565b600080600060608486031215614fd257600080fd5b6000614fe086828701614e9e565b9350506020614ff186828701614e26565b925050604061500286828701614eb3565b9150509250925092565b6000806000806080858703121561502257600080fd5b600061503087828801614e9e565b945050602061504187828801614e26565b935050604061505287828801614eb3565b925050606061506387828801614eb3565b91505092959194509250565b6000806040838503121561508257600080fd5b600061509085828601614e9e565b92505060206150a185828601614eb3565b9150509250929050565b600080604083850312156150be57600080fd5b60006150cc85828601614ec8565b92505060206150dd85828601614ec8565b9150509250929050565b6000806000606084860312156150fc57600080fd5b600061510a86828701614ec8565b935050602061511b86828701614ec8565b925050604061512c86828701614ec8565b9150509250925092565b6000615142838361526a565b60408301905092915050565b600061515a8383615318565b60408301905092915050565b6000615172838361551f565b60208301905092915050565b600061518a8383615554565b60208301905092915050565b61519f816159fc565b82525050565b6151b66151b1826159fc565b615ac3565b82525050565b6151c581615885565b6151cf81846158fd565b92506151da82615853565b8060005b8381101561520b5781516151f28782615136565b96506151fd836158bc565b9250506001810190506151de565b505050505050565b61521c81615890565b6152268184615908565b92506152318261585d565b8060005b83811015615262578151615249878261514e565b9650615254836158c9565b925050600181019050615235565b505050505050565b6152738161589b565b61527d8184615913565b925061528882615867565b8060005b838110156152b95781516152a08782615166565b96506152ab836158d6565b92505060018101905061528c565b505050505050565b6152ca8161589b565b6152d4818461591e565b92506152df82615867565b8060005b838110156153105781516152f78782615166565b9650615302836158d6565b9250506001810190506152e3565b505050505050565b615321816158a6565b61532b8184615929565b925061533682615871565b8060005b8381101561536757815161534e878261517e565b9650615359836158e3565b92505060018101905061533a565b505050505050565b615378816158b1565b6153828184615934565b925061538d8261587b565b8060005b838110156153be5781516153a5878261517e565b96506153b0836158f0565b925050600181019050615391565b505050505050565b6153cf81615a0e565b82525050565b6153de81615a1a565b82525050565b60006153f160148361593f565b91506153fc82615bb6565b602082019050919050565b6000615414601b8361593f565b915061541f82615bdf565b602082019050919050565b600061543760158361593f565b915061544282615c08565b602082019050919050565b600061545a60128361593f565b915061546582615c31565b602082019050919050565b600061547d60118361593f565b915061548882615c5a565b602082019050919050565b60006154a0601a8361593f565b91506154ab82615c83565b602082019050919050565b60006154c360108361593f565b91506154ce82615cac565b602082019050919050565b60006154e660198361593f565b91506154f182615cd5565b602082019050919050565b6000615509601c8361593f565b915061551482615cfe565b602082019050919050565b61552881615a51565b82525050565b61553781615a51565b82525050565b61554e61554982615a51565b615ae7565b82525050565b61555d81615a5b565b82525050565b61556c81615a5b565b82525050565b600061557e82856151a5565b60148201915061558e828461553d565b6020820191508190509392505050565b60006020820190506155b36000830184615196565b92915050565b6000610400820190506155cf6000830185615213565b6155dd610200830184615213565b9392505050565b6000610140820190506155fa60008301876152c1565b61560760408301866151bc565b61561460c08301856152c1565b6156226101008301846152c1565b95945050505050565b600061020082019050615641600083018561536f565b61564f61010083018461536f565b9392505050565b600060208201905061566b60008301846153c6565b92915050565b600060208201905061568660008301846153d5565b92915050565b600060208201905081810360008301526156a5816153e4565b9050919050565b600060208201905081810360008301526156c581615407565b9050919050565b600060208201905081810360008301526156e58161542a565b9050919050565b600060208201905081810360008301526157058161544d565b9050919050565b6000602082019050818103600083015261572581615470565b9050919050565b6000602082019050818103600083015261574581615493565b9050919050565b60006020820190508181036000830152615765816154b6565b9050919050565b60006020820190508181036000830152615785816154d9565b9050919050565b600060208201905081810360008301526157a5816154fc565b9050919050565b60006020820190506157c1600083018461552e565b92915050565b60006020820190506157dc6000830184615563565b92915050565b60006157ec6157fd565b90506157f88282615a68565b919050565b6000604051905090565b600067ffffffffffffffff82111561582257615821615b69565b5b602082029050919050565b600067ffffffffffffffff82111561584857615847615b69565b5b602082029050919050565b6000819050919050565b6000819050919050565b6000819050919050565b6000819050919050565b6000819050919050565b600060029050919050565b600060089050919050565b600060029050919050565b600060029050919050565b600060089050919050565b6000602082019050919050565b6000602082019050919050565b6000602082019050919050565b6000602082019050919050565b6000602082019050919050565b600081905092915050565b600081905092915050565b600081905092915050565b600081905092915050565b600081905092915050565b600081905092915050565b600082825260208201905092915050565b600061595b82615a5b565b915061596683615a5b565b92508260ff0382111561597c5761597b615b3a565b5b828201905092915050565b600061599282615a24565b915061599d83615a24565b9250827fffffffffffffffffffffffffffffffffffffffffffffffffffffffffffffff80018212600084121516156159d8576159d7615b3a565b5b82607f0182136000841216156159f1576159f0615b3a565b5b828203905092915050565b6000615a0782615a31565b9050919050565b60008115159050919050565b6000819050919050565b60008160000b9050919050565b600073ffffffffffffffffffffffffffffffffffffffff82169050919050565b6000819050919050565b600060ff82169050919050565b615a7182615b98565b810181811067ffffffffffffffff82111715615a9057615a8f615b69565b5b80604052505050565b6000615aa482615a5b565b915060ff821415615ab857615ab7615b3a565b5b600182019050919050565b6000615ace82615ad5565b9050919050565b6000615ae082615ba9565b9050919050565b6000819050919050565b6000615afc82615a24565b91507fffffffffffffffffffffffffffffffffffffffffffffffffffffffffffffff80821415615b2f57615b2e615b3a565b5b816000039050919050565b7f4e487b7100000000000000000000000000000000000000000000000000000000600052601160045260246000fd5b7f4e487b7100000000000000000000000000000000000000000000000000000000600052604160045260246000fd5b6000601f19601f8301169050919050565b60008160601b9050919050565b7f6d757374206265207a65726f206f72206f6e652e000000000000000000000000600082015250565b7f6d757374206265206e6565642072657665616c207374617475732e0000000000600082015250565b7f706c6179696e6720616e6f746865722067616d652e0000000000000000000000600082015250565b7f6d75737420626520796f7572207475726e2e0000000000000000000000000000600082015250565b7f6d7573742062652076657269666965642e000000000000000000000000000000600082015250565b7f6e65656420746f2072657665616c20796f75722070696563652e000000000000600082015250565b7f6d757374206265206d6f7661626c652e00000000000000000000000000000000600082015250565b7f6d75737420626520706c6179696e67207468652067616d652e00000000000000600082015250565b7f706c6179657273206d757374206e6f74206265207468652073616d6500000000600082015250565b615d30816159fc565b8114615d3b57600080fd5b50565b615d4781615a0e565b8114615d5257600080fd5b50565b615d5e81615a1a565b8114615d6957600080fd5b50565b615d7581615a51565b8114615d8057600080fd5b50565b615d8c81615a5b565b8114615d9757600080fd5b5056fea264697066735822122003f98b1a1215934002135c41f166437af4368280629d0607d3925fc09f28af9164736f6c63430008040033",
  "linkReferences": {},
  "deployedLinkReferences": {}
}