{
  "_format": "hh-sol-artifact-1",
  "contractName": "Ghosts",
  "sourceName": "contracts/Ghosts.sol",
  "abi": [
    {
      "inputs": [
        {
          "internalType": "address",
          "name": "verifierAddress",
          "type": "address"
        }
      ],
      "stateMutability": "nonpayable",
      "type": "constructor"
    },
    {
      "inputs": [
        {
          "internalType": "uint256[2]",
          "name": "a",
          "type": "uint256[2]"
        },
        {
          "internalType": "uint256[2][2]",
          "name": "b",
          "type": "uint256[2][2]"
        },
        {
          "internalType": "uint256[2]",
          "name": "c",
          "type": "uint256[2]"
        },
        {
          "internalType": "uint256[2]",
          "name": "input",
          "type": "uint256[2]"
        }
      ],
      "name": "isValidProof",
      "outputs": [
        {
          "internalType": "bool",
          "name": "",
          "type": "bool"
        }
      ],
      "stateMutability": "view",
      "type": "function"
    },
    {
      "inputs": [
        {
          "internalType": "uint8",
          "name": "idx",
          "type": "uint8"
        },
        {
          "internalType": "uint8",
          "name": "toX",
          "type": "uint8"
        },
        {
          "internalType": "uint8",
          "name": "toY",
          "type": "uint8"
        }
      ],
      "name": "move",
      "outputs": [],
      "stateMutability": "nonpayable",
      "type": "function"
    },
    {
      "inputs": [
        {
          "internalType": "bytes32",
          "name": "",
          "type": "bytes32"
        },
        {
          "internalType": "address",
          "name": "",
          "type": "address"
        },
        {
          "internalType": "uint256",
          "name": "",
          "type": "uint256"
        }
      ],
      "name": "pieceStatuses",
      "outputs": [
        {
          "internalType": "uint8",
          "name": "",
          "type": "uint8"
        }
      ],
      "stateMutability": "view",
      "type": "function"
    },
    {
      "inputs": [
        {
          "internalType": "bytes32",
          "name": "",
          "type": "bytes32"
        },
        {
          "internalType": "address",
          "name": "",
          "type": "address"
        },
        {
          "internalType": "uint256",
          "name": "",
          "type": "uint256"
        },
        {
          "internalType": "uint256",
          "name": "",
          "type": "uint256"
        }
      ],
      "name": "pieces",
      "outputs": [
        {
          "internalType": "uint8",
          "name": "",
          "type": "uint8"
        }
      ],
      "stateMutability": "view",
      "type": "function"
    },
    {
      "inputs": [
        {
          "internalType": "bytes32",
          "name": "",
          "type": "bytes32"
        },
        {
          "internalType": "uint256",
          "name": "",
          "type": "uint256"
        }
      ],
      "name": "players",
      "outputs": [
        {
          "internalType": "address",
          "name": "",
          "type": "address"
        }
      ],
      "stateMutability": "view",
      "type": "function"
    },
    {
      "inputs": [
        {
          "internalType": "address",
          "name": "",
          "type": "address"
        }
      ],
      "name": "playingGame",
      "outputs": [
        {
          "internalType": "bytes32",
          "name": "",
          "type": "bytes32"
        }
      ],
      "stateMutability": "view",
      "type": "function"
    },
    {
      "inputs": [
        {
          "internalType": "uint8",
          "name": "idx",
          "type": "uint8"
        },
        {
          "internalType": "uint8",
          "name": "status",
          "type": "uint8"
        }
      ],
      "name": "revealPiece",
      "outputs": [],
      "stateMutability": "nonpayable",
      "type": "function"
    },
    {
      "inputs": [
        {
          "internalType": "uint256[2]",
          "name": "a",
          "type": "uint256[2]"
        },
        {
          "internalType": "uint256[2][2]",
          "name": "b",
          "type": "uint256[2][2]"
        },
        {
          "internalType": "uint256[2]",
          "name": "c",
          "type": "uint256[2]"
        },
        {
          "internalType": "uint256[2]",
          "name": "input",
          "type": "uint256[2]"
        }
      ],
      "name": "startGame",
      "outputs": [
        {
          "internalType": "bytes32",
          "name": "",
          "type": "bytes32"
        }
      ],
      "stateMutability": "nonpayable",
      "type": "function"
    },
    {
      "inputs": [
        {
          "internalType": "bytes32",
          "name": "",
          "type": "bytes32"
        }
      ],
      "name": "timeLimit",
      "outputs": [
        {
          "internalType": "uint256",
          "name": "",
          "type": "uint256"
        }
      ],
      "stateMutability": "view",
      "type": "function"
    },
    {
      "inputs": [
        {
          "internalType": "bytes32",
          "name": "",
          "type": "bytes32"
        }
      ],
      "name": "turnPlayer",
      "outputs": [
        {
          "internalType": "address",
          "name": "",
          "type": "address"
        }
      ],
      "stateMutability": "view",
      "type": "function"
    },
    {
      "inputs": [],
      "name": "waitingGame",
      "outputs": [
        {
          "internalType": "bytes32",
          "name": "",
          "type": "bytes32"
        }
      ],
      "stateMutability": "view",
      "type": "function"
    },
    {
      "inputs": [
        {
          "internalType": "bytes32",
          "name": "",
          "type": "bytes32"
        }
      ],
      "name": "winner",
      "outputs": [
        {
          "internalType": "address",
          "name": "",
          "type": "address"
        }
      ],
      "stateMutability": "view",
      "type": "function"
    }
  ],
  "bytecode": "0x60806040523480156200001157600080fd5b50604051620038f8380380620038f8833981810160405281019062000037919062000095565b806000806101000a81548173ffffffffffffffffffffffffffffffffffffffff021916908373ffffffffffffffffffffffffffffffffffffffff160217905550506200010f565b6000815190506200008f81620000f5565b92915050565b600060208284031215620000a857600080fd5b6000620000b8848285016200007e565b91505092915050565b6000620000ce82620000d5565b9050919050565b600073ffffffffffffffffffffffffffffffffffffffff82169050919050565b6200010081620000c1565b81146200010c57600080fd5b50565b6137d9806200011f6000396000f3fe608060405234801561001057600080fd5b50600436106100b45760003560e01c8063b860a06011610071578063b860a060146101c5578063bc914854146101f5578063bfd5a99214610225578063c26d94d614610255578063e71ba77c14610273578063fb0ed6801461028f576100b4565b806319e9cc8c146100b957806329dae39d146100e9578063305b630c146101055780634761cdc6146101355780634d49ad231461016557806366e4521e14610195575b600080fd5b6100d360048036038101906100ce9190612c99565b6102bf565b6040516100e09190613084565b60405180910390f35b61010360048036038101906100fe9190612d11565b610304565b005b61011f600480360381019061011a9190612bbe565b6111d3565b60405161012c9190613084565b60405180910390f35b61014f600480360381019061014a9190612bbe565b611206565b60405161015c9190613084565b60405180910390f35b61017f600480360381019061017a9190612b30565b611239565b60405161018c9190613101565b60405180910390f35b6101af60048036038101906101aa9190612c36565b611b1b565b6040516101bc9190613257565b60405180910390f35b6101df60048036038101906101da9190612be7565b611b71565b6040516101ec9190613257565b60405180910390f35b61020f600480360381019061020a9190612b30565b611bb7565b60405161021c91906130e6565b60405180910390f35b61023f600480360381019061023a9190612b07565b611c73565b60405161024c9190613101565b60405180910390f35b61025d611c8b565b60405161026a9190613101565b60405180910390f35b61028d60048036038101906102889190612cd5565b611c91565b005b6102a960048036038101906102a49190612bbe565b61202b565b6040516102b6919061323c565b60405180910390f35b600260205281600052604060002081600281106102db57600080fd5b016000915091509054906101000a900473ffffffffffffffffffffffffffffffffffffffff1681565b6000600660003373ffffffffffffffffffffffffffffffffffffffff1673ffffffffffffffffffffffffffffffffffffffff168152602001908152602001600020549050600081141561038c576040517f08c379a0000000000000000000000000000000000000000000000000000000008152600401610383906131fc565b60405180910390fd5b3373ffffffffffffffffffffffffffffffffffffffff166004600083815260200190815260200160002060009054906101000a900473ffffffffffffffffffffffffffffffffffffffff1673ffffffffffffffffffffffffffffffffffffffff161461042d576040517f08c379a00000000000000000000000000000000000000000000000000000000081526004016104249061317c565b60405180910390fd5b8383836000600660003373ffffffffffffffffffffffffffffffffffffffff1673ffffffffffffffffffffffffffffffffffffffff16815260200190815260200160002054905060006003600083815260200190815260200160002060003373ffffffffffffffffffffffffffffffffffffffff1673ffffffffffffffffffffffffffffffffffffffff1681526020019081526020016000208560ff1660088110610501577f4e487b7100000000000000000000000000000000000000000000000000000000600052603260045260246000fd5b0160006002811061053b577f4e487b7100000000000000000000000000000000000000000000000000000000600052603260045260246000fd5b602091828204019190069054906101000a900460ff16905060006003600084815260200190815260200160002060003373ffffffffffffffffffffffffffffffffffffffff1673ffffffffffffffffffffffffffffffffffffffff1681526020019081526020016000208660ff16600881106105e0577f4e487b7100000000000000000000000000000000000000000000000000000000600052603260045260246000fd5b0160016002811061061a577f4e487b7100000000000000000000000000000000000000000000000000000000600052603260045260246000fd5b602091828204019190069054906101000a900460ff169050600082866106409190613390565b9050600082866106509190613390565b90506000600161065f84612043565b60000b14801561067a5750600061067583612043565b60000b145b806106a75750600061068b84612043565b60000b1480156106a6575060016106a183612043565b60000b145b5b905060006001905060005b60088160ff161015610869576000600360008a815260200190815260200160002060003373ffffffffffffffffffffffffffffffffffffffff1673ffffffffffffffffffffffffffffffffffffffff1681526020019081526020016000208260ff166008811061074b577f4e487b7100000000000000000000000000000000000000000000000000000000600052603260045260246000fd5b016002806020026040519081016040528092919082600280156107a9576020028201916000905b82829054906101000a900460ff1660ff16815260200190600101906020826000010492830192600103820291508084116107725790505b50505050509050806000600281106107ea577f4e487b7100000000000000000000000000000000000000000000000000000000600052603260045260246000fd5b602002015160ff168b60ff16148015610846575080600160028110610838577f4e487b7100000000000000000000000000000000000000000000000000000000600052603260045260246000fd5b602002015160ff168a60ff16145b15610855576000925050610869565b508080610861906134a2565b9150506106b2565b508180156108745750805b6108b3576040517f08c379a00000000000000000000000000000000000000000000000000000000081526004016108aa906131dc565b60405180910390fd5b505050505050506000600660003373ffffffffffffffffffffffffffffffffffffffff1673ffffffffffffffffffffffffffffffffffffffff16815260200190815260200160002054905060006001905060005b60088160ff1610156109db57600a6008600085815260200190815260200160002060003373ffffffffffffffffffffffffffffffffffffffff1673ffffffffffffffffffffffffffffffffffffffff1681526020019081526020016000208260ff16600881106109a0577f4e487b7100000000000000000000000000000000000000000000000000000000600052603260045260246000fd5b602091828204019190069054906101000a900460ff1660ff1614156109c857600091506109db565b80806109d3906134a2565b915050610907565b5080610a1c576040517f08c379a0000000000000000000000000000000000000000000000000000000008152600401610a13906131bc565b60405180910390fd5b505060405180604001604052808760ff1660ff1681526020018660ff1660ff1681525060036000600660003373ffffffffffffffffffffffffffffffffffffffff1673ffffffffffffffffffffffffffffffffffffffff16815260200190815260200160002054815260200190815260200160002060003373ffffffffffffffffffffffffffffffffffffffff1673ffffffffffffffffffffffffffffffffffffffff1681526020019081526020016000208860ff1660088110610b09577f4e487b7100000000000000000000000000000000000000000000000000000000600052603260045260246000fd5b01906002610b1892919061285a565b5060003373ffffffffffffffffffffffffffffffffffffffff1660026000600660003373ffffffffffffffffffffffffffffffffffffffff1673ffffffffffffffffffffffffffffffffffffffff168152602001908152602001600020548152602001908152602001600020600060028110610bbd577f4e487b7100000000000000000000000000000000000000000000000000000000600052603260045260246000fd5b0160009054906101000a900473ffffffffffffffffffffffffffffffffffffffff1673ffffffffffffffffffffffffffffffffffffffff161415610caf5760026000600660003373ffffffffffffffffffffffffffffffffffffffff1673ffffffffffffffffffffffffffffffffffffffff168152602001908152602001600020548152602001908152602001600020600160028110610c86577f4e487b7100000000000000000000000000000000000000000000000000000000600052603260045260246000fd5b0160009054906101000a900473ffffffffffffffffffffffffffffffffffffffff169050610d5f565b60026000600660003373ffffffffffffffffffffffffffffffffffffffff1673ffffffffffffffffffffffffffffffffffffffff168152602001908152602001600020548152602001908152602001600020600060028110610d3a577f4e487b7100000000000000000000000000000000000000000000000000000000600052603260045260246000fd5b0160009054906101000a900473ffffffffffffffffffffffffffffffffffffffff1690505b60005b60088160ff16101561113757600060036000600660003373ffffffffffffffffffffffffffffffffffffffff1673ffffffffffffffffffffffffffffffffffffffff16815260200190815260200160002054815260200190815260200160002060008473ffffffffffffffffffffffffffffffffffffffff1673ffffffffffffffffffffffffffffffffffffffff1681526020019081526020016000208260ff1660088110610e3a577f4e487b7100000000000000000000000000000000000000000000000000000000600052603260045260246000fd5b01600280602002604051908101604052809291908260028015610e98576020028201916000905b82829054906101000a900460ff1660ff1681526020019060010190602082600001049283019260010382029150808411610e615790505b5050505050905080600060028110610ed9577f4e487b7100000000000000000000000000000000000000000000000000000000600052603260045260246000fd5b602002015160ff168960ff16148015610f35575080600160028110610f27577f4e487b7100000000000000000000000000000000000000000000000000000000600052603260045260246000fd5b602002015160ff168860ff16145b15611123576040518060400160405280600a60ff168152602001600a60ff1681525060036000600660003373ffffffffffffffffffffffffffffffffffffffff1673ffffffffffffffffffffffffffffffffffffffff16815260200190815260200160002054815260200190815260200160002060008573ffffffffffffffffffffffffffffffffffffffff1673ffffffffffffffffffffffffffffffffffffffff1681526020019081526020016000208360ff1660088110611021577f4e487b7100000000000000000000000000000000000000000000000000000000600052603260045260246000fd5b0190600261103092919061285a565b50600a60086000600660003373ffffffffffffffffffffffffffffffffffffffff1673ffffffffffffffffffffffffffffffffffffffff16815260200190815260200160002054815260200190815260200160002060008573ffffffffffffffffffffffffffffffffffffffff1673ffffffffffffffffffffffffffffffffffffffff1681526020019081526020016000208360ff16600881106110fd577f4e487b7100000000000000000000000000000000000000000000000000000000600052603260045260246000fd5b602091828204019190066101000a81548160ff021916908360ff16021790555050611137565b50808061112f906134a2565b915050610d62565b508060046000600660003373ffffffffffffffffffffffffffffffffffffffff1673ffffffffffffffffffffffffffffffffffffffff16815260200190815260200160002054815260200190815260200160002060006101000a81548173ffffffffffffffffffffffffffffffffffffffff021916908373ffffffffffffffffffffffffffffffffffffffff1602179055505050505050505050565b60076020528060005260406000206000915054906101000a900473ffffffffffffffffffffffffffffffffffffffff1681565b60046020528060005260406000206000915054906101000a900473ffffffffffffffffffffffffffffffffffffffff1681565b600080600660003373ffffffffffffffffffffffffffffffffffffffff1673ffffffffffffffffffffffffffffffffffffffff16815260200190815260200160002054146112bc576040517f08c379a00000000000000000000000000000000000000000000000000000000081526004016112b39061315c565b60405180910390fd5b60008054906101000a900473ffffffffffffffffffffffffffffffffffffffff1673ffffffffffffffffffffffffffffffffffffffff1663f5c9d69e868686866040518563ffffffff1660e01b815260040161131b949392919061309f565b60206040518083038186803b15801561133357600080fd5b505afa158015611347573d6000803e3d6000fd5b505050506040513d601f19601f8201168201806040525081019061136b9190612b95565b6113aa576040517f08c379a00000000000000000000000000000000000000000000000000000000081526004016113a19061319c565b60405180910390fd5b6000600154141561168c5733426040516020016113c8929190613058565b6040516020818303038152906040528051906020012060018190555033600260006001548152602001908152602001600020600060028110611433577f4e487b7100000000000000000000000000000000000000000000000000000000600052603260045260246000fd5b0160006101000a81548173ffffffffffffffffffffffffffffffffffffffff021916908373ffffffffffffffffffffffffffffffffffffffff160217905550600154600660003373ffffffffffffffffffffffffffffffffffffffff1673ffffffffffffffffffffffffffffffffffffffff168152602001908152602001600020819055506040518061010001604052806040518060400160405280600160ff168152602001600460ff1681525081526020016040518060400160405280600260ff168152602001600460ff1681525081526020016040518060400160405280600360ff168152602001600460ff1681525081526020016040518060400160405280600460ff168152602001600460ff1681525081526020016040518060400160405280600160ff168152602001600560ff1681525081526020016040518060400160405280600260ff168152602001600560ff1681525081526020016040518060400160405280600360ff168152602001600560ff1681525081526020016040518060400160405280600460ff168152602001600560ff1681525081525060036000600154815260200190815260200160002060003373ffffffffffffffffffffffffffffffffffffffff1673ffffffffffffffffffffffffffffffffffffffff1681526020019081526020016000209060086116329291906128f4565b503360046000600154815260200190815260200160002060006101000a81548173ffffffffffffffffffffffffffffffffffffffff021916908373ffffffffffffffffffffffffffffffffffffffff1602179055506119c2565b3373ffffffffffffffffffffffffffffffffffffffff166002600060015481526020019081526020016000206000600281106116f1577f4e487b7100000000000000000000000000000000000000000000000000000000600052603260045260246000fd5b0160009054906101000a900473ffffffffffffffffffffffffffffffffffffffff1673ffffffffffffffffffffffffffffffffffffffff16141561176a576040517f08c379a00000000000000000000000000000000000000000000000000000000081526004016117619061321c565b60405180910390fd5b600154600660003373ffffffffffffffffffffffffffffffffffffffff1673ffffffffffffffffffffffffffffffffffffffff16815260200190815260200160002081905550336002600060015481526020019081526020016000206001600281106117ff577f4e487b7100000000000000000000000000000000000000000000000000000000600052603260045260246000fd5b0160006101000a81548173ffffffffffffffffffffffffffffffffffffffff021916908373ffffffffffffffffffffffffffffffffffffffff1602179055506040518061010001604052806040518060400160405280600160ff168152602001600060ff1681525081526020016040518060400160405280600260ff168152602001600060ff1681525081526020016040518060400160405280600360ff168152602001600060ff1681525081526020016040518060400160405280600460ff168152602001600060ff1681525081526020016040518060400160405280600160ff168152602001600160ff1681525081526020016040518060400160405280600260ff168152602001600160ff1681525081526020016040518060400160405280600360ff168152602001600160ff1681525081526020016040518060400160405280600460ff168152602001600160ff1681525081525060036000600154815260200190815260200160002060003373ffffffffffffffffffffffffffffffffffffffff1673ffffffffffffffffffffffffffffffffffffffff1681526020019081526020016000209060086119b89291906128f4565b5060006001819055505b60005b60088160ff161015611ad057600560086000600660003373ffffffffffffffffffffffffffffffffffffffff1673ffffffffffffffffffffffffffffffffffffffff16815260200190815260200160002054815260200190815260200160002060003373ffffffffffffffffffffffffffffffffffffffff1673ffffffffffffffffffffffffffffffffffffffff1681526020019081526020016000208260ff1660088110611a9d577f4e487b7100000000000000000000000000000000000000000000000000000000600052603260045260246000fd5b602091828204019190066101000a81548160ff021916908360ff1602179055508080611ac8906134a2565b9150506119c5565b50600660003373ffffffffffffffffffffffffffffffffffffffff1673ffffffffffffffffffffffffffffffffffffffff168152602001908152602001600020549050949350505050565b60036020528360005260406000206020528260005260406000208260088110611b4357600080fd5b018160028110611b5257600080fd5b602091828204019190069350935050509054906101000a900460ff1681565b60086020528260005260406000206020528160005260406000208160088110611b9957600080fd5b6020918282040191900692509250509054906101000a900460ff1681565b60008060009054906101000a900473ffffffffffffffffffffffffffffffffffffffff1673ffffffffffffffffffffffffffffffffffffffff1663f5c9d69e868686866040518563ffffffff1660e01b8152600401611c19949392919061309f565b60206040518083038186803b158015611c3157600080fd5b505afa158015611c45573d6000803e3d6000fd5b505050506040513d601f19601f82011682018060405250810190611c699190612b95565b9050949350505050565b60066020528060005260406000206000915090505481565b60015481565b6000600660003373ffffffffffffffffffffffffffffffffffffffff1673ffffffffffffffffffffffffffffffffffffffff1681526020019081526020016000205490506000811415611d19576040517f08c379a0000000000000000000000000000000000000000000000000000000008152600401611d10906131fc565b60405180910390fd5b3373ffffffffffffffffffffffffffffffffffffffff166004600083815260200190815260200160002060009054906101000a900473ffffffffffffffffffffffffffffffffffffffff1673ffffffffffffffffffffffffffffffffffffffff1614611dba576040517f08c379a0000000000000000000000000000000000000000000000000000000008152600401611db19061317c565b60405180910390fd5b600a60086000600660003373ffffffffffffffffffffffffffffffffffffffff1673ffffffffffffffffffffffffffffffffffffffff16815260200190815260200160002054815260200190815260200160002060003373ffffffffffffffffffffffffffffffffffffffff1673ffffffffffffffffffffffffffffffffffffffff1681526020019081526020016000208460ff1660088110611e86577f4e487b7100000000000000000000000000000000000000000000000000000000600052603260045260246000fd5b602091828204019190069054906101000a900460ff1660ff1614611edf576040517f08c379a0000000000000000000000000000000000000000000000000000000008152600401611ed69061313c565b60405180910390fd5b60008260ff161480611ef4575060018260ff16145b611f33576040517f08c379a0000000000000000000000000000000000000000000000000000000008152600401611f2a9061311c565b60405180910390fd5b8160086000600660003373ffffffffffffffffffffffffffffffffffffffff1673ffffffffffffffffffffffffffffffffffffffff16815260200190815260200160002054815260200190815260200160002060003373ffffffffffffffffffffffffffffffffffffffff1673ffffffffffffffffffffffffffffffffffffffff1681526020019081526020016000208460ff1660088110611ffe577f4e487b7100000000000000000000000000000000000000000000000000000000600052603260045260246000fd5b602091828204019190066101000a81548160ff021916908360ff160217905550612026612068565b505050565b60056020528060005260406000206000915090505481565b6000808260000b121561205f578161205a906134fa565b612061565b815b9050919050565b60008060005b60088160ff16101561228857600060086000600660003373ffffffffffffffffffffffffffffffffffffffff1673ffffffffffffffffffffffffffffffffffffffff16815260200190815260200160002054815260200190815260200160002060003373ffffffffffffffffffffffffffffffffffffffff1673ffffffffffffffffffffffffffffffffffffffff1681526020019081526020016000208260ff1660088110612146577f4e487b7100000000000000000000000000000000000000000000000000000000600052603260045260246000fd5b602091828204019190069054906101000a900460ff1660ff161415612179576001826121729190613359565b9150612275565b600160086000600660003373ffffffffffffffffffffffffffffffffffffffff1673ffffffffffffffffffffffffffffffffffffffff16815260200190815260200160002054815260200190815260200160002060003373ffffffffffffffffffffffffffffffffffffffff1673ffffffffffffffffffffffffffffffffffffffff1681526020019081526020016000208260ff1660088110612245577f4e487b7100000000000000000000000000000000000000000000000000000000600052603260045260246000fd5b602091828204019190069054906101000a900460ff1660ff161415612274576001836122719190613359565b92505b5b8080612280906134a2565b91505061206e565b5060048260ff16106125715760003373ffffffffffffffffffffffffffffffffffffffff1660026000600660003373ffffffffffffffffffffffffffffffffffffffff1673ffffffffffffffffffffffffffffffffffffffff168152602001908152602001600020548152602001908152602001600020600060028110612338577f4e487b7100000000000000000000000000000000000000000000000000000000600052603260045260246000fd5b0160009054906101000a900473ffffffffffffffffffffffffffffffffffffffff1673ffffffffffffffffffffffffffffffffffffffff16141561242a5760026000600660003373ffffffffffffffffffffffffffffffffffffffff1673ffffffffffffffffffffffffffffffffffffffff168152602001908152602001600020548152602001908152602001600020600160028110612401577f4e487b7100000000000000000000000000000000000000000000000000000000600052603260045260246000fd5b0160009054906101000a900473ffffffffffffffffffffffffffffffffffffffff1690506124da565b60026000600660003373ffffffffffffffffffffffffffffffffffffffff1673ffffffffffffffffffffffffffffffffffffffff1681526020019081526020016000205481526020019081526020016000206000600281106124b5577f4e487b7100000000000000000000000000000000000000000000000000000000600052603260045260246000fd5b0160009054906101000a900473ffffffffffffffffffffffffffffffffffffffff1690505b8060076000600660003373ffffffffffffffffffffffffffffffffffffffff1673ffffffffffffffffffffffffffffffffffffffff16815260200190815260200160002054815260200190815260200160002060006101000a81548173ffffffffffffffffffffffffffffffffffffffff021916908373ffffffffffffffffffffffffffffffffffffffff16021790555050612856565b60048160ff16106128555760003373ffffffffffffffffffffffffffffffffffffffff1660026000600660003373ffffffffffffffffffffffffffffffffffffffff1673ffffffffffffffffffffffffffffffffffffffff168152602001908152602001600020548152602001908152602001600020600060028110612620577f4e487b7100000000000000000000000000000000000000000000000000000000600052603260045260246000fd5b0160009054906101000a900473ffffffffffffffffffffffffffffffffffffffff1673ffffffffffffffffffffffffffffffffffffffff1614156127125760026000600660003373ffffffffffffffffffffffffffffffffffffffff1673ffffffffffffffffffffffffffffffffffffffff1681526020019081526020016000205481526020019081526020016000206001600281106126e9577f4e487b7100000000000000000000000000000000000000000000000000000000600052603260045260246000fd5b0160009054906101000a900473ffffffffffffffffffffffffffffffffffffffff1690506127c2565b60026000600660003373ffffffffffffffffffffffffffffffffffffffff1673ffffffffffffffffffffffffffffffffffffffff16815260200190815260200160002054815260200190815260200160002060006002811061279d577f4e487b7100000000000000000000000000000000000000000000000000000000600052603260045260246000fd5b0160009054906101000a900473ffffffffffffffffffffffffffffffffffffffff1690505b3360076000600660003373ffffffffffffffffffffffffffffffffffffffff1673ffffffffffffffffffffffffffffffffffffffff16815260200190815260200160002054815260200190815260200160002060006101000a81548173ffffffffffffffffffffffffffffffffffffffff021916908373ffffffffffffffffffffffffffffffffffffffff160217905550505b5b5050565b826002601f016020900481019282156128e35791602002820160005b838211156128b457835183826101000a81548160ff021916908360ff1602179055509260200192600101602081600001049283019260010302612876565b80156128e15782816101000a81549060ff02191690556001016020816000010492830192600103026128b4565b505b5090506128f09190612942565b5090565b8260088101928215612931579160200282015b828111156129305782518290600261292092919061285a565b5091602001919060010190612907565b5b50905061293e919061295f565b5090565b5b8082111561295b576000816000905550600101612943565b5090565b5b8082111561297f57600081816129769190612983565b50600101612960565b5090565b5060009055565b600061299d61299884613297565b613272565b905080828560408602820111156129b357600080fd5b60005b858110156129e357816129c98882612a8c565b8452602084019350604083019250506001810190506129b6565b5050509392505050565b6000612a006129fb846132bd565b613272565b90508082856020860282011115612a1657600080fd5b60005b85811015612a465781612a2c8882612add565b845260208401935060208301925050600181019050612a19565b5050509392505050565b600081359050612a5f81613730565b92915050565b600082601f830112612a7657600080fd5b6002612a8384828561298a565b91505092915050565b600082601f830112612a9d57600080fd5b6002612aaa8482856129ed565b91505092915050565b600081519050612ac281613747565b92915050565b600081359050612ad78161375e565b92915050565b600081359050612aec81613775565b92915050565b600081359050612b018161378c565b92915050565b600060208284031215612b1957600080fd5b6000612b2784828501612a50565b91505092915050565b6000806000806101408587031215612b4757600080fd5b6000612b5587828801612a8c565b9450506040612b6687828801612a65565b93505060c0612b7787828801612a8c565b925050610100612b8987828801612a8c565b91505092959194509250565b600060208284031215612ba757600080fd5b6000612bb584828501612ab3565b91505092915050565b600060208284031215612bd057600080fd5b6000612bde84828501612ac8565b91505092915050565b600080600060608486031215612bfc57600080fd5b6000612c0a86828701612ac8565b9350506020612c1b86828701612a50565b9250506040612c2c86828701612add565b9150509250925092565b60008060008060808587031215612c4c57600080fd5b6000612c5a87828801612ac8565b9450506020612c6b87828801612a50565b9350506040612c7c87828801612add565b9250506060612c8d87828801612add565b91505092959194509250565b60008060408385031215612cac57600080fd5b6000612cba85828601612ac8565b9250506020612ccb85828601612add565b9150509250929050565b60008060408385031215612ce857600080fd5b6000612cf685828601612af2565b9250506020612d0785828601612af2565b9150509250929050565b600080600060608486031215612d2657600080fd5b6000612d3486828701612af2565b9350506020612d4586828701612af2565b9250506040612d5686828701612af2565b9150509250925092565b6000612d6c8383612e0d565b60408301905092915050565b6000612d848383613014565b60208301905092915050565b612d9981613405565b82525050565b612db0612dab82613405565b6134cc565b82525050565b612dbf816132f7565b612dc98184613327565b9250612dd4826132e3565b8060005b83811015612e05578151612dec8782612d60565b9650612df78361330d565b925050600181019050612dd8565b505050505050565b612e1681613302565b612e208184613332565b9250612e2b826132ed565b8060005b83811015612e5c578151612e438782612d78565b9650612e4e8361331a565b925050600181019050612e2f565b505050505050565b612e6d81613302565b612e77818461333d565b9250612e82826132ed565b8060005b83811015612eb3578151612e9a8782612d78565b9650612ea58361331a565b925050600181019050612e86565b505050505050565b612ec481613417565b82525050565b612ed381613423565b82525050565b6000612ee6601483613348565b9150612ef1826135bf565b602082019050919050565b6000612f09601b83613348565b9150612f14826135e8565b602082019050919050565b6000612f2c601583613348565b9150612f3782613611565b602082019050919050565b6000612f4f601283613348565b9150612f5a8261363a565b602082019050919050565b6000612f72601183613348565b9150612f7d82613663565b602082019050919050565b6000612f95601a83613348565b9150612fa08261368c565b602082019050919050565b6000612fb8601083613348565b9150612fc3826136b5565b602082019050919050565b6000612fdb601983613348565b9150612fe6826136de565b602082019050919050565b6000612ffe601c83613348565b915061300982613707565b602082019050919050565b61301d8161345a565b82525050565b61302c8161345a565b82525050565b61304361303e8261345a565b6134f0565b82525050565b61305281613464565b82525050565b60006130648285612d9f565b6014820191506130748284613032565b6020820191508190509392505050565b60006020820190506130996000830184612d90565b92915050565b6000610140820190506130b56000830187612e64565b6130c26040830186612db6565b6130cf60c0830185612e64565b6130dd610100830184612e64565b95945050505050565b60006020820190506130fb6000830184612ebb565b92915050565b60006020820190506131166000830184612eca565b92915050565b6000602082019050818103600083015261313581612ed9565b9050919050565b6000602082019050818103600083015261315581612efc565b9050919050565b6000602082019050818103600083015261317581612f1f565b9050919050565b6000602082019050818103600083015261319581612f42565b9050919050565b600060208201905081810360008301526131b581612f65565b9050919050565b600060208201905081810360008301526131d581612f88565b9050919050565b600060208201905081810360008301526131f581612fab565b9050919050565b6000602082019050818103600083015261321581612fce565b9050919050565b6000602082019050818103600083015261323581612ff1565b9050919050565b60006020820190506132516000830184613023565b92915050565b600060208201905061326c6000830184613049565b92915050565b600061327c61328d565b90506132888282613471565b919050565b6000604051905090565b600067ffffffffffffffff8211156132b2576132b1613572565b5b602082029050919050565b600067ffffffffffffffff8211156132d8576132d7613572565b5b602082029050919050565b6000819050919050565b6000819050919050565b600060029050919050565b600060029050919050565b6000602082019050919050565b6000602082019050919050565b600081905092915050565b600081905092915050565b600081905092915050565b600082825260208201905092915050565b600061336482613464565b915061336f83613464565b92508260ff0382111561338557613384613543565b5b828201905092915050565b600061339b8261342d565b91506133a68361342d565b9250827fffffffffffffffffffffffffffffffffffffffffffffffffffffffffffffff80018212600084121516156133e1576133e0613543565b5b82607f0182136000841216156133fa576133f9613543565b5b828203905092915050565b60006134108261343a565b9050919050565b60008115159050919050565b6000819050919050565b60008160000b9050919050565b600073ffffffffffffffffffffffffffffffffffffffff82169050919050565b6000819050919050565b600060ff82169050919050565b61347a826135a1565b810181811067ffffffffffffffff8211171561349957613498613572565b5b80604052505050565b60006134ad82613464565b915060ff8214156134c1576134c0613543565b5b600182019050919050565b60006134d7826134de565b9050919050565b60006134e9826135b2565b9050919050565b6000819050919050565b60006135058261342d565b91507fffffffffffffffffffffffffffffffffffffffffffffffffffffffffffffff8082141561353857613537613543565b5b816000039050919050565b7f4e487b7100000000000000000000000000000000000000000000000000000000600052601160045260246000fd5b7f4e487b7100000000000000000000000000000000000000000000000000000000600052604160045260246000fd5b6000601f19601f8301169050919050565b60008160601b9050919050565b7f6d757374206265207a65726f206f72206f6e652e000000000000000000000000600082015250565b7f6d757374206265206e6565642072657665616c207374617475732e0000000000600082015250565b7f706c6179696e6720616e6f746865722067616d652e0000000000000000000000600082015250565b7f6d75737420626520796f7572207475726e2e0000000000000000000000000000600082015250565b7f6d7573742062652076657269666965642e000000000000000000000000000000600082015250565b7f6e65656420746f2072657665616c20796f75722070696563652e000000000000600082015250565b7f6d757374206265206d6f7661626c652e00000000000000000000000000000000600082015250565b7f6d75737420626520706c6179696e67207468652067616d652e00000000000000600082015250565b7f706c6179657273206d757374206e6f74206265207468652073616d6500000000600082015250565b61373981613405565b811461374457600080fd5b50565b61375081613417565b811461375b57600080fd5b50565b61376781613423565b811461377257600080fd5b50565b61377e8161345a565b811461378957600080fd5b50565b61379581613464565b81146137a057600080fd5b5056fea2646970667358221220a718f214dbb44cb90f1122fb4d700f5b99c585bdf2ccf37a0ab3204b2330bb2d64736f6c63430008040033",
  "linkReferences": {},
  "deployedLinkReferences": {}
}