{
  "_format": "hh-sol-artifact-1",
  "contractName": "Ghosts",
  "sourceName": "contracts/Ghosts.sol",
  "abi": [
    {
      "inputs": [
        {
          "internalType": "address",
          "name": "verifierAddress",
          "type": "address"
        },
        {
          "internalType": "address",
          "name": "igstCoinAddress",
          "type": "address"
        }
      ],
      "stateMutability": "nonpayable",
      "type": "constructor"
    },
    {
      "anonymous": false,
      "inputs": [
        {
          "indexed": true,
          "internalType": "bytes32",
          "name": "_game",
          "type": "bytes32"
        },
        {
          "indexed": true,
          "internalType": "address",
          "name": "_turnPlayer",
          "type": "address"
        }
      ],
      "name": "MustReveal",
      "type": "event"
    },
    {
      "anonymous": false,
      "inputs": [
        {
          "indexed": true,
          "internalType": "bytes32",
          "name": "_game",
          "type": "bytes32"
        },
        {
          "indexed": true,
          "internalType": "address",
          "name": "_turnPlayer",
          "type": "address"
        }
      ],
      "name": "TurnStart",
      "type": "event"
    },
    {
      "anonymous": false,
      "inputs": [
        {
          "indexed": true,
          "internalType": "bytes32",
          "name": "_game",
          "type": "bytes32"
        },
        {
          "indexed": false,
          "internalType": "address",
          "name": "_winner",
          "type": "address"
        }
      ],
      "name": "Winner",
      "type": "event"
    },
    {
      "inputs": [],
      "name": "cancelGame",
      "outputs": [],
      "stateMutability": "nonpayable",
      "type": "function"
    },
    {
      "inputs": [
        {
          "internalType": "uint256",
          "name": "v",
          "type": "uint256"
        },
        {
          "internalType": "uint256",
          "name": "salt",
          "type": "uint256"
        }
      ],
      "name": "claimGstCoin",
      "outputs": [],
      "stateMutability": "nonpayable",
      "type": "function"
    },
    {
      "inputs": [],
      "name": "currentPieceStatuses",
      "outputs": [
        {
          "internalType": "uint8[8]",
          "name": "",
          "type": "uint8[8]"
        },
        {
          "internalType": "uint8[8]",
          "name": "",
          "type": "uint8[8]"
        }
      ],
      "stateMutability": "view",
      "type": "function"
    },
    {
      "inputs": [],
      "name": "currentPositions",
      "outputs": [
        {
          "internalType": "uint8[2][8]",
          "name": "",
          "type": "uint8[2][8]"
        },
        {
          "internalType": "uint8[2][8]",
          "name": "",
          "type": "uint8[2][8]"
        }
      ],
      "stateMutability": "view",
      "type": "function"
    },
    {
      "inputs": [
        {
          "internalType": "uint256[2]",
          "name": "a",
          "type": "uint256[2]"
        },
        {
          "internalType": "uint256[2][2]",
          "name": "b",
          "type": "uint256[2][2]"
        },
        {
          "internalType": "uint256[2]",
          "name": "c",
          "type": "uint256[2]"
        },
        {
          "internalType": "uint256[2]",
          "name": "input",
          "type": "uint256[2]"
        }
      ],
      "name": "isValidProof",
      "outputs": [
        {
          "internalType": "bool",
          "name": "",
          "type": "bool"
        }
      ],
      "stateMutability": "view",
      "type": "function"
    },
    {
      "inputs": [
        {
          "internalType": "uint8",
          "name": "idx",
          "type": "uint8"
        },
        {
          "internalType": "uint8",
          "name": "toX",
          "type": "uint8"
        },
        {
          "internalType": "uint8",
          "name": "toY",
          "type": "uint8"
        }
      ],
      "name": "move",
      "outputs": [],
      "stateMutability": "nonpayable",
      "type": "function"
    },
    {
      "inputs": [
        {
          "internalType": "bytes32",
          "name": "",
          "type": "bytes32"
        },
        {
          "internalType": "address",
          "name": "",
          "type": "address"
        },
        {
          "internalType": "uint256",
          "name": "",
          "type": "uint256"
        }
      ],
      "name": "pieceStatuses",
      "outputs": [
        {
          "internalType": "uint8",
          "name": "",
          "type": "uint8"
        }
      ],
      "stateMutability": "view",
      "type": "function"
    },
    {
      "inputs": [
        {
          "internalType": "bytes32",
          "name": "",
          "type": "bytes32"
        },
        {
          "internalType": "address",
          "name": "",
          "type": "address"
        },
        {
          "internalType": "uint256",
          "name": "",
          "type": "uint256"
        },
        {
          "internalType": "uint256",
          "name": "",
          "type": "uint256"
        }
      ],
      "name": "pieces",
      "outputs": [
        {
          "internalType": "uint8",
          "name": "",
          "type": "uint8"
        }
      ],
      "stateMutability": "view",
      "type": "function"
    },
    {
      "inputs": [
        {
          "internalType": "bytes32",
          "name": "",
          "type": "bytes32"
        },
        {
          "internalType": "uint256",
          "name": "",
          "type": "uint256"
        }
      ],
      "name": "players",
      "outputs": [
        {
          "internalType": "address",
          "name": "",
          "type": "address"
        }
      ],
      "stateMutability": "view",
      "type": "function"
    },
    {
      "inputs": [
        {
          "internalType": "address",
          "name": "",
          "type": "address"
        }
      ],
      "name": "playingGame",
      "outputs": [
        {
          "internalType": "bytes32",
          "name": "",
          "type": "bytes32"
        }
      ],
      "stateMutability": "view",
      "type": "function"
    },
    {
      "inputs": [
        {
          "internalType": "bytes32",
          "name": "",
          "type": "bytes32"
        },
        {
          "internalType": "address",
          "name": "",
          "type": "address"
        }
      ],
      "name": "pubHash",
      "outputs": [
        {
          "internalType": "uint256",
          "name": "",
          "type": "uint256"
        }
      ],
      "stateMutability": "view",
      "type": "function"
    },
    {
      "inputs": [
        {
          "internalType": "uint8",
          "name": "idx",
          "type": "uint8"
        },
        {
          "internalType": "uint8",
          "name": "status",
          "type": "uint8"
        }
      ],
      "name": "revealPiece",
      "outputs": [],
      "stateMutability": "nonpayable",
      "type": "function"
    },
    {
      "inputs": [
        {
          "internalType": "uint256[2]",
          "name": "a",
          "type": "uint256[2]"
        },
        {
          "internalType": "uint256[2][2]",
          "name": "b",
          "type": "uint256[2][2]"
        },
        {
          "internalType": "uint256[2]",
          "name": "c",
          "type": "uint256[2]"
        },
        {
          "internalType": "uint256[2]",
          "name": "input",
          "type": "uint256[2]"
        }
      ],
      "name": "startGame",
      "outputs": [
        {
          "internalType": "bytes32",
          "name": "",
          "type": "bytes32"
        }
      ],
      "stateMutability": "nonpayable",
      "type": "function"
    },
    {
      "inputs": [
        {
          "internalType": "bytes32",
          "name": "",
          "type": "bytes32"
        }
      ],
      "name": "timeLimit",
      "outputs": [
        {
          "internalType": "uint256",
          "name": "",
          "type": "uint256"
        }
      ],
      "stateMutability": "view",
      "type": "function"
    },
    {
      "inputs": [
        {
          "internalType": "bytes32",
          "name": "",
          "type": "bytes32"
        }
      ],
      "name": "turnPlayer",
      "outputs": [
        {
          "internalType": "address",
          "name": "",
          "type": "address"
        }
      ],
      "stateMutability": "view",
      "type": "function"
    },
    {
      "inputs": [],
      "name": "waitingGame",
      "outputs": [
        {
          "internalType": "bytes32",
          "name": "",
          "type": "bytes32"
        }
      ],
      "stateMutability": "view",
      "type": "function"
    },
    {
      "inputs": [
        {
          "internalType": "uint8",
          "name": "idx",
          "type": "uint8"
        },
        {
          "internalType": "uint8[]",
          "name": "statuses",
          "type": "uint8[]"
        },
        {
          "internalType": "uint256",
          "name": "salt",
          "type": "uint256"
        }
      ],
      "name": "winMove",
      "outputs": [],
      "stateMutability": "nonpayable",
      "type": "function"
    },
    {
      "inputs": [
        {
          "internalType": "bytes32",
          "name": "",
          "type": "bytes32"
        }
      ],
      "name": "winner",
      "outputs": [
        {
          "internalType": "address",
          "name": "",
          "type": "address"
        }
      ],
      "stateMutability": "view",
      "type": "function"
    }
  ],
  "bytecode": "0x60806040523480156200001157600080fd5b5060405162006148380380620061488339818101604052810190620000379190620000d7565b816000806101000a81548173ffffffffffffffffffffffffffffffffffffffff021916908373ffffffffffffffffffffffffffffffffffffffff16021790555080600160006101000a81548173ffffffffffffffffffffffffffffffffffffffff021916908373ffffffffffffffffffffffffffffffffffffffff160217905550505062000166565b600081519050620000d1816200014c565b92915050565b60008060408385031215620000eb57600080fd5b6000620000fb85828601620000c0565b92505060206200010e85828601620000c0565b9150509250929050565b600062000125826200012c565b9050919050565b600073ffffffffffffffffffffffffffffffffffffffff82169050919050565b620001578162000118565b81146200016357600080fd5b50565b615fd280620001766000396000f3fe608060405234801561001057600080fd5b50600436106101165760003560e01c80638e38d8c8116100a2578063bfd5a99211610071578063bfd5a9921461032d578063c26d94d61461035d578063d84c1ac91461037b578063e71ba77c14610385578063fb0ed680146103a157610116565b80638e38d8c81461027e578063a657e3951461029d578063b860a060146102cd578063bc914854146102fd57610116565b806338798545116100e957806338798545146101b35780634761cdc6146101d25780634d49ad231461020257806351a7b9cc1461023257806366e4521e1461024e57610116565b80631292b41e1461011b57806319e9cc8c1461013757806329dae39d14610167578063305b630c14610183575b600080fd5b61013560048036038101906101309190614d6c565b6103d1565b005b610151600480360381019061014c9190614d07565b6107c7565b60405161015e91906153e4565b60405180910390f35b610181600480360381019061017c9190614e4b565b61080c565b005b61019d60048036038101906101989190614bf0565b6115dd565b6040516101aa91906153e4565b60405180910390f35b6101bb611610565b6040516101c9929190615451565b60405180910390f35b6101ec60048036038101906101e79190614bf0565b611b9b565b6040516101f991906153e4565b60405180910390f35b61021c60048036038101906102179190614b62565b611bce565b6040516102299190615524565b60405180910390f35b61024c60048036038101906102479190614da8565b6126f6565b005b61026860048036038101906102639190614ca4565b613371565b60405161027591906156ba565b60405180910390f35b6102866133c7565b6040516102949291906154de565b60405180910390f35b6102b760048036038101906102b29190614c19565b61387e565b6040516102c4919061569f565b60405180910390f35b6102e760048036038101906102e29190614c55565b6138a3565b6040516102f491906156ba565b60405180910390f35b61031760048036038101906103129190614b62565b6138e9565b6040516103249190615509565b60405180910390f35b61034760048036038101906103429190614b39565b6139a5565b6040516103549190615524565b60405180910390f35b6103656139bd565b6040516103729190615524565b60405180910390f35b6103836139c3565b005b61039f600480360381019061039a9190614e0f565b613b25565b005b6103bb60048036038101906103b69190614bf0565b613ed4565b6040516103c8919061569f565b60405180910390f35b6000600760003373ffffffffffffffffffffffffffffffffffffffff1673ffffffffffffffffffffffffffffffffffffffff1681526020019081526020016000205490503373ffffffffffffffffffffffffffffffffffffffff166005600083815260200190815260200160002060009054906101000a900473ffffffffffffffffffffffffffffffffffffffff1673ffffffffffffffffffffffffffffffffffffffff16141580156104965750600660008281526020019081526020016000205442115b156104d3573373ffffffffffffffffffffffffffffffffffffffff166008600083815260200190815260200160002060009054906101000a905050505b600760003373ffffffffffffffffffffffffffffffffffffffff1673ffffffffffffffffffffffffffffffffffffffff168152602001908152602001600020548114801561057f57503373ffffffffffffffffffffffffffffffffffffffff166008600083815260200190815260200160002060009054906101000a900473ffffffffffffffffffffffffffffffffffffffff1673ffffffffffffffffffffffffffffffffffffffff16145b6105be576040517f08c379a00000000000000000000000000000000000000000000000000000000081526004016105b59061567f565b60405180910390fd5b6105c88383613eec565b1561065e57600160009054906101000a900473ffffffffffffffffffffffffffffffffffffffff1673ffffffffffffffffffffffffffffffffffffffff166340c10f193360146040518363ffffffff1660e01b815260040161062b9291906153ff565b600060405180830381600087803b15801561064557600080fd5b505af1158015610659573d6000803e3d6000fd5b505050505b600060076000600360008581526020019081526020016000206000600281106106b0577f4e487b7100000000000000000000000000000000000000000000000000000000600052603260045260246000fd5b0160009054906101000a900473ffffffffffffffffffffffffffffffffffffffff1673ffffffffffffffffffffffffffffffffffffffff1673ffffffffffffffffffffffffffffffffffffffff1681526020019081526020016000208190555060006007600060036000858152602001908152602001600020600160028110610762577f4e487b7100000000000000000000000000000000000000000000000000000000600052603260045260246000fd5b0160009054906101000a900473ffffffffffffffffffffffffffffffffffffffff1673ffffffffffffffffffffffffffffffffffffffff1673ffffffffffffffffffffffffffffffffffffffff16815260200190815260200160002081905550505050565b600360205281600052604060002081600281106107e357600080fd5b016000915091509054906101000a900473ffffffffffffffffffffffffffffffffffffffff1681565b6000600760003373ffffffffffffffffffffffffffffffffffffffff1673ffffffffffffffffffffffffffffffffffffffff1681526020019081526020016000205490506000811415610894576040517f08c379a000000000000000000000000000000000000000000000000000000000815260040161088b9061555f565b60405180910390fd5b3373ffffffffffffffffffffffffffffffffffffffff166005600083815260200190815260200160002060009054906101000a900473ffffffffffffffffffffffffffffffffffffffff1673ffffffffffffffffffffffffffffffffffffffff1614610935576040517f08c379a000000000000000000000000000000000000000000000000000000000815260040161092c9061561f565b60405180910390fd5b8383836000600760003373ffffffffffffffffffffffffffffffffffffffff1673ffffffffffffffffffffffffffffffffffffffff16815260200190815260200160002054905060006004600083815260200190815260200160002060003373ffffffffffffffffffffffffffffffffffffffff1673ffffffffffffffffffffffffffffffffffffffff1681526020019081526020016000208560ff1660088110610a09577f4e487b7100000000000000000000000000000000000000000000000000000000600052603260045260246000fd5b01600060028110610a43577f4e487b7100000000000000000000000000000000000000000000000000000000600052603260045260246000fd5b602091828204019190069054906101000a900460ff16905060006004600084815260200190815260200160002060003373ffffffffffffffffffffffffffffffffffffffff1673ffffffffffffffffffffffffffffffffffffffff1681526020019081526020016000208660ff1660088110610ae8577f4e487b7100000000000000000000000000000000000000000000000000000000600052603260045260246000fd5b01600160028110610b22577f4e487b7100000000000000000000000000000000000000000000000000000000600052603260045260246000fd5b602091828204019190069054906101000a900460ff16905060008286610b489190615ad2565b905060008286610b589190615ad2565b905060006001610b678461406c565b60000b148015610b8257506000610b7d8361406c565b60000b145b80610baf57506000610b938461406c565b60000b148015610bae57506001610ba98361406c565b60000b145b5b905060006001905060005b60088160ff161015610d71576000600460008a815260200190815260200160002060003373ffffffffffffffffffffffffffffffffffffffff1673ffffffffffffffffffffffffffffffffffffffff1681526020019081526020016000208260ff1660088110610c53577f4e487b7100000000000000000000000000000000000000000000000000000000600052603260045260246000fd5b01600280602002604051908101604052809291908260028015610cb1576020028201916000905b82829054906101000a900460ff1660ff1681526020019060010190602082600001049283019260010382029150808411610c7a5790505b5050505050905080600060028110610cf2577f4e487b7100000000000000000000000000000000000000000000000000000000600052603260045260246000fd5b602002015160ff168b60ff16148015610d4e575080600160028110610d40577f4e487b7100000000000000000000000000000000000000000000000000000000600052603260045260246000fd5b602002015160ff168a60ff16145b15610d5d576000925050610d71565b508080610d6990615c3c565b915050610bba565b50818015610d7c5750805b610dbb576040517f08c379a0000000000000000000000000000000000000000000000000000000008152600401610db29061563f565b60405180910390fd5b5050505050505060006001905060005b60088160ff161015610edd57600a806000600760003373ffffffffffffffffffffffffffffffffffffffff1673ffffffffffffffffffffffffffffffffffffffff16815260200190815260200160002054815260200190815260200160002060003373ffffffffffffffffffffffffffffffffffffffff1673ffffffffffffffffffffffffffffffffffffffff1681526020019081526020016000208260ff1660088110610ea2577f4e487b7100000000000000000000000000000000000000000000000000000000600052603260045260246000fd5b602091828204019190069054906101000a900460ff1660ff161415610eca5760009150610edd565b8080610ed590615c3c565b915050610dcb565b5080610f1e576040517f08c379a0000000000000000000000000000000000000000000000000000000008152600401610f15906155ff565b60405180910390fd5b506000600760003373ffffffffffffffffffffffffffffffffffffffff1673ffffffffffffffffffffffffffffffffffffffff16815260200190815260200160002054905060405180604001604052808860ff1660ff1681526020018760ff1660ff168152506004600083815260200190815260200160002060003373ffffffffffffffffffffffffffffffffffffffff1673ffffffffffffffffffffffffffffffffffffffff1681526020019081526020016000208960ff166008811061100f577f4e487b7100000000000000000000000000000000000000000000000000000000600052603260045260246000fd5b0190600261101e92919061476e565b5060003373ffffffffffffffffffffffffffffffffffffffff1660036000848152602001908152602001600020600060028110611084577f4e487b7100000000000000000000000000000000000000000000000000000000600052603260045260246000fd5b0160009054906101000a900473ffffffffffffffffffffffffffffffffffffffff1673ffffffffffffffffffffffffffffffffffffffff161415611137576003600083815260200190815260200160002060016002811061110e577f4e487b7100000000000000000000000000000000000000000000000000000000600052603260045260246000fd5b0160009054906101000a900473ffffffffffffffffffffffffffffffffffffffff1690506111a8565b60036000838152602001908152602001600020600060028110611183577f4e487b7100000000000000000000000000000000000000000000000000000000600052603260045260246000fd5b0160009054906101000a900473ffffffffffffffffffffffffffffffffffffffff1690505b6000805b60088160ff1610156114c75760006004600086815260200190815260200160002060008573ffffffffffffffffffffffffffffffffffffffff1673ffffffffffffffffffffffffffffffffffffffff1681526020019081526020016000208260ff1660088110611245577f4e487b7100000000000000000000000000000000000000000000000000000000600052603260045260246000fd5b016002806020026040519081016040528092919082600280156112a3576020028201916000905b82829054906101000a900460ff1660ff168152602001906001019060208260000104928301926001038202915080841161126c5790505b50505050509050806000600281106112e4577f4e487b7100000000000000000000000000000000000000000000000000000000600052603260045260246000fd5b602002015160ff168b60ff16148015611340575080600160028110611332577f4e487b7100000000000000000000000000000000000000000000000000000000600052603260045260246000fd5b602002015160ff168a60ff16145b156114b3576040518060400160405280600a60ff168152602001600a60ff168152506004600087815260200190815260200160002060008673ffffffffffffffffffffffffffffffffffffffff1673ffffffffffffffffffffffffffffffffffffffff1681526020019081526020016000208360ff16600881106113ed577f4e487b7100000000000000000000000000000000000000000000000000000000600052603260045260246000fd5b019060026113fc92919061476e565b50600a80600087815260200190815260200160002060008673ffffffffffffffffffffffffffffffffffffffff1673ffffffffffffffffffffffffffffffffffffffff1681526020019081526020016000208360ff1660088110611489577f4e487b7100000000000000000000000000000000000000000000000000000000600052603260045260246000fd5b602091828204019190066101000a81548160ff021916908360ff16021790555060019250506114c7565b5080806114bf90615c3c565b9150506111ac565b50610258426114d6919061587a565b6006600085815260200190815260200160002081905550816005600085815260200190815260200160002060006101000a81548173ffffffffffffffffffffffffffffffffffffffff021916908373ffffffffffffffffffffffffffffffffffffffff1602179055508061158d578173ffffffffffffffffffffffffffffffffffffffff16837f825d226c0713a8034f222c43993e2ec904eabba2af0bb6b9bbb170b3d765b6cf60405160405180910390a36115d1565b8173ffffffffffffffffffffffffffffffffffffffff16837ec2cfd8b34bd5a81e73bcdab6a2992dcd05302c85788f3c5141f91638325e8960405160405180910390a35b50505050505050505050565b60086020528060005260406000206000915054906101000a900473ffffffffffffffffffffffffffffffffffffffff1681565b611618614808565b611620614808565b6000600760003373ffffffffffffffffffffffffffffffffffffffff1673ffffffffffffffffffffffffffffffffffffffff1681526020019081526020016000205490503373ffffffffffffffffffffffffffffffffffffffff16600360008381526020019081526020016000206000600281106116c7577f4e487b7100000000000000000000000000000000000000000000000000000000600052603260045260246000fd5b0160009054906101000a900473ffffffffffffffffffffffffffffffffffffffff1673ffffffffffffffffffffffffffffffffffffffff161415611950576004600082815260200190815260200160002060003373ffffffffffffffffffffffffffffffffffffffff1673ffffffffffffffffffffffffffffffffffffffff168152602001908152602001600020600460008381526020019081526020016000206000600360008581526020019081526020016000206001600281106117b6577f4e487b7100000000000000000000000000000000000000000000000000000000600052603260045260246000fd5b0160009054906101000a900473ffffffffffffffffffffffffffffffffffffffff1673ffffffffffffffffffffffffffffffffffffffff1673ffffffffffffffffffffffffffffffffffffffff16815260200190815260200160002081600880602002604051908101604052809291906000905b828210156118a657838201600280602002604051908101604052809291908260028015611892576020028201916000905b82829054906101000a900460ff1660ff168152602001906001019060208260000104928301926001038202915080841161185b5790505b50505050508152602001906001019061182a565b50505050915080600880602002604051908101604052809291906000905b828210156119405783820160028060200260405190810160405280929190826002801561192c576020028201916000905b82829054906101000a900460ff1660ff16815260200190600101906020826000010492830192600103820291508084116118f55790505b5050505050815260200190600101906118c4565b5050505090509250925050611b97565b6004600082815260200190815260200160002060003373ffffffffffffffffffffffffffffffffffffffff1673ffffffffffffffffffffffffffffffffffffffff16815260200190815260200160002060046000838152602001908152602001600020600060036000858152602001908152602001600020600060028110611a01577f4e487b7100000000000000000000000000000000000000000000000000000000600052603260045260246000fd5b0160009054906101000a900473ffffffffffffffffffffffffffffffffffffffff1673ffffffffffffffffffffffffffffffffffffffff1673ffffffffffffffffffffffffffffffffffffffff16815260200190815260200160002081600880602002604051908101604052809291906000905b82821015611af157838201600280602002604051908101604052809291908260028015611add576020028201916000905b82829054906101000a900460ff1660ff1681526020019060010190602082600001049283019260010382029150808411611aa65790505b505050505081526020019060010190611a75565b50505050915080600880602002604051908101604052809291906000905b82821015611b8b57838201600280602002604051908101604052809291908260028015611b77576020028201916000905b82829054906101000a900460ff1660ff1681526020019060010190602082600001049283019260010382029150808411611b405790505b505050505081526020019060010190611b0f565b50505050905092509250505b9091565b60056020528060005260406000206000915054906101000a900473ffffffffffffffffffffffffffffffffffffffff1681565b600080600760003373ffffffffffffffffffffffffffffffffffffffff1673ffffffffffffffffffffffffffffffffffffffff1681526020019081526020016000205414611c51576040517f08c379a0000000000000000000000000000000000000000000000000000000008152600401611c48906155df565b60405180910390fd5b60008054906101000a900473ffffffffffffffffffffffffffffffffffffffff1673ffffffffffffffffffffffffffffffffffffffff1663f5c9d69e868686866040518563ffffffff1660e01b8152600401611cb09493929190615497565b60206040518083038186803b158015611cc857600080fd5b505afa158015611cdc573d6000803e3d6000fd5b505050506040513d601f19601f82011682018060405250810190611d009190614bc7565b611d3f576040517f08c379a0000000000000000000000000000000000000000000000000000000008152600401611d36906155bf565b60405180910390fd5b600060025414156120b6573342604051602001611d5d9291906153b8565b6040516020818303038152906040528051906020012060028190555033600360006002548152602001908152602001600020600060028110611dc8577f4e487b7100000000000000000000000000000000000000000000000000000000600052603260045260246000fd5b0160006101000a81548173ffffffffffffffffffffffffffffffffffffffff021916908373ffffffffffffffffffffffffffffffffffffffff160217905550600254600760003373ffffffffffffffffffffffffffffffffffffffff1673ffffffffffffffffffffffffffffffffffffffff168152602001908152602001600020819055506040518061010001604052806040518060400160405280600160ff168152602001600460ff1681525081526020016040518060400160405280600260ff168152602001600460ff1681525081526020016040518060400160405280600360ff168152602001600460ff1681525081526020016040518060400160405280600460ff168152602001600460ff1681525081526020016040518060400160405280600160ff168152602001600560ff1681525081526020016040518060400160405280600260ff168152602001600560ff1681525081526020016040518060400160405280600360ff168152602001600560ff1681525081526020016040518060400160405280600460ff168152602001600560ff1681525081525060046000600254815260200190815260200160002060003373ffffffffffffffffffffffffffffffffffffffff1673ffffffffffffffffffffffffffffffffffffffff168152602001908152602001600020906008611fc7929190614836565b5081600060028110612002577f4e487b7100000000000000000000000000000000000000000000000000000000600052603260045260246000fd5b602002015160096000600254815260200190815260200160002060003373ffffffffffffffffffffffffffffffffffffffff1673ffffffffffffffffffffffffffffffffffffffff168152602001908152602001600020819055503360056000600254815260200190815260200160002060006101000a81548173ffffffffffffffffffffffffffffffffffffffff021916908373ffffffffffffffffffffffffffffffffffffffff16021790555061259d565b3373ffffffffffffffffffffffffffffffffffffffff1660036000600254815260200190815260200160002060006002811061211b577f4e487b7100000000000000000000000000000000000000000000000000000000600052603260045260246000fd5b0160009054906101000a900473ffffffffffffffffffffffffffffffffffffffff1673ffffffffffffffffffffffffffffffffffffffff161415612194576040517f08c379a000000000000000000000000000000000000000000000000000000000815260040161218b9061559f565b60405180910390fd5b600254600760003373ffffffffffffffffffffffffffffffffffffffff1673ffffffffffffffffffffffffffffffffffffffff1681526020019081526020016000208190555033600360006002548152602001908152602001600020600160028110612229577f4e487b7100000000000000000000000000000000000000000000000000000000600052603260045260246000fd5b0160006101000a81548173ffffffffffffffffffffffffffffffffffffffff021916908373ffffffffffffffffffffffffffffffffffffffff1602179055506040518061010001604052806040518060400160405280600160ff168152602001600060ff1681525081526020016040518060400160405280600260ff168152602001600060ff1681525081526020016040518060400160405280600360ff168152602001600060ff1681525081526020016040518060400160405280600460ff168152602001600060ff1681525081526020016040518060400160405280600160ff168152602001600160ff1681525081526020016040518060400160405280600260ff168152602001600160ff1681525081526020016040518060400160405280600360ff168152602001600160ff1681525081526020016040518060400160405280600460ff168152602001600160ff1681525081525060046000600254815260200190815260200160002060003373ffffffffffffffffffffffffffffffffffffffff1673ffffffffffffffffffffffffffffffffffffffff1681526020019081526020016000209060086123e2929190614836565b50610258426123f1919061587a565b6006600060025481526020019081526020016000208190555081600060028110612444577f4e487b7100000000000000000000000000000000000000000000000000000000600052603260045260246000fd5b602002015160096000600254815260200190815260200160002060003373ffffffffffffffffffffffffffffffffffffffff1673ffffffffffffffffffffffffffffffffffffffff16815260200190815260200160002081905550600060028190555060056000600760003373ffffffffffffffffffffffffffffffffffffffff1673ffffffffffffffffffffffffffffffffffffffff16815260200190815260200160002054815260200190815260200160002060009054906101000a900473ffffffffffffffffffffffffffffffffffffffff1673ffffffffffffffffffffffffffffffffffffffff16600760003373ffffffffffffffffffffffffffffffffffffffff1673ffffffffffffffffffffffffffffffffffffffff168152602001908152602001600020547f825d226c0713a8034f222c43993e2ec904eabba2af0bb6b9bbb170b3d765b6cf60405160405180910390a35b60005b60088160ff1610156126ab576005600a6000600760003373ffffffffffffffffffffffffffffffffffffffff1673ffffffffffffffffffffffffffffffffffffffff16815260200190815260200160002054815260200190815260200160002060003373ffffffffffffffffffffffffffffffffffffffff1673ffffffffffffffffffffffffffffffffffffffff1681526020019081526020016000208260ff1660088110612678577f4e487b7100000000000000000000000000000000000000000000000000000000600052603260045260246000fd5b602091828204019190066101000a81548160ff021916908360ff16021790555080806126a390615c3c565b9150506125a0565b50600760003373ffffffffffffffffffffffffffffffffffffffff1673ffffffffffffffffffffffffffffffffffffffff168152602001908152602001600020549050949350505050565b6000600760003373ffffffffffffffffffffffffffffffffffffffff1673ffffffffffffffffffffffffffffffffffffffff168152602001908152602001600020549050600081141561277e576040517f08c379a00000000000000000000000000000000000000000000000000000000081526004016127759061555f565b60405180910390fd5b3373ffffffffffffffffffffffffffffffffffffffff166005600083815260200190815260200160002060009054906101000a900473ffffffffffffffffffffffffffffffffffffffff1673ffffffffffffffffffffffffffffffffffffffff161461281f576040517f08c379a00000000000000000000000000000000000000000000000000000000081526004016128169061561f565b60405180910390fd5b6000600760003373ffffffffffffffffffffffffffffffffffffffff1673ffffffffffffffffffffffffffffffffffffffff1681526020019081526020016000205490506000600360008381526020019081526020016000206000600281106128b1577f4e487b7100000000000000000000000000000000000000000000000000000000600052603260045260246000fd5b0160009054906101000a900473ffffffffffffffffffffffffffffffffffffffff1690506000803373ffffffffffffffffffffffffffffffffffffffff168373ffffffffffffffffffffffffffffffffffffffff161415612d625760006004600086815260200190815260200160002060003373ffffffffffffffffffffffffffffffffffffffff1673ffffffffffffffffffffffffffffffffffffffff1681526020019081526020016000208960ff1660088110612999577f4e487b7100000000000000000000000000000000000000000000000000000000600052603260045260246000fd5b016000600281106129d3577f4e487b7100000000000000000000000000000000000000000000000000000000600052603260045260246000fd5b602091828204019190069054906101000a900460ff1660ff16148015612ad6575060006004600086815260200190815260200160002060003373ffffffffffffffffffffffffffffffffffffffff1673ffffffffffffffffffffffffffffffffffffffff1681526020019081526020016000208960ff1660088110612a81577f4e487b7100000000000000000000000000000000000000000000000000000000600052603260045260246000fd5b01600160028110612abb577f4e487b7100000000000000000000000000000000000000000000000000000000600052603260045260246000fd5b602091828204019190069054906101000a900460ff1660ff16145b8015612b2857506001878960ff1681518110612b1b577f4e487b7100000000000000000000000000000000000000000000000000000000600052603260045260246000fd5b602002602001015160ff16145b15612b365760019150612d5d565b60056004600086815260200190815260200160002060003373ffffffffffffffffffffffffffffffffffffffff1673ffffffffffffffffffffffffffffffffffffffff1681526020019081526020016000208960ff1660088110612bc3577f4e487b7100000000000000000000000000000000000000000000000000000000600052603260045260246000fd5b01600060028110612bfd577f4e487b7100000000000000000000000000000000000000000000000000000000600052603260045260246000fd5b602091828204019190069054906101000a900460ff1660ff16148015612d00575060006004600086815260200190815260200160002060003373ffffffffffffffffffffffffffffffffffffffff1673ffffffffffffffffffffffffffffffffffffffff1681526020019081526020016000208960ff1660088110612cab577f4e487b7100000000000000000000000000000000000000000000000000000000600052603260045260246000fd5b01600160028110612ce5577f4e487b7100000000000000000000000000000000000000000000000000000000600052603260045260246000fd5b602091828204019190069054906101000a900460ff1660ff16145b8015612d5257506001878960ff1681518110612d45577f4e487b7100000000000000000000000000000000000000000000000000000000600052603260045260246000fd5b602002602001015160ff16145b15612d5c57600191505b5b6131b4565b60006004600086815260200190815260200160002060003373ffffffffffffffffffffffffffffffffffffffff1673ffffffffffffffffffffffffffffffffffffffff1681526020019081526020016000208960ff1660088110612def577f4e487b7100000000000000000000000000000000000000000000000000000000600052603260045260246000fd5b01600060028110612e29577f4e487b7100000000000000000000000000000000000000000000000000000000600052603260045260246000fd5b602091828204019190069054906101000a900460ff1660ff16148015612f2c575060056004600086815260200190815260200160002060003373ffffffffffffffffffffffffffffffffffffffff1673ffffffffffffffffffffffffffffffffffffffff1681526020019081526020016000208960ff1660088110612ed7577f4e487b7100000000000000000000000000000000000000000000000000000000600052603260045260246000fd5b01600160028110612f11577f4e487b7100000000000000000000000000000000000000000000000000000000600052603260045260246000fd5b602091828204019190069054906101000a900460ff1660ff16145b8015612f7e57506001878960ff1681518110612f71577f4e487b7100000000000000000000000000000000000000000000000000000000600052603260045260246000fd5b602002602001015160ff16145b15612f8c57600191506131b3565b60056004600086815260200190815260200160002060003373ffffffffffffffffffffffffffffffffffffffff1673ffffffffffffffffffffffffffffffffffffffff1681526020019081526020016000208960ff1660088110613019577f4e487b7100000000000000000000000000000000000000000000000000000000600052603260045260246000fd5b01600060028110613053577f4e487b7100000000000000000000000000000000000000000000000000000000600052603260045260246000fd5b602091828204019190069054906101000a900460ff1660ff16148015613156575060056004600086815260200190815260200160002060003373ffffffffffffffffffffffffffffffffffffffff1673ffffffffffffffffffffffffffffffffffffffff1681526020019081526020016000208960ff1660088110613101577f4e487b7100000000000000000000000000000000000000000000000000000000600052603260045260246000fd5b0160016002811061313b577f4e487b7100000000000000000000000000000000000000000000000000000000600052603260045260246000fd5b602091828204019190069054906101000a900460ff1660ff16145b80156131a857506001878960ff168151811061319b577f4e487b7100000000000000000000000000000000000000000000000000000000600052603260045260246000fd5b602002602001015160ff16145b156131b257600191505b5b5b60005b60088160ff1610156132535760008160076131d29190615b47565b90508160026131e1919061595a565b898260ff168151811061321d577f4e487b7100000000000000000000000000000000000000000000000000000000600052603260045260246000fd5b602002602001015160ff166132329190615a78565b8361323d919061587a565b925050808061324b90615c3c565b9150506131b7565b5061325e8187613eec565b61329d576040517f08c379a0000000000000000000000000000000000000000000000000000000008152600401613294906155bf565b60405180910390fd5b816132dd576040517f08c379a00000000000000000000000000000000000000000000000000000000081526004016132d49061567f565b60405180910390fd5b336008600086815260200190815260200160002060006101000a81548173ffffffffffffffffffffffffffffffffffffffff021916908373ffffffffffffffffffffffffffffffffffffffff160217905550837f356820a8ffb2e87f807efe30f3a77937f6273fa64c46730bdd8653974f3ecb373360405161335f91906153e4565b60405180910390a25050505050505050565b6004602052836000526040600020602052826000526040600020826008811061339957600080fd5b0181600281106133a857600080fd5b602091828204019190069350935050509054906101000a900460ff1681565b6133cf614884565b6133d7614884565b6000600760003373ffffffffffffffffffffffffffffffffffffffff1673ffffffffffffffffffffffffffffffffffffffff1681526020019081526020016000205490503373ffffffffffffffffffffffffffffffffffffffff166003600083815260200190815260200160002060006002811061347e577f4e487b7100000000000000000000000000000000000000000000000000000000600052603260045260246000fd5b0160009054906101000a900473ffffffffffffffffffffffffffffffffffffffff1673ffffffffffffffffffffffffffffffffffffffff16141561369d57600a600082815260200190815260200160002060003373ffffffffffffffffffffffffffffffffffffffff1673ffffffffffffffffffffffffffffffffffffffff168152602001908152602001600020600a600083815260200190815260200160002060006003600085815260200190815260200160002060016002811061356d577f4e487b7100000000000000000000000000000000000000000000000000000000600052603260045260246000fd5b0160009054906101000a900473ffffffffffffffffffffffffffffffffffffffff1673ffffffffffffffffffffffffffffffffffffffff1673ffffffffffffffffffffffffffffffffffffffff16815260200190815260200160002081600880602002604051908101604052809291908260088015613627576020028201916000905b82829054906101000a900460ff1660ff16815260200190600101906020826000010492830192600103820291508084116135f05790505b505050505091508060088060200260405190810160405280929190826008801561368c576020028201916000905b82829054906101000a900460ff1660ff16815260200190600101906020826000010492830192600103820291508084116136555790505b50505050509050925092505061387a565b600a600082815260200190815260200160002060003373ffffffffffffffffffffffffffffffffffffffff1673ffffffffffffffffffffffffffffffffffffffff168152602001908152602001600020600a600083815260200190815260200160002060006003600085815260200190815260200160002060006002811061374e577f4e487b7100000000000000000000000000000000000000000000000000000000600052603260045260246000fd5b0160009054906101000a900473ffffffffffffffffffffffffffffffffffffffff1673ffffffffffffffffffffffffffffffffffffffff1673ffffffffffffffffffffffffffffffffffffffff16815260200190815260200160002081600880602002604051908101604052809291908260088015613808576020028201916000905b82829054906101000a900460ff1660ff16815260200190600101906020826000010492830192600103820291508084116137d15790505b505050505091508060088060200260405190810160405280929190826008801561386d576020028201916000905b82829054906101000a900460ff1660ff16815260200190600101906020826000010492830192600103820291508084116138365790505b5050505050905092509250505b9091565b6009602052816000526040600020602052806000526040600020600091509150505481565b600a60205282600052604060002060205281600052604060002081600881106138cb57600080fd5b6020918282040191900692509250509054906101000a900460ff1681565b60008060009054906101000a900473ffffffffffffffffffffffffffffffffffffffff1673ffffffffffffffffffffffffffffffffffffffff1663f5c9d69e868686866040518563ffffffff1660e01b815260040161394b9493929190615497565b60206040518083038186803b15801561396357600080fd5b505afa158015613977573d6000803e3d6000fd5b505050506040513d601f19601f8201168201806040525081019061399b9190614bc7565b9050949350505050565b60076020528060005260406000206000915090505481565b60025481565b600073ffffffffffffffffffffffffffffffffffffffff1660036000600760003373ffffffffffffffffffffffffffffffffffffffff1673ffffffffffffffffffffffffffffffffffffffff168152602001908152602001600020548152602001908152602001600020600160028110613a66577f4e487b7100000000000000000000000000000000000000000000000000000000600052603260045260246000fd5b0160009054906101000a900473ffffffffffffffffffffffffffffffffffffffff1673ffffffffffffffffffffffffffffffffffffffff1614613ade576040517f08c379a0000000000000000000000000000000000000000000000000000000008152600401613ad59061557f565b60405180910390fd5b6000600760003373ffffffffffffffffffffffffffffffffffffffff1673ffffffffffffffffffffffffffffffffffffffff16815260200190815260200160002081905550565b6000600760003373ffffffffffffffffffffffffffffffffffffffff1673ffffffffffffffffffffffffffffffffffffffff1681526020019081526020016000205490506000811415613bad576040517f08c379a0000000000000000000000000000000000000000000000000000000008152600401613ba49061555f565b60405180910390fd5b3373ffffffffffffffffffffffffffffffffffffffff166005600083815260200190815260200160002060009054906101000a900473ffffffffffffffffffffffffffffffffffffffff1673ffffffffffffffffffffffffffffffffffffffff1614613c4e576040517f08c379a0000000000000000000000000000000000000000000000000000000008152600401613c459061561f565b60405180910390fd5b6000600760003373ffffffffffffffffffffffffffffffffffffffff1673ffffffffffffffffffffffffffffffffffffffff168152602001908152602001600020549050600a80600083815260200190815260200160002060003373ffffffffffffffffffffffffffffffffffffffff1673ffffffffffffffffffffffffffffffffffffffff1681526020019081526020016000208560ff1660088110613d1e577f4e487b7100000000000000000000000000000000000000000000000000000000600052603260045260246000fd5b602091828204019190069054906101000a900460ff1660ff1614613d77576040517f08c379a0000000000000000000000000000000000000000000000000000000008152600401613d6e906155ff565b60405180910390fd5b60008360ff161480613d8c575060018360ff16145b613dcb576040517f08c379a0000000000000000000000000000000000000000000000000000000008152600401613dc29061553f565b60405180910390fd5b82600a600083815260200190815260200160002060003373ffffffffffffffffffffffffffffffffffffffff1673ffffffffffffffffffffffffffffffffffffffff1681526020019081526020016000208560ff1660088110613e57577f4e487b7100000000000000000000000000000000000000000000000000000000600052603260045260246000fd5b602091828204019190066101000a81548160ff021916908360ff1602179055506000613e81614091565b905080613ecd573373ffffffffffffffffffffffffffffffffffffffff16827f825d226c0713a8034f222c43993e2ec904eabba2af0bb6b9bbb170b3d765b6cf60405160405180910390a35b5050505050565b60066020528060005260406000206000915090505481565b60006101008310613f32576040517f08c379a0000000000000000000000000000000000000000000000000000000008152600401613f299061565f565b60405180910390fd5b600073__$86e0c54df1042e28bf2dd20ccf184dc428$__6329a5f2f66040518060400160405280878152602001868152506040518263ffffffff1660e01b8152600401613f7f919061547c565b60206040518083038186803b158015613f9757600080fd5b505af4158015613fab573d6000803e3d6000fd5b505050506040513d601f19601f82011682018060405250810190613fcf9190614d43565b905060096000600760003373ffffffffffffffffffffffffffffffffffffffff1673ffffffffffffffffffffffffffffffffffffffff16815260200190815260200160002054815260200190815260200160002060003373ffffffffffffffffffffffffffffffffffffffff1673ffffffffffffffffffffffffffffffffffffffff16815260200190815260200160002054811491505092915050565b6000808260000b1215614088578161408390615c94565b61408a565b815b9050919050565b60008060009050600080600760003373ffffffffffffffffffffffffffffffffffffffff1673ffffffffffffffffffffffffffffffffffffffff16815260200190815260200160002054905060005b60088160ff16101561427c576000600a600084815260200190815260200160002060003373ffffffffffffffffffffffffffffffffffffffff1673ffffffffffffffffffffffffffffffffffffffff1681526020019081526020016000208260ff1660088110614179577f4e487b7100000000000000000000000000000000000000000000000000000000600052603260045260246000fd5b602091828204019190069054906101000a900460ff1660ff1614156141ac576001836141a591906158d0565b9250614269565b6001600a600084815260200190815260200160002060003373ffffffffffffffffffffffffffffffffffffffff1673ffffffffffffffffffffffffffffffffffffffff1681526020019081526020016000208260ff1660088110614239577f4e487b7100000000000000000000000000000000000000000000000000000000600052603260045260246000fd5b602091828204019190069054906101000a900460ff1660ff1614156142685760018461426591906158d0565b93505b5b808061427490615c3c565b9150506140e0565b5060048360ff16106145385760003373ffffffffffffffffffffffffffffffffffffffff16600360008481526020019081526020016000206000600281106142ed577f4e487b7100000000000000000000000000000000000000000000000000000000600052603260045260246000fd5b0160009054906101000a900473ffffffffffffffffffffffffffffffffffffffff1673ffffffffffffffffffffffffffffffffffffffff1614156143a05760036000838152602001908152602001600020600160028110614377577f4e487b7100000000000000000000000000000000000000000000000000000000600052603260045260246000fd5b0160009054906101000a900473ffffffffffffffffffffffffffffffffffffffff169050614411565b600360008381526020019081526020016000206000600281106143ec577f4e487b7100000000000000000000000000000000000000000000000000000000600052603260045260246000fd5b0160009054906101000a900473ffffffffffffffffffffffffffffffffffffffff1690505b806008600084815260200190815260200160002060006101000a81548173ffffffffffffffffffffffffffffffffffffffff021916908373ffffffffffffffffffffffffffffffffffffffff160217905550600160009054906101000a900473ffffffffffffffffffffffffffffffffffffffff1673ffffffffffffffffffffffffffffffffffffffff166340c10f193360056040518363ffffffff1660e01b81526004016144c1929190615428565b600060405180830381600087803b1580156144db57600080fd5b505af11580156144ef573d6000803e3d6000fd5b50505050817f356820a8ffb2e87f807efe30f3a77937f6273fa64c46730bdd8653974f3ecb378260405161452391906153e4565b60405180910390a2600194505050505061476b565b60048260ff16106147635760003373ffffffffffffffffffffffffffffffffffffffff16600360008481526020019081526020016000206000600281106145a8577f4e487b7100000000000000000000000000000000000000000000000000000000600052603260045260246000fd5b0160009054906101000a900473ffffffffffffffffffffffffffffffffffffffff1673ffffffffffffffffffffffffffffffffffffffff16141561465b5760036000838152602001908152602001600020600160028110614632577f4e487b7100000000000000000000000000000000000000000000000000000000600052603260045260246000fd5b0160009054906101000a900473ffffffffffffffffffffffffffffffffffffffff1690506146cc565b600360008381526020019081526020016000206000600281106146a7577f4e487b7100000000000000000000000000000000000000000000000000000000600052603260045260246000fd5b0160009054906101000a900473ffffffffffffffffffffffffffffffffffffffff1690505b336008600084815260200190815260200160002060006101000a81548173ffffffffffffffffffffffffffffffffffffffff021916908373ffffffffffffffffffffffffffffffffffffffff160217905550817f356820a8ffb2e87f807efe30f3a77937f6273fa64c46730bdd8653974f3ecb373360405161474e91906153e4565b60405180910390a2600194505050505061476b565b600093505050505b90565b826002601f016020900481019282156147f75791602002820160005b838211156147c857835183826101000a81548160ff021916908360ff160217905550926020019260010160208160000104928301926001030261478a565b80156147f55782816101000a81549060ff02191690556001016020816000010492830192600103026147c8565b505b50905061480491906148a7565b5090565b6040518061010001604052806008905b6148206148c4565b8152602001906001900390816148185790505090565b8260088101928215614873579160200282015b828111156148725782518290600261486292919061476e565b5091602001919060010190614849565b5b50905061488091906148e6565b5090565b604051806101000160405280600890602082028036833780820191505090505090565b5b808211156148c05760008160009055506001016148a8565b5090565b6040518060400160405280600290602082028036833780820191505090505090565b5b8082111561490657600081816148fd919061490a565b506001016148e7565b5090565b5060009055565b600061492461491f846156fa565b6156d5565b9050808285604086028201111561493a57600080fd5b60005b8581101561496a57816149508882614a7f565b84526020840193506040830192505060018101905061493d565b5050509392505050565b600061498761498284615720565b6156d5565b9050808285602086028201111561499d57600080fd5b60005b858110156149cd57816149b38882614afa565b8452602084019350602083019250506001810190506149a0565b5050509392505050565b60006149ea6149e584615746565b6156d5565b90508083825260208201905082856020860282011115614a0957600080fd5b60005b85811015614a395781614a1f8882614b24565b845260208401935060208301925050600181019050614a0c565b5050509392505050565b600081359050614a5281615f29565b92915050565b600082601f830112614a6957600080fd5b6002614a76848285614911565b91505092915050565b600082601f830112614a9057600080fd5b6002614a9d848285614974565b91505092915050565b600082601f830112614ab757600080fd5b8135614ac78482602086016149d7565b91505092915050565b600081519050614adf81615f40565b92915050565b600081359050614af481615f57565b92915050565b600081359050614b0981615f6e565b92915050565b600081519050614b1e81615f6e565b92915050565b600081359050614b3381615f85565b92915050565b600060208284031215614b4b57600080fd5b6000614b5984828501614a43565b91505092915050565b6000806000806101408587031215614b7957600080fd5b6000614b8787828801614a7f565b9450506040614b9887828801614a58565b93505060c0614ba987828801614a7f565b925050610100614bbb87828801614a7f565b91505092959194509250565b600060208284031215614bd957600080fd5b6000614be784828501614ad0565b91505092915050565b600060208284031215614c0257600080fd5b6000614c1084828501614ae5565b91505092915050565b60008060408385031215614c2c57600080fd5b6000614c3a85828601614ae5565b9250506020614c4b85828601614a43565b9150509250929050565b600080600060608486031215614c6a57600080fd5b6000614c7886828701614ae5565b9350506020614c8986828701614a43565b9250506040614c9a86828701614afa565b9150509250925092565b60008060008060808587031215614cba57600080fd5b6000614cc887828801614ae5565b9450506020614cd987828801614a43565b9350506040614cea87828801614afa565b9250506060614cfb87828801614afa565b91505092959194509250565b60008060408385031215614d1a57600080fd5b6000614d2885828601614ae5565b9250506020614d3985828601614afa565b9150509250929050565b600060208284031215614d5557600080fd5b6000614d6384828501614b0f565b91505092915050565b60008060408385031215614d7f57600080fd5b6000614d8d85828601614afa565b9250506020614d9e85828601614afa565b9150509250929050565b600080600060608486031215614dbd57600080fd5b6000614dcb86828701614b24565b935050602084013567ffffffffffffffff811115614de857600080fd5b614df486828701614aa6565b9250506040614e0586828701614afa565b9150509250925092565b60008060408385031215614e2257600080fd5b6000614e3085828601614b24565b9250506020614e4185828601614b24565b9150509250929050565b600080600060608486031215614e6057600080fd5b6000614e6e86828701614b24565b9350506020614e7f86828701614b24565b9250506040614e9086828701614b24565b9150509250925092565b6000614ea68383614fe6565b60408301905092915050565b6000614ebe83836150eb565b60408301905092915050565b6000614ed68383615356565b60208301905092915050565b6000614eee8383615374565b60208301905092915050565b6000614f06838361539a565b60208301905092915050565b614f1b81615b7b565b82525050565b614f32614f2d82615b7b565b615c66565b82525050565b614f41816157a4565b614f4b818461581c565b9250614f5682615772565b8060005b83811015614f87578151614f6e8782614e9a565b9650614f79836157db565b925050600181019050614f5a565b505050505050565b614f98816157af565b614fa28184615827565b9250614fad8261577c565b8060005b83811015614fde578151614fc58782614eb2565b9650614fd0836157e8565b925050600181019050614fb1565b505050505050565b614fef816157ba565b614ff98184615832565b925061500482615786565b8060005b8381101561503557815161501c8782614eca565b9650615027836157f5565b925050600181019050615008565b505050505050565b615046816157ba565b615050818461583d565b925061505b82615786565b8060005b8381101561508c5781516150738782614eca565b965061507e836157f5565b92505060018101905061505f565b505050505050565b61509d816157ba565b6150a78184615848565b92506150b282615786565b8060005b838110156150e35781516150ca8782614ee2565b96506150d5836157f5565b9250506001810190506150b6565b505050505050565b6150f4816157c5565b6150fe8184615853565b925061510982615790565b8060005b8381101561513a5781516151218782614efa565b965061512c83615802565b92505060018101905061510d565b505050505050565b61514b816157d0565b615155818461585e565b92506151608261579a565b8060005b838110156151915781516151788782614efa565b96506151838361580f565b925050600181019050615164565b505050505050565b6151a281615b8d565b82525050565b6151b181615b99565b82525050565b6151c081615be7565b82525050565b6151cf81615bf9565b82525050565b60006151e2600483615869565b91506151ed82615d66565b602082019050919050565b6000615205600383615869565b915061521082615d8f565b602082019050919050565b6000615228600283615869565b915061523382615db8565b602082019050919050565b600061524b600383615869565b915061525682615de1565b602082019050919050565b600061526e600383615869565b915061527982615e0a565b602082019050919050565b6000615291600383615869565b915061529c82615e33565b602082019050919050565b60006152b4600383615869565b91506152bf82615e5c565b602082019050919050565b60006152d7600383615869565b91506152e282615e85565b602082019050919050565b60006152fa600383615869565b915061530582615eae565b602082019050919050565b600061531d600583615869565b915061532882615ed7565b602082019050919050565b6000615340600383615869565b915061534b82615f00565b602082019050919050565b61535f81615bd0565b82525050565b61536e81615bd0565b82525050565b61537d81615bd0565b82525050565b61539461538f82615bd0565b615c8a565b82525050565b6153a381615bda565b82525050565b6153b281615bda565b82525050565b60006153c48285614f21565b6014820191506153d48284615383565b6020820191508190509392505050565b60006020820190506153f96000830184614f12565b92915050565b60006040820190506154146000830185614f12565b61542160208301846151b7565b9392505050565b600060408201905061543d6000830185614f12565b61544a60208301846151c6565b9392505050565b6000610400820190506154676000830185614f8f565b615475610200830184614f8f565b9392505050565b60006040820190506154916000830184615094565b92915050565b6000610140820190506154ad600083018761503d565b6154ba6040830186614f38565b6154c760c083018561503d565b6154d561010083018461503d565b95945050505050565b6000610200820190506154f46000830185615142565b615502610100830184615142565b9392505050565b600060208201905061551e6000830184615199565b92915050565b600060208201905061553960008301846151a8565b92915050565b60006020820190508181036000830152615558816151d5565b9050919050565b60006020820190508181036000830152615578816151f8565b9050919050565b600060208201905081810360008301526155988161521b565b9050919050565b600060208201905081810360008301526155b88161523e565b9050919050565b600060208201905081810360008301526155d881615261565b9050919050565b600060208201905081810360008301526155f881615284565b9050919050565b60006020820190508181036000830152615618816152a7565b9050919050565b60006020820190508181036000830152615638816152ca565b9050919050565b60006020820190508181036000830152615658816152ed565b9050919050565b6000602082019050818103600083015261567881615310565b9050919050565b6000602082019050818103600083015261569881615333565b9050919050565b60006020820190506156b46000830184615365565b92915050565b60006020820190506156cf60008301846153a9565b92915050565b60006156df6156f0565b90506156eb8282615c0b565b919050565b6000604051905090565b600067ffffffffffffffff82111561571557615714615d0c565b5b602082029050919050565b600067ffffffffffffffff82111561573b5761573a615d0c565b5b602082029050919050565b600067ffffffffffffffff82111561576157615760615d0c565b5b602082029050602081019050919050565b6000819050919050565b6000819050919050565b6000819050919050565b6000819050919050565b6000819050919050565b600060029050919050565b600060089050919050565b600060029050919050565b600060029050919050565b600060089050919050565b6000602082019050919050565b6000602082019050919050565b6000602082019050919050565b6000602082019050919050565b6000602082019050919050565b600081905092915050565b600081905092915050565b600081905092915050565b600081905092915050565b600081905092915050565b600081905092915050565b600081905092915050565b600082825260208201905092915050565b600061588582615bd0565b915061589083615bd0565b9250827fffffffffffffffffffffffffffffffffffffffffffffffffffffffffffffffff038211156158c5576158c4615cdd565b5b828201905092915050565b60006158db82615bda565b91506158e683615bda565b92508260ff038211156158fc576158fb615cdd565b5b828201905092915050565b6000808291508390505b60018511156159515780860481111561592d5761592c615cdd565b5b600185161561593c5780820291505b808102905061594a85615d59565b9450615911565b94509492505050565b600061596582615bd0565b915061597083615bda565b925061599d7fffffffffffffffffffffffffffffffffffffffffffffffffffffffffffffffff84846159a5565b905092915050565b6000826159b55760019050615a71565b816159c35760009050615a71565b81600181146159d957600281146159e357615a12565b6001915050615a71565b60ff8411156159f5576159f4615cdd565b5b8360020a915084821115615a0c57615a0b615cdd565b5b50615a71565b5060208310610133831016604e8410600b8410161715615a475782820a905083811115615a4257615a41615cdd565b5b615a71565b615a548484846001615907565b92509050818404811115615a6b57615a6a615cdd565b5b81810290505b9392505050565b6000615a8382615bd0565b9150615a8e83615bd0565b9250817fffffffffffffffffffffffffffffffffffffffffffffffffffffffffffffffff0483118215151615615ac757615ac6615cdd565b5b828202905092915050565b6000615add82615ba3565b9150615ae883615ba3565b9250827fffffffffffffffffffffffffffffffffffffffffffffffffffffffffffffff8001821260008412151615615b2357615b22615cdd565b5b82607f018213600084121615615b3c57615b3b615cdd565b5b828203905092915050565b6000615b5282615bda565b9150615b5d83615bda565b925082821015615b7057615b6f615cdd565b5b828203905092915050565b6000615b8682615bb0565b9050919050565b60008115159050919050565b6000819050919050565b60008160000b9050919050565b600073ffffffffffffffffffffffffffffffffffffffff82169050919050565b6000819050919050565b600060ff82169050919050565b6000615bf282615bd0565b9050919050565b6000615c0482615bd0565b9050919050565b615c1482615d3b565b810181811067ffffffffffffffff82111715615c3357615c32615d0c565b5b80604052505050565b6000615c4782615bda565b915060ff821415615c5b57615c5a615cdd565b5b600182019050919050565b6000615c7182615c78565b9050919050565b6000615c8382615d4c565b9050919050565b6000819050919050565b6000615c9f82615ba3565b91507fffffffffffffffffffffffffffffffffffffffffffffffffffffffffffffff80821415615cd257615cd1615cdd565b5b816000039050919050565b7f4e487b7100000000000000000000000000000000000000000000000000000000600052601160045260246000fd5b7f4e487b7100000000000000000000000000000000000000000000000000000000600052604160045260246000fd5b6000601f19601f8301169050919050565b60008160601b9050919050565b60008160011c9050919050565b7f4d42303100000000000000000000000000000000000000000000000000000000600082015250565b7f4d42500000000000000000000000000000000000000000000000000000000000600082015250565b7f4753000000000000000000000000000000000000000000000000000000000000600082015250565b7f4d42440000000000000000000000000000000000000000000000000000000000600082015250565b7f4d42560000000000000000000000000000000000000000000000000000000000600082015250565b7f5041470000000000000000000000000000000000000000000000000000000000600082015250565b7f4d42520000000000000000000000000000000000000000000000000000000000600082015250565b7f4d42540000000000000000000000000000000000000000000000000000000000600082015250565b7f4d424d0000000000000000000000000000000000000000000000000000000000600082015250565b7f4d42323536000000000000000000000000000000000000000000000000000000600082015250565b7f4d42570000000000000000000000000000000000000000000000000000000000600082015250565b615f3281615b7b565b8114615f3d57600080fd5b50565b615f4981615b8d565b8114615f5457600080fd5b50565b615f6081615b99565b8114615f6b57600080fd5b50565b615f7781615bd0565b8114615f8257600080fd5b50565b615f8e81615bda565b8114615f9957600080fd5b5056fea264697066735822122014accc82dcd80daa42db28e0269e7858bf54fbb6ceb2bd16c554cacb025339f864736f6c63430008040033",
  "linkReferences": {
    "contracts/Poseidon.sol": {
      "PoseidonT3": [
        {
          "length": 20,
          "start": 16556
        }
      ]
    }
  },
  "deployedLinkReferences": {
    "contracts/Poseidon.sol": {
      "PoseidonT3": [
        {
          "length": 20,
          "start": 16182
        }
      ]
    }
  }
}