{
  "_format": "hh-sol-artifact-1",
  "contractName": "Ghosts",
  "sourceName": "contracts/Ghosts.sol",
  "abi": [
    {
      "inputs": [
        {
          "internalType": "address",
          "name": "verifierAddress",
          "type": "address"
        }
      ],
      "stateMutability": "nonpayable",
      "type": "constructor"
    },
    {
      "anonymous": false,
      "inputs": [
        {
          "indexed": true,
          "internalType": "bytes32",
          "name": "_game",
          "type": "bytes32"
        },
        {
          "indexed": false,
          "internalType": "address",
          "name": "_turnPlayer",
          "type": "address"
        }
      ],
      "name": "MustReveal",
      "type": "event"
    },
    {
      "anonymous": false,
      "inputs": [
        {
          "indexed": true,
          "internalType": "bytes32",
          "name": "_game",
          "type": "bytes32"
        },
        {
          "indexed": false,
          "internalType": "address",
          "name": "_turnPlayer",
          "type": "address"
        }
      ],
      "name": "TurnStart",
      "type": "event"
    },
    {
      "anonymous": false,
      "inputs": [
        {
          "indexed": true,
          "internalType": "bytes32",
          "name": "_game",
          "type": "bytes32"
        },
        {
          "indexed": false,
          "internalType": "address",
          "name": "_winner",
          "type": "address"
        }
      ],
      "name": "Winner",
      "type": "event"
    },
    {
      "inputs": [],
      "name": "currentPieceStatuses",
      "outputs": [
        {
          "internalType": "uint8[8]",
          "name": "",
          "type": "uint8[8]"
        },
        {
          "internalType": "uint8[8]",
          "name": "",
          "type": "uint8[8]"
        }
      ],
      "stateMutability": "view",
      "type": "function"
    },
    {
      "inputs": [],
      "name": "currentPositions",
      "outputs": [
        {
          "internalType": "uint8[2][8]",
          "name": "",
          "type": "uint8[2][8]"
        },
        {
          "internalType": "uint8[2][8]",
          "name": "",
          "type": "uint8[2][8]"
        }
      ],
      "stateMutability": "view",
      "type": "function"
    },
    {
      "inputs": [
        {
          "internalType": "uint256[2]",
          "name": "a",
          "type": "uint256[2]"
        },
        {
          "internalType": "uint256[2][2]",
          "name": "b",
          "type": "uint256[2][2]"
        },
        {
          "internalType": "uint256[2]",
          "name": "c",
          "type": "uint256[2]"
        },
        {
          "internalType": "uint256[2]",
          "name": "input",
          "type": "uint256[2]"
        }
      ],
      "name": "isValidProof",
      "outputs": [
        {
          "internalType": "bool",
          "name": "",
          "type": "bool"
        }
      ],
      "stateMutability": "view",
      "type": "function"
    },
    {
      "inputs": [
        {
          "internalType": "uint8",
          "name": "idx",
          "type": "uint8"
        },
        {
          "internalType": "uint8",
          "name": "toX",
          "type": "uint8"
        },
        {
          "internalType": "uint8",
          "name": "toY",
          "type": "uint8"
        }
      ],
      "name": "move",
      "outputs": [],
      "stateMutability": "nonpayable",
      "type": "function"
    },
    {
      "inputs": [
        {
          "internalType": "bytes32",
          "name": "",
          "type": "bytes32"
        },
        {
          "internalType": "address",
          "name": "",
          "type": "address"
        },
        {
          "internalType": "uint256",
          "name": "",
          "type": "uint256"
        }
      ],
      "name": "pieceStatuses",
      "outputs": [
        {
          "internalType": "uint8",
          "name": "",
          "type": "uint8"
        }
      ],
      "stateMutability": "view",
      "type": "function"
    },
    {
      "inputs": [
        {
          "internalType": "bytes32",
          "name": "",
          "type": "bytes32"
        },
        {
          "internalType": "address",
          "name": "",
          "type": "address"
        },
        {
          "internalType": "uint256",
          "name": "",
          "type": "uint256"
        },
        {
          "internalType": "uint256",
          "name": "",
          "type": "uint256"
        }
      ],
      "name": "pieces",
      "outputs": [
        {
          "internalType": "uint8",
          "name": "",
          "type": "uint8"
        }
      ],
      "stateMutability": "view",
      "type": "function"
    },
    {
      "inputs": [
        {
          "internalType": "bytes32",
          "name": "",
          "type": "bytes32"
        },
        {
          "internalType": "uint256",
          "name": "",
          "type": "uint256"
        }
      ],
      "name": "players",
      "outputs": [
        {
          "internalType": "address",
          "name": "",
          "type": "address"
        }
      ],
      "stateMutability": "view",
      "type": "function"
    },
    {
      "inputs": [
        {
          "internalType": "address",
          "name": "",
          "type": "address"
        }
      ],
      "name": "playingGame",
      "outputs": [
        {
          "internalType": "bytes32",
          "name": "",
          "type": "bytes32"
        }
      ],
      "stateMutability": "view",
      "type": "function"
    },
    {
      "inputs": [
        {
          "internalType": "bytes32",
          "name": "",
          "type": "bytes32"
        },
        {
          "internalType": "address",
          "name": "",
          "type": "address"
        }
      ],
      "name": "pubHash",
      "outputs": [
        {
          "internalType": "uint256",
          "name": "",
          "type": "uint256"
        }
      ],
      "stateMutability": "view",
      "type": "function"
    },
    {
      "inputs": [
        {
          "internalType": "uint8",
          "name": "idx",
          "type": "uint8"
        },
        {
          "internalType": "uint8",
          "name": "status",
          "type": "uint8"
        }
      ],
      "name": "revealPiece",
      "outputs": [],
      "stateMutability": "nonpayable",
      "type": "function"
    },
    {
      "inputs": [
        {
          "internalType": "uint256[2]",
          "name": "a",
          "type": "uint256[2]"
        },
        {
          "internalType": "uint256[2][2]",
          "name": "b",
          "type": "uint256[2][2]"
        },
        {
          "internalType": "uint256[2]",
          "name": "c",
          "type": "uint256[2]"
        },
        {
          "internalType": "uint256[2]",
          "name": "input",
          "type": "uint256[2]"
        }
      ],
      "name": "startGame",
      "outputs": [
        {
          "internalType": "bytes32",
          "name": "",
          "type": "bytes32"
        }
      ],
      "stateMutability": "nonpayable",
      "type": "function"
    },
    {
      "inputs": [
        {
          "internalType": "bytes32",
          "name": "",
          "type": "bytes32"
        }
      ],
      "name": "timeLimit",
      "outputs": [
        {
          "internalType": "uint256",
          "name": "",
          "type": "uint256"
        }
      ],
      "stateMutability": "view",
      "type": "function"
    },
    {
      "inputs": [
        {
          "internalType": "bytes32",
          "name": "",
          "type": "bytes32"
        }
      ],
      "name": "turnPlayer",
      "outputs": [
        {
          "internalType": "address",
          "name": "",
          "type": "address"
        }
      ],
      "stateMutability": "view",
      "type": "function"
    },
    {
      "inputs": [
        {
          "internalType": "uint256",
          "name": "v",
          "type": "uint256"
        },
        {
          "internalType": "uint256",
          "name": "solt",
          "type": "uint256"
        }
      ],
      "name": "verifyPubHash",
      "outputs": [
        {
          "internalType": "bool",
          "name": "",
          "type": "bool"
        }
      ],
      "stateMutability": "view",
      "type": "function"
    },
    {
      "inputs": [],
      "name": "waitingGame",
      "outputs": [
        {
          "internalType": "bytes32",
          "name": "",
          "type": "bytes32"
        }
      ],
      "stateMutability": "view",
      "type": "function"
    },
    {
      "inputs": [],
      "name": "winMove",
      "outputs": [],
      "stateMutability": "nonpayable",
      "type": "function"
    },
    {
      "inputs": [
        {
          "internalType": "bytes32",
          "name": "",
          "type": "bytes32"
        }
      ],
      "name": "winner",
      "outputs": [
        {
          "internalType": "address",
          "name": "",
          "type": "address"
        }
      ],
      "stateMutability": "view",
      "type": "function"
    }
  ],
  "bytecode": "0x60806040523480156200001157600080fd5b5060405162005bde38038062005bde833981810160405281019062000037919062000095565b806000806101000a81548173ffffffffffffffffffffffffffffffffffffffff021916908373ffffffffffffffffffffffffffffffffffffffff160217905550506200010f565b6000815190506200008f81620000f5565b92915050565b600060208284031215620000a857600080fd5b6000620000b8848285016200007e565b91505092915050565b6000620000ce82620000d5565b9050919050565b600073ffffffffffffffffffffffffffffffffffffffff82169050919050565b6200010081620000c1565b81146200010c57600080fd5b50565b615abf806200011f6000396000f3fe608060405234801561001057600080fd5b506004361061010b5760003560e01c80638ee3de02116100a2578063bfd5a99211610071578063bfd5a992146102f4578063c26d94d614610324578063cba696db14610342578063e71ba77c14610372578063fb0ed6801461038e5761010b565b80638ee3de021461025a578063a657e39514610264578063b860a06014610294578063bc914854146102c45761010b565b80634761cdc6116100de5780634761cdc6146101ab5780634d49ad23146101db57806366e4521e1461020b5780638e38d8c81461023b5761010b565b806319e9cc8c1461011057806329dae39d14610140578063305b630c1461015c578063387985451461018c575b600080fd5b61012a60048036038101906101259190614bc3565b6103be565b60405161013791906151f8565b60405180910390f35b61015a60048036038101906101559190614ca0565b610403565b005b61017660048036038101906101719190614aac565b611199565b60405161018391906151f8565b60405180910390f35b6101946111cc565b6040516101a2929190615213565b60405180910390f35b6101c560048036038101906101c09190614aac565b611757565b6040516101d291906151f8565b60405180910390f35b6101f560048036038101906101f09190614a1e565b61178a565b60405161020291906152e6565b60405180910390f35b61022560048036038101906102209190614b60565b61227f565b604051610232919061545c565b60405180910390f35b6102436122d5565b6040516102519291906152a0565b60405180910390f35b61026261278c565b005b61027e60048036038101906102799190614ad5565b6138b9565b60405161028b9190615441565b60405180910390f35b6102ae60048036038101906102a99190614b11565b6138de565b6040516102bb919061545c565b60405180910390f35b6102de60048036038101906102d99190614a1e565b613924565b6040516102eb91906152cb565b60405180910390f35b61030e600480360381019061030991906149f5565b6139e0565b60405161031b91906152e6565b60405180910390f35b61032c6139f8565b60405161033991906152e6565b60405180910390f35b61035c60048036038101906103579190614c28565b6139fe565b60405161036991906152cb565b60405180910390f35b61038c60048036038101906103879190614c64565b613b7e565b005b6103a860048036038101906103a39190614aac565b613f22565b6040516103b59190615441565b60405180910390f35b600260205281600052604060002081600281106103da57600080fd5b016000915091509054906101000a900473ffffffffffffffffffffffffffffffffffffffff1681565b6000600660003373ffffffffffffffffffffffffffffffffffffffff1673ffffffffffffffffffffffffffffffffffffffff168152602001908152602001600020549050600081141561048b576040517f08c379a000000000000000000000000000000000000000000000000000000000815260040161048290615401565b60405180910390fd5b3373ffffffffffffffffffffffffffffffffffffffff166004600083815260200190815260200160002060009054906101000a900473ffffffffffffffffffffffffffffffffffffffff1673ffffffffffffffffffffffffffffffffffffffff161461052c576040517f08c379a000000000000000000000000000000000000000000000000000000000815260040161052390615381565b60405180910390fd5b8383836000600660003373ffffffffffffffffffffffffffffffffffffffff1673ffffffffffffffffffffffffffffffffffffffff16815260200190815260200160002054905060006003600083815260200190815260200160002060003373ffffffffffffffffffffffffffffffffffffffff1673ffffffffffffffffffffffffffffffffffffffff1681526020019081526020016000208560ff1660088110610600577f4e487b7100000000000000000000000000000000000000000000000000000000600052603260045260246000fd5b0160006002811061063a577f4e487b7100000000000000000000000000000000000000000000000000000000600052603260045260246000fd5b602091828204019190069054906101000a900460ff16905060006003600084815260200190815260200160002060003373ffffffffffffffffffffffffffffffffffffffff1673ffffffffffffffffffffffffffffffffffffffff1681526020019081526020016000208660ff16600881106106df577f4e487b7100000000000000000000000000000000000000000000000000000000600052603260045260246000fd5b01600160028110610719577f4e487b7100000000000000000000000000000000000000000000000000000000600052603260045260246000fd5b602091828204019190069054906101000a900460ff1690506000828661073f9190615627565b90506000828661074f9190615627565b90506000600161075e84613f3a565b60000b1480156107795750600061077483613f3a565b60000b145b806107a65750600061078a84613f3a565b60000b1480156107a5575060016107a083613f3a565b60000b145b5b905060006001905060005b60088160ff161015610968576000600360008a815260200190815260200160002060003373ffffffffffffffffffffffffffffffffffffffff1673ffffffffffffffffffffffffffffffffffffffff1681526020019081526020016000208260ff166008811061084a577f4e487b7100000000000000000000000000000000000000000000000000000000600052603260045260246000fd5b016002806020026040519081016040528092919082600280156108a8576020028201916000905b82829054906101000a900460ff1660ff16815260200190600101906020826000010492830192600103820291508084116108715790505b50505050509050806000600281106108e9577f4e487b7100000000000000000000000000000000000000000000000000000000600052603260045260246000fd5b602002015160ff168b60ff16148015610945575080600160028110610937577f4e487b7100000000000000000000000000000000000000000000000000000000600052603260045260246000fd5b602002015160ff168a60ff16145b15610954576000925050610968565b50808061096090615739565b9150506107b1565b508180156109735750805b6109b2576040517f08c379a00000000000000000000000000000000000000000000000000000000081526004016109a9906153e1565b60405180910390fd5b5050505050505060006001905060005b60088160ff161015610ad557600a60096000600660003373ffffffffffffffffffffffffffffffffffffffff1673ffffffffffffffffffffffffffffffffffffffff16815260200190815260200160002054815260200190815260200160002060003373ffffffffffffffffffffffffffffffffffffffff1673ffffffffffffffffffffffffffffffffffffffff1681526020019081526020016000208260ff1660088110610a9a577f4e487b7100000000000000000000000000000000000000000000000000000000600052603260045260246000fd5b602091828204019190069054906101000a900460ff1660ff161415610ac25760009150610ad5565b8080610acd90615739565b9150506109c2565b5080610b16576040517f08c379a0000000000000000000000000000000000000000000000000000000008152600401610b0d906153c1565b60405180910390fd5b506000600660003373ffffffffffffffffffffffffffffffffffffffff1673ffffffffffffffffffffffffffffffffffffffff16815260200190815260200160002054905060405180604001604052808860ff1660ff1681526020018760ff1660ff168152506003600083815260200190815260200160002060003373ffffffffffffffffffffffffffffffffffffffff1673ffffffffffffffffffffffffffffffffffffffff1681526020019081526020016000208960ff1660088110610c07577f4e487b7100000000000000000000000000000000000000000000000000000000600052603260045260246000fd5b01906002610c169291906146c0565b5060003373ffffffffffffffffffffffffffffffffffffffff1660026000848152602001908152602001600020600060028110610c7c577f4e487b7100000000000000000000000000000000000000000000000000000000600052603260045260246000fd5b0160009054906101000a900473ffffffffffffffffffffffffffffffffffffffff1673ffffffffffffffffffffffffffffffffffffffff161415610d2f5760026000838152602001908152602001600020600160028110610d06577f4e487b7100000000000000000000000000000000000000000000000000000000600052603260045260246000fd5b0160009054906101000a900473ffffffffffffffffffffffffffffffffffffffff169050610da0565b60026000838152602001908152602001600020600060028110610d7b577f4e487b7100000000000000000000000000000000000000000000000000000000600052603260045260246000fd5b0160009054906101000a900473ffffffffffffffffffffffffffffffffffffffff1690505b6000805b60088160ff1610156110c05760006003600086815260200190815260200160002060008573ffffffffffffffffffffffffffffffffffffffff1673ffffffffffffffffffffffffffffffffffffffff1681526020019081526020016000208260ff1660088110610e3d577f4e487b7100000000000000000000000000000000000000000000000000000000600052603260045260246000fd5b01600280602002604051908101604052809291908260028015610e9b576020028201916000905b82829054906101000a900460ff1660ff1681526020019060010190602082600001049283019260010382029150808411610e645790505b5050505050905080600060028110610edc577f4e487b7100000000000000000000000000000000000000000000000000000000600052603260045260246000fd5b602002015160ff168b60ff16148015610f38575080600160028110610f2a577f4e487b7100000000000000000000000000000000000000000000000000000000600052603260045260246000fd5b602002015160ff168a60ff16145b156110ac576040518060400160405280600a60ff168152602001600a60ff168152506003600087815260200190815260200160002060008673ffffffffffffffffffffffffffffffffffffffff1673ffffffffffffffffffffffffffffffffffffffff1681526020019081526020016000208360ff1660088110610fe5577f4e487b7100000000000000000000000000000000000000000000000000000000600052603260045260246000fd5b01906002610ff49291906146c0565b50600a6009600087815260200190815260200160002060008673ffffffffffffffffffffffffffffffffffffffff1673ffffffffffffffffffffffffffffffffffffffff1681526020019081526020016000208360ff1660088110611082577f4e487b7100000000000000000000000000000000000000000000000000000000600052603260045260246000fd5b602091828204019190066101000a81548160ff021916908360ff16021790555060019250506110c0565b5080806110b890615739565b915050610da4565b50816004600085815260200190815260200160002060006101000a81548173ffffffffffffffffffffffffffffffffffffffff021916908373ffffffffffffffffffffffffffffffffffffffff1602179055508061115557827f825d226c0713a8034f222c43993e2ec904eabba2af0bb6b9bbb170b3d765b6cf8360405161114891906151f8565b60405180910390a261118d565b827ec2cfd8b34bd5a81e73bcdab6a2992dcd05302c85788f3c5141f91638325e898360405161118491906151f8565b60405180910390a25b50505050505050505050565b60076020528060005260406000206000915054906101000a900473ffffffffffffffffffffffffffffffffffffffff1681565b6111d461475a565b6111dc61475a565b6000600660003373ffffffffffffffffffffffffffffffffffffffff1673ffffffffffffffffffffffffffffffffffffffff1681526020019081526020016000205490503373ffffffffffffffffffffffffffffffffffffffff1660026000838152602001908152602001600020600060028110611283577f4e487b7100000000000000000000000000000000000000000000000000000000600052603260045260246000fd5b0160009054906101000a900473ffffffffffffffffffffffffffffffffffffffff1673ffffffffffffffffffffffffffffffffffffffff16141561150c576003600082815260200190815260200160002060003373ffffffffffffffffffffffffffffffffffffffff1673ffffffffffffffffffffffffffffffffffffffff16815260200190815260200160002060036000838152602001908152602001600020600060026000858152602001908152602001600020600160028110611372577f4e487b7100000000000000000000000000000000000000000000000000000000600052603260045260246000fd5b0160009054906101000a900473ffffffffffffffffffffffffffffffffffffffff1673ffffffffffffffffffffffffffffffffffffffff1673ffffffffffffffffffffffffffffffffffffffff16815260200190815260200160002081600880602002604051908101604052809291906000905b828210156114625783820160028060200260405190810160405280929190826002801561144e576020028201916000905b82829054906101000a900460ff1660ff16815260200190600101906020826000010492830192600103820291508084116114175790505b5050505050815260200190600101906113e6565b50505050915080600880602002604051908101604052809291906000905b828210156114fc578382016002806020026040519081016040528092919082600280156114e8576020028201916000905b82829054906101000a900460ff1660ff16815260200190600101906020826000010492830192600103820291508084116114b15790505b505050505081526020019060010190611480565b5050505090509250925050611753565b6003600082815260200190815260200160002060003373ffffffffffffffffffffffffffffffffffffffff1673ffffffffffffffffffffffffffffffffffffffff168152602001908152602001600020600360008381526020019081526020016000206000600260008581526020019081526020016000206000600281106115bd577f4e487b7100000000000000000000000000000000000000000000000000000000600052603260045260246000fd5b0160009054906101000a900473ffffffffffffffffffffffffffffffffffffffff1673ffffffffffffffffffffffffffffffffffffffff1673ffffffffffffffffffffffffffffffffffffffff16815260200190815260200160002081600880602002604051908101604052809291906000905b828210156116ad57838201600280602002604051908101604052809291908260028015611699576020028201916000905b82829054906101000a900460ff1660ff16815260200190600101906020826000010492830192600103820291508084116116625790505b505050505081526020019060010190611631565b50505050915080600880602002604051908101604052809291906000905b8282101561174757838201600280602002604051908101604052809291908260028015611733576020028201916000905b82829054906101000a900460ff1660ff16815260200190600101906020826000010492830192600103820291508084116116fc5790505b5050505050815260200190600101906116cb565b50505050905092509250505b9091565b60046020528060005260406000206000915054906101000a900473ffffffffffffffffffffffffffffffffffffffff1681565b600080600660003373ffffffffffffffffffffffffffffffffffffffff1673ffffffffffffffffffffffffffffffffffffffff168152602001908152602001600020541461180d576040517f08c379a000000000000000000000000000000000000000000000000000000000815260040161180490615361565b60405180910390fd5b60008054906101000a900473ffffffffffffffffffffffffffffffffffffffff1673ffffffffffffffffffffffffffffffffffffffff1663f5c9d69e868686866040518563ffffffff1660e01b815260040161186c9493929190615259565b60206040518083038186803b15801561188457600080fd5b505afa158015611898573d6000803e3d6000fd5b505050506040513d601f19601f820116820180604052508101906118bc9190614a83565b6118fb576040517f08c379a00000000000000000000000000000000000000000000000000000000081526004016118f2906153a1565b60405180910390fd5b60006001541415611c725733426040516020016119199291906151cc565b6040516020818303038152906040528051906020012060018190555033600260006001548152602001908152602001600020600060028110611984577f4e487b7100000000000000000000000000000000000000000000000000000000600052603260045260246000fd5b0160006101000a81548173ffffffffffffffffffffffffffffffffffffffff021916908373ffffffffffffffffffffffffffffffffffffffff160217905550600154600660003373ffffffffffffffffffffffffffffffffffffffff1673ffffffffffffffffffffffffffffffffffffffff168152602001908152602001600020819055506040518061010001604052806040518060400160405280600160ff168152602001600460ff1681525081526020016040518060400160405280600260ff168152602001600460ff1681525081526020016040518060400160405280600360ff168152602001600460ff1681525081526020016040518060400160405280600460ff168152602001600460ff1681525081526020016040518060400160405280600160ff168152602001600560ff1681525081526020016040518060400160405280600260ff168152602001600560ff1681525081526020016040518060400160405280600360ff168152602001600560ff1681525081526020016040518060400160405280600460ff168152602001600560ff1681525081525060036000600154815260200190815260200160002060003373ffffffffffffffffffffffffffffffffffffffff1673ffffffffffffffffffffffffffffffffffffffff168152602001908152602001600020906008611b83929190614788565b5081600060028110611bbe577f4e487b7100000000000000000000000000000000000000000000000000000000600052603260045260246000fd5b602002015160086000600154815260200190815260200160002060003373ffffffffffffffffffffffffffffffffffffffff1673ffffffffffffffffffffffffffffffffffffffff168152602001908152602001600020819055503360046000600154815260200190815260200160002060006101000a81548173ffffffffffffffffffffffffffffffffffffffff021916908373ffffffffffffffffffffffffffffffffffffffff160217905550612126565b3373ffffffffffffffffffffffffffffffffffffffff16600260006001548152602001908152602001600020600060028110611cd7577f4e487b7100000000000000000000000000000000000000000000000000000000600052603260045260246000fd5b0160009054906101000a900473ffffffffffffffffffffffffffffffffffffffff1673ffffffffffffffffffffffffffffffffffffffff161415611d50576040517f08c379a0000000000000000000000000000000000000000000000000000000008152600401611d4790615421565b60405180910390fd5b600154600660003373ffffffffffffffffffffffffffffffffffffffff1673ffffffffffffffffffffffffffffffffffffffff1681526020019081526020016000208190555033600260006001548152602001908152602001600020600160028110611de5577f4e487b7100000000000000000000000000000000000000000000000000000000600052603260045260246000fd5b0160006101000a81548173ffffffffffffffffffffffffffffffffffffffff021916908373ffffffffffffffffffffffffffffffffffffffff1602179055506040518061010001604052806040518060400160405280600160ff168152602001600060ff1681525081526020016040518060400160405280600260ff168152602001600060ff1681525081526020016040518060400160405280600360ff168152602001600060ff1681525081526020016040518060400160405280600460ff168152602001600060ff1681525081526020016040518060400160405280600160ff168152602001600160ff1681525081526020016040518060400160405280600260ff168152602001600160ff1681525081526020016040518060400160405280600360ff168152602001600160ff1681525081526020016040518060400160405280600460ff168152602001600160ff1681525081525060036000600154815260200190815260200160002060003373ffffffffffffffffffffffffffffffffffffffff1673ffffffffffffffffffffffffffffffffffffffff168152602001908152602001600020906008611f9e929190614788565b50600060018190555081600060028110611fe1577f4e487b7100000000000000000000000000000000000000000000000000000000600052603260045260246000fd5b602002015160086000600154815260200190815260200160002060003373ffffffffffffffffffffffffffffffffffffffff1673ffffffffffffffffffffffffffffffffffffffff16815260200190815260200160002081905550600660003373ffffffffffffffffffffffffffffffffffffffff1673ffffffffffffffffffffffffffffffffffffffff168152602001908152602001600020547f825d226c0713a8034f222c43993e2ec904eabba2af0bb6b9bbb170b3d765b6cf60046000600660003373ffffffffffffffffffffffffffffffffffffffff1673ffffffffffffffffffffffffffffffffffffffff16815260200190815260200160002054815260200190815260200160002060009054906101000a900473ffffffffffffffffffffffffffffffffffffffff1660405161211d91906151f8565b60405180910390a25b60005b60088160ff16101561223457600560096000600660003373ffffffffffffffffffffffffffffffffffffffff1673ffffffffffffffffffffffffffffffffffffffff16815260200190815260200160002054815260200190815260200160002060003373ffffffffffffffffffffffffffffffffffffffff1673ffffffffffffffffffffffffffffffffffffffff1681526020019081526020016000208260ff1660088110612201577f4e487b7100000000000000000000000000000000000000000000000000000000600052603260045260246000fd5b602091828204019190066101000a81548160ff021916908360ff160217905550808061222c90615739565b915050612129565b50600660003373ffffffffffffffffffffffffffffffffffffffff1673ffffffffffffffffffffffffffffffffffffffff168152602001908152602001600020549050949350505050565b600360205283600052604060002060205282600052604060002082600881106122a757600080fd5b0181600281106122b657600080fd5b602091828204019190069350935050509054906101000a900460ff1681565b6122dd6147d6565b6122e56147d6565b6000600660003373ffffffffffffffffffffffffffffffffffffffff1673ffffffffffffffffffffffffffffffffffffffff1681526020019081526020016000205490503373ffffffffffffffffffffffffffffffffffffffff166002600083815260200190815260200160002060006002811061238c577f4e487b7100000000000000000000000000000000000000000000000000000000600052603260045260246000fd5b0160009054906101000a900473ffffffffffffffffffffffffffffffffffffffff1673ffffffffffffffffffffffffffffffffffffffff1614156125ab576009600082815260200190815260200160002060003373ffffffffffffffffffffffffffffffffffffffff1673ffffffffffffffffffffffffffffffffffffffff1681526020019081526020016000206009600083815260200190815260200160002060006002600085815260200190815260200160002060016002811061247b577f4e487b7100000000000000000000000000000000000000000000000000000000600052603260045260246000fd5b0160009054906101000a900473ffffffffffffffffffffffffffffffffffffffff1673ffffffffffffffffffffffffffffffffffffffff1673ffffffffffffffffffffffffffffffffffffffff16815260200190815260200160002081600880602002604051908101604052809291908260088015612535576020028201916000905b82829054906101000a900460ff1660ff16815260200190600101906020826000010492830192600103820291508084116124fe5790505b505050505091508060088060200260405190810160405280929190826008801561259a576020028201916000905b82829054906101000a900460ff1660ff16815260200190600101906020826000010492830192600103820291508084116125635790505b505050505090509250925050612788565b6009600082815260200190815260200160002060003373ffffffffffffffffffffffffffffffffffffffff1673ffffffffffffffffffffffffffffffffffffffff1681526020019081526020016000206009600083815260200190815260200160002060006002600085815260200190815260200160002060006002811061265c577f4e487b7100000000000000000000000000000000000000000000000000000000600052603260045260246000fd5b0160009054906101000a900473ffffffffffffffffffffffffffffffffffffffff1673ffffffffffffffffffffffffffffffffffffffff1673ffffffffffffffffffffffffffffffffffffffff16815260200190815260200160002081600880602002604051908101604052809291908260088015612716576020028201916000905b82829054906101000a900460ff1660ff16815260200190600101906020826000010492830192600103820291508084116126df5790505b505050505091508060088060200260405190810160405280929190826008801561277b576020028201916000905b82829054906101000a900460ff1660ff16815260200190600101906020826000010492830192600103820291508084116127445790505b5050505050905092509250505b9091565b6000600660003373ffffffffffffffffffffffffffffffffffffffff1673ffffffffffffffffffffffffffffffffffffffff1681526020019081526020016000205490506000811415612814576040517f08c379a000000000000000000000000000000000000000000000000000000000815260040161280b90615401565b60405180910390fd5b3373ffffffffffffffffffffffffffffffffffffffff166004600083815260200190815260200160002060009054906101000a900473ffffffffffffffffffffffffffffffffffffffff1673ffffffffffffffffffffffffffffffffffffffff16146128b5576040517f08c379a00000000000000000000000000000000000000000000000000000000081526004016128ac90615381565b60405180910390fd5b6000600660003373ffffffffffffffffffffffffffffffffffffffff1673ffffffffffffffffffffffffffffffffffffffff168152602001908152602001600020549050600060026000838152602001908152602001600020600060028110612947577f4e487b7100000000000000000000000000000000000000000000000000000000600052603260045260246000fd5b0160009054906101000a900473ffffffffffffffffffffffffffffffffffffffff1690506000600260008481526020019081526020016000206001600281106129b9577f4e487b7100000000000000000000000000000000000000000000000000000000600052603260045260246000fd5b0160009054906101000a900473ffffffffffffffffffffffffffffffffffffffff1690503373ffffffffffffffffffffffffffffffffffffffff168273ffffffffffffffffffffffffffffffffffffffff1614156131645760005b60088160ff16101561315e5760006003600086815260200190815260200160002060003373ffffffffffffffffffffffffffffffffffffffff1673ffffffffffffffffffffffffffffffffffffffff1681526020019081526020016000208260ff1660088110612aad577f4e487b7100000000000000000000000000000000000000000000000000000000600052603260045260246000fd5b01600060028110612ae7577f4e487b7100000000000000000000000000000000000000000000000000000000600052603260045260246000fd5b602091828204019190069054906101000a900460ff1660ff16148015612bea575060006003600086815260200190815260200160002060003373ffffffffffffffffffffffffffffffffffffffff1673ffffffffffffffffffffffffffffffffffffffff1681526020019081526020016000208260ff1660088110612b95577f4e487b7100000000000000000000000000000000000000000000000000000000600052603260045260246000fd5b01600160028110612bcf577f4e487b7100000000000000000000000000000000000000000000000000000000600052603260045260246000fd5b602091828204019190069054906101000a900460ff1660ff16145b8015612c99575060016009600086815260200190815260200160002060003373ffffffffffffffffffffffffffffffffffffffff1673ffffffffffffffffffffffffffffffffffffffff1681526020019081526020016000208260ff1660088110612c7e577f4e487b7100000000000000000000000000000000000000000000000000000000600052603260045260246000fd5b602091828204019190069054906101000a900460ff1660ff16145b15612db757336007600086815260200190815260200160002060006101000a81548173ffffffffffffffffffffffffffffffffffffffff021916908373ffffffffffffffffffffffffffffffffffffffff1602179055506000600660003373ffffffffffffffffffffffffffffffffffffffff1673ffffffffffffffffffffffffffffffffffffffff168152602001908152602001600020819055506000600660008473ffffffffffffffffffffffffffffffffffffffff1673ffffffffffffffffffffffffffffffffffffffff16815260200190815260200160002081905550837f356820a8ffb2e87f807efe30f3a77937f6273fa64c46730bdd8653974f3ecb3733604051612daa91906151f8565b60405180910390a261314b565b60056003600086815260200190815260200160002060003373ffffffffffffffffffffffffffffffffffffffff1673ffffffffffffffffffffffffffffffffffffffff1681526020019081526020016000208260ff1660088110612e44577f4e487b7100000000000000000000000000000000000000000000000000000000600052603260045260246000fd5b01600060028110612e7e577f4e487b7100000000000000000000000000000000000000000000000000000000600052603260045260246000fd5b602091828204019190069054906101000a900460ff1660ff16148015612f81575060006003600086815260200190815260200160002060003373ffffffffffffffffffffffffffffffffffffffff1673ffffffffffffffffffffffffffffffffffffffff1681526020019081526020016000208260ff1660088110612f2c577f4e487b7100000000000000000000000000000000000000000000000000000000600052603260045260246000fd5b01600160028110612f66577f4e487b7100000000000000000000000000000000000000000000000000000000600052603260045260246000fd5b602091828204019190069054906101000a900460ff1660ff16145b8015613030575060016009600086815260200190815260200160002060003373ffffffffffffffffffffffffffffffffffffffff1673ffffffffffffffffffffffffffffffffffffffff1681526020019081526020016000208260ff1660088110613015577f4e487b7100000000000000000000000000000000000000000000000000000000600052603260045260246000fd5b602091828204019190069054906101000a900460ff1660ff16145b1561314a57336007600086815260200190815260200160002060006101000a81548173ffffffffffffffffffffffffffffffffffffffff021916908373ffffffffffffffffffffffffffffffffffffffff1602179055506000600660003373ffffffffffffffffffffffffffffffffffffffff1673ffffffffffffffffffffffffffffffffffffffff168152602001908152602001600020819055506000600660008473ffffffffffffffffffffffffffffffffffffffff1673ffffffffffffffffffffffffffffffffffffffff16815260200190815260200160002081905550837f356820a8ffb2e87f807efe30f3a77937f6273fa64c46730bdd8653974f3ecb373360405161314191906151f8565b60405180910390a25b5b808061315690615739565b915050612a14565b506138b3565b60005b60088160ff1610156138b15760006003600086815260200190815260200160002060003373ffffffffffffffffffffffffffffffffffffffff1673ffffffffffffffffffffffffffffffffffffffff1681526020019081526020016000208260ff1660088110613200577f4e487b7100000000000000000000000000000000000000000000000000000000600052603260045260246000fd5b0160006002811061323a577f4e487b7100000000000000000000000000000000000000000000000000000000600052603260045260246000fd5b602091828204019190069054906101000a900460ff1660ff1614801561333d575060056003600086815260200190815260200160002060003373ffffffffffffffffffffffffffffffffffffffff1673ffffffffffffffffffffffffffffffffffffffff1681526020019081526020016000208260ff16600881106132e8577f4e487b7100000000000000000000000000000000000000000000000000000000600052603260045260246000fd5b01600160028110613322577f4e487b7100000000000000000000000000000000000000000000000000000000600052603260045260246000fd5b602091828204019190069054906101000a900460ff1660ff16145b80156133ec575060016009600086815260200190815260200160002060003373ffffffffffffffffffffffffffffffffffffffff1673ffffffffffffffffffffffffffffffffffffffff1681526020019081526020016000208260ff16600881106133d1577f4e487b7100000000000000000000000000000000000000000000000000000000600052603260045260246000fd5b602091828204019190069054906101000a900460ff1660ff16145b1561350a57336007600086815260200190815260200160002060006101000a81548173ffffffffffffffffffffffffffffffffffffffff021916908373ffffffffffffffffffffffffffffffffffffffff1602179055506000600660003373ffffffffffffffffffffffffffffffffffffffff1673ffffffffffffffffffffffffffffffffffffffff168152602001908152602001600020819055506000600660008573ffffffffffffffffffffffffffffffffffffffff1673ffffffffffffffffffffffffffffffffffffffff16815260200190815260200160002081905550837f356820a8ffb2e87f807efe30f3a77937f6273fa64c46730bdd8653974f3ecb37336040516134fd91906151f8565b60405180910390a261389e565b60056003600086815260200190815260200160002060003373ffffffffffffffffffffffffffffffffffffffff1673ffffffffffffffffffffffffffffffffffffffff1681526020019081526020016000208260ff1660088110613597577f4e487b7100000000000000000000000000000000000000000000000000000000600052603260045260246000fd5b016000600281106135d1577f4e487b7100000000000000000000000000000000000000000000000000000000600052603260045260246000fd5b602091828204019190069054906101000a900460ff1660ff161480156136d4575060056003600086815260200190815260200160002060003373ffffffffffffffffffffffffffffffffffffffff1673ffffffffffffffffffffffffffffffffffffffff1681526020019081526020016000208260ff166008811061367f577f4e487b7100000000000000000000000000000000000000000000000000000000600052603260045260246000fd5b016001600281106136b9577f4e487b7100000000000000000000000000000000000000000000000000000000600052603260045260246000fd5b602091828204019190069054906101000a900460ff1660ff16145b8015613783575060016009600086815260200190815260200160002060003373ffffffffffffffffffffffffffffffffffffffff1673ffffffffffffffffffffffffffffffffffffffff1681526020019081526020016000208260ff1660088110613768577f4e487b7100000000000000000000000000000000000000000000000000000000600052603260045260246000fd5b602091828204019190069054906101000a900460ff1660ff16145b1561389d57336007600086815260200190815260200160002060006101000a81548173ffffffffffffffffffffffffffffffffffffffff021916908373ffffffffffffffffffffffffffffffffffffffff1602179055506000600660003373ffffffffffffffffffffffffffffffffffffffff1673ffffffffffffffffffffffffffffffffffffffff168152602001908152602001600020819055506000600660008573ffffffffffffffffffffffffffffffffffffffff1673ffffffffffffffffffffffffffffffffffffffff16815260200190815260200160002081905550837f356820a8ffb2e87f807efe30f3a77937f6273fa64c46730bdd8653974f3ecb373360405161389491906151f8565b60405180910390a25b5b80806138a990615739565b915050613167565b505b50505050565b6008602052816000526040600020602052806000526040600020600091509150505481565b6009602052826000526040600020602052816000526040600020816008811061390657600080fd5b6020918282040191900692509250509054906101000a900460ff1681565b60008060009054906101000a900473ffffffffffffffffffffffffffffffffffffffff1673ffffffffffffffffffffffffffffffffffffffff1663f5c9d69e868686866040518563ffffffff1660e01b81526004016139869493929190615259565b60206040518083038186803b15801561399e57600080fd5b505afa1580156139b2573d6000803e3d6000fd5b505050506040513d601f19601f820116820180604052508101906139d69190614a83565b9050949350505050565b60066020528060005260406000206000915090505481565b60015481565b60006101008310613a44576040517f08c379a0000000000000000000000000000000000000000000000000000000008152600401613a3b90615301565b60405180910390fd5b600073__$86e0c54df1042e28bf2dd20ccf184dc428$__6329a5f2f66040518060400160405280878152602001868152506040518263ffffffff1660e01b8152600401613a91919061523e565b60206040518083038186803b158015613aa957600080fd5b505af4158015613abd573d6000803e3d6000fd5b505050506040513d601f19601f82011682018060405250810190613ae19190614bff565b905060086000600660003373ffffffffffffffffffffffffffffffffffffffff1673ffffffffffffffffffffffffffffffffffffffff16815260200190815260200160002054815260200190815260200160002060003373ffffffffffffffffffffffffffffffffffffffff1673ffffffffffffffffffffffffffffffffffffffff16815260200190815260200160002054811491505092915050565b6000600660003373ffffffffffffffffffffffffffffffffffffffff1673ffffffffffffffffffffffffffffffffffffffff1681526020019081526020016000205490506000811415613c06576040517f08c379a0000000000000000000000000000000000000000000000000000000008152600401613bfd90615401565b60405180910390fd5b3373ffffffffffffffffffffffffffffffffffffffff166004600083815260200190815260200160002060009054906101000a900473ffffffffffffffffffffffffffffffffffffffff1673ffffffffffffffffffffffffffffffffffffffff1614613ca7576040517f08c379a0000000000000000000000000000000000000000000000000000000008152600401613c9e90615381565b60405180910390fd5b6000600660003373ffffffffffffffffffffffffffffffffffffffff1673ffffffffffffffffffffffffffffffffffffffff168152602001908152602001600020549050600a6009600083815260200190815260200160002060003373ffffffffffffffffffffffffffffffffffffffff1673ffffffffffffffffffffffffffffffffffffffff1681526020019081526020016000208560ff1660088110613d78577f4e487b7100000000000000000000000000000000000000000000000000000000600052603260045260246000fd5b602091828204019190069054906101000a900460ff1660ff1614613dd1576040517f08c379a0000000000000000000000000000000000000000000000000000000008152600401613dc890615341565b60405180910390fd5b60008360ff161480613de6575060018360ff16145b613e25576040517f08c379a0000000000000000000000000000000000000000000000000000000008152600401613e1c90615321565b60405180910390fd5b826009600083815260200190815260200160002060003373ffffffffffffffffffffffffffffffffffffffff1673ffffffffffffffffffffffffffffffffffffffff1681526020019081526020016000208560ff1660088110613eb1577f4e487b7100000000000000000000000000000000000000000000000000000000600052603260045260246000fd5b602091828204019190066101000a81548160ff021916908360ff1602179055506000613edb613f5f565b905080613f1b57817f825d226c0713a8034f222c43993e2ec904eabba2af0bb6b9bbb170b3d765b6cf33604051613f1291906151f8565b60405180910390a25b5050505050565b60056020528060005260406000206000915090505481565b6000808260000b1215613f565781613f5190615791565b613f58565b815b9050919050565b60008060009050600080600660003373ffffffffffffffffffffffffffffffffffffffff1673ffffffffffffffffffffffffffffffffffffffff16815260200190815260200160002054905060005b60088160ff16101561414a5760006009600084815260200190815260200160002060003373ffffffffffffffffffffffffffffffffffffffff1673ffffffffffffffffffffffffffffffffffffffff1681526020019081526020016000208260ff1660088110614047577f4e487b7100000000000000000000000000000000000000000000000000000000600052603260045260246000fd5b602091828204019190069054906101000a900460ff1660ff16141561407a5760018361407391906155f0565b9250614137565b60016009600084815260200190815260200160002060003373ffffffffffffffffffffffffffffffffffffffff1673ffffffffffffffffffffffffffffffffffffffff1681526020019081526020016000208260ff1660088110614107577f4e487b7100000000000000000000000000000000000000000000000000000000600052603260045260246000fd5b602091828204019190069054906101000a900460ff1660ff1614156141365760018461413391906155f0565b93505b5b808061414290615739565b915050613fae565b5060048360ff16106144005760003373ffffffffffffffffffffffffffffffffffffffff16600260008481526020019081526020016000206000600281106141bb577f4e487b7100000000000000000000000000000000000000000000000000000000600052603260045260246000fd5b0160009054906101000a900473ffffffffffffffffffffffffffffffffffffffff1673ffffffffffffffffffffffffffffffffffffffff16141561426e5760026000838152602001908152602001600020600160028110614245577f4e487b7100000000000000000000000000000000000000000000000000000000600052603260045260246000fd5b0160009054906101000a900473ffffffffffffffffffffffffffffffffffffffff1690506142df565b600260008381526020019081526020016000206000600281106142ba577f4e487b7100000000000000000000000000000000000000000000000000000000600052603260045260246000fd5b0160009054906101000a900473ffffffffffffffffffffffffffffffffffffffff1690505b806007600084815260200190815260200160002060006101000a81548173ffffffffffffffffffffffffffffffffffffffff021916908373ffffffffffffffffffffffffffffffffffffffff160217905550817f356820a8ffb2e87f807efe30f3a77937f6273fa64c46730bdd8653974f3ecb378260405161436191906151f8565b60405180910390a26000600660003373ffffffffffffffffffffffffffffffffffffffff1673ffffffffffffffffffffffffffffffffffffffff168152602001908152602001600020819055506000600660008373ffffffffffffffffffffffffffffffffffffffff1673ffffffffffffffffffffffffffffffffffffffff1681526020019081526020016000208190555060019450505050506146bd565b60048260ff16106146b55760003373ffffffffffffffffffffffffffffffffffffffff1660026000848152602001908152602001600020600060028110614470577f4e487b7100000000000000000000000000000000000000000000000000000000600052603260045260246000fd5b0160009054906101000a900473ffffffffffffffffffffffffffffffffffffffff1673ffffffffffffffffffffffffffffffffffffffff16141561452357600260008381526020019081526020016000206001600281106144fa577f4e487b7100000000000000000000000000000000000000000000000000000000600052603260045260246000fd5b0160009054906101000a900473ffffffffffffffffffffffffffffffffffffffff169050614594565b6002600083815260200190815260200160002060006002811061456f577f4e487b7100000000000000000000000000000000000000000000000000000000600052603260045260246000fd5b0160009054906101000a900473ffffffffffffffffffffffffffffffffffffffff1690505b336007600084815260200190815260200160002060006101000a81548173ffffffffffffffffffffffffffffffffffffffff021916908373ffffffffffffffffffffffffffffffffffffffff160217905550817f356820a8ffb2e87f807efe30f3a77937f6273fa64c46730bdd8653974f3ecb373360405161461691906151f8565b60405180910390a26000600660003373ffffffffffffffffffffffffffffffffffffffff1673ffffffffffffffffffffffffffffffffffffffff168152602001908152602001600020819055506000600660008373ffffffffffffffffffffffffffffffffffffffff1673ffffffffffffffffffffffffffffffffffffffff1681526020019081526020016000208190555060019450505050506146bd565b600093505050505b90565b826002601f016020900481019282156147495791602002820160005b8382111561471a57835183826101000a81548160ff021916908360ff16021790555092602001926001016020816000010492830192600103026146dc565b80156147475782816101000a81549060ff021916905560010160208160000104928301926001030261471a565b505b50905061475691906147f9565b5090565b6040518061010001604052806008905b614772614816565b81526020019060019003908161476a5790505090565b82600881019282156147c5579160200282015b828111156147c4578251829060026147b49291906146c0565b509160200191906001019061479b565b5b5090506147d29190614838565b5090565b604051806101000160405280600890602082028036833780820191505090505090565b5b808211156148125760008160009055506001016147fa565b5090565b6040518060400160405280600290602082028036833780820191505090505090565b5b80821115614858576000818161484f919061485c565b50600101614839565b5090565b5060009055565b60006148766148718461549c565b615477565b9050808285604086028201111561488c57600080fd5b60005b858110156148bc57816148a28882614965565b84526020840193506040830192505060018101905061488f565b5050509392505050565b60006148d96148d4846154c2565b615477565b905080828560208602820111156148ef57600080fd5b60005b8581101561491f578161490588826149b6565b8452602084019350602083019250506001810190506148f2565b5050509392505050565b60008135905061493881615a16565b92915050565b600082601f83011261494f57600080fd5b600261495c848285614863565b91505092915050565b600082601f83011261497657600080fd5b60026149838482856148c6565b91505092915050565b60008151905061499b81615a2d565b92915050565b6000813590506149b081615a44565b92915050565b6000813590506149c581615a5b565b92915050565b6000815190506149da81615a5b565b92915050565b6000813590506149ef81615a72565b92915050565b600060208284031215614a0757600080fd5b6000614a1584828501614929565b91505092915050565b6000806000806101408587031215614a3557600080fd5b6000614a4387828801614965565b9450506040614a548782880161493e565b93505060c0614a6587828801614965565b925050610100614a7787828801614965565b91505092959194509250565b600060208284031215614a9557600080fd5b6000614aa38482850161498c565b91505092915050565b600060208284031215614abe57600080fd5b6000614acc848285016149a1565b91505092915050565b60008060408385031215614ae857600080fd5b6000614af6858286016149a1565b9250506020614b0785828601614929565b9150509250929050565b600080600060608486031215614b2657600080fd5b6000614b34868287016149a1565b9350506020614b4586828701614929565b9250506040614b56868287016149b6565b9150509250925092565b60008060008060808587031215614b7657600080fd5b6000614b84878288016149a1565b9450506020614b9587828801614929565b9350506040614ba6878288016149b6565b9250506060614bb7878288016149b6565b91505092959194509250565b60008060408385031215614bd657600080fd5b6000614be4858286016149a1565b9250506020614bf5858286016149b6565b9150509250929050565b600060208284031215614c1157600080fd5b6000614c1f848285016149cb565b91505092915050565b60008060408385031215614c3b57600080fd5b6000614c49858286016149b6565b9250506020614c5a858286016149b6565b9150509250929050565b60008060408385031215614c7757600080fd5b6000614c85858286016149e0565b9250506020614c96858286016149e0565b9150509250929050565b600080600060608486031215614cb557600080fd5b6000614cc3868287016149e0565b9350506020614cd4868287016149e0565b9250506040614ce5868287016149e0565b9150509250925092565b6000614cfb8383614e3b565b60408301905092915050565b6000614d138383614f40565b60408301905092915050565b6000614d2b838361516a565b60208301905092915050565b6000614d438383615188565b60208301905092915050565b6000614d5b83836151ae565b60208301905092915050565b614d708161569c565b82525050565b614d87614d828261569c565b615763565b82525050565b614d968161551a565b614da08184615592565b9250614dab826154e8565b8060005b83811015614ddc578151614dc38782614cef565b9650614dce83615551565b925050600181019050614daf565b505050505050565b614ded81615525565b614df7818461559d565b9250614e02826154f2565b8060005b83811015614e33578151614e1a8782614d07565b9650614e258361555e565b925050600181019050614e06565b505050505050565b614e4481615530565b614e4e81846155a8565b9250614e59826154fc565b8060005b83811015614e8a578151614e718782614d1f565b9650614e7c8361556b565b925050600181019050614e5d565b505050505050565b614e9b81615530565b614ea581846155b3565b9250614eb0826154fc565b8060005b83811015614ee1578151614ec88782614d1f565b9650614ed38361556b565b925050600181019050614eb4565b505050505050565b614ef281615530565b614efc81846155be565b9250614f07826154fc565b8060005b83811015614f38578151614f1f8782614d37565b9650614f2a8361556b565b925050600181019050614f0b565b505050505050565b614f498161553b565b614f5381846155c9565b9250614f5e82615506565b8060005b83811015614f8f578151614f768782614d4f565b9650614f8183615578565b925050600181019050614f62565b505050505050565b614fa081615546565b614faa81846155d4565b9250614fb582615510565b8060005b83811015614fe6578151614fcd8782614d4f565b9650614fd883615585565b925050600181019050614fb9565b505050505050565b614ff7816156ae565b82525050565b615006816156ba565b82525050565b60006150196024836155df565b915061502482615856565b604082019050919050565b600061503c6014836155df565b9150615047826158a5565b602082019050919050565b600061505f601b836155df565b915061506a826158ce565b602082019050919050565b60006150826015836155df565b915061508d826158f7565b602082019050919050565b60006150a56012836155df565b91506150b082615920565b602082019050919050565b60006150c86011836155df565b91506150d382615949565b602082019050919050565b60006150eb601a836155df565b91506150f682615972565b602082019050919050565b600061510e6010836155df565b91506151198261599b565b602082019050919050565b60006151316019836155df565b915061513c826159c4565b602082019050919050565b6000615154601c836155df565b915061515f826159ed565b602082019050919050565b615173816156f1565b82525050565b615182816156f1565b82525050565b615191816156f1565b82525050565b6151a86151a3826156f1565b615787565b82525050565b6151b7816156fb565b82525050565b6151c6816156fb565b82525050565b60006151d88285614d76565b6014820191506151e88284615197565b6020820191508190509392505050565b600060208201905061520d6000830184614d67565b92915050565b6000610400820190506152296000830185614de4565b615237610200830184614de4565b9392505050565b60006040820190506152536000830184614ee9565b92915050565b60006101408201905061526f6000830187614e92565b61527c6040830186614d8d565b61528960c0830185614e92565b615297610100830184614e92565b95945050505050565b6000610200820190506152b66000830185614f97565b6152c4610100830184614f97565b9392505050565b60006020820190506152e06000830184614fee565b92915050565b60006020820190506152fb6000830184614ffd565b92915050565b6000602082019050818103600083015261531a8161500c565b9050919050565b6000602082019050818103600083015261533a8161502f565b9050919050565b6000602082019050818103600083015261535a81615052565b9050919050565b6000602082019050818103600083015261537a81615075565b9050919050565b6000602082019050818103600083015261539a81615098565b9050919050565b600060208201905081810360008301526153ba816150bb565b9050919050565b600060208201905081810360008301526153da816150de565b9050919050565b600060208201905081810360008301526153fa81615101565b9050919050565b6000602082019050818103600083015261541a81615124565b9050919050565b6000602082019050818103600083015261543a81615147565b9050919050565b60006020820190506154566000830184615179565b92915050565b600060208201905061547160008301846151bd565b92915050565b6000615481615492565b905061548d8282615708565b919050565b6000604051905090565b600067ffffffffffffffff8211156154b7576154b6615809565b5b602082029050919050565b600067ffffffffffffffff8211156154dd576154dc615809565b5b602082029050919050565b6000819050919050565b6000819050919050565b6000819050919050565b6000819050919050565b6000819050919050565b600060029050919050565b600060089050919050565b600060029050919050565b600060029050919050565b600060089050919050565b6000602082019050919050565b6000602082019050919050565b6000602082019050919050565b6000602082019050919050565b6000602082019050919050565b600081905092915050565b600081905092915050565b600081905092915050565b600081905092915050565b600081905092915050565b600081905092915050565b600081905092915050565b600082825260208201905092915050565b60006155fb826156fb565b9150615606836156fb565b92508260ff0382111561561c5761561b6157da565b5b828201905092915050565b6000615632826156c4565b915061563d836156c4565b9250827fffffffffffffffffffffffffffffffffffffffffffffffffffffffffffffff8001821260008412151615615678576156776157da565b5b82607f018213600084121615615691576156906157da565b5b828203905092915050565b60006156a7826156d1565b9050919050565b60008115159050919050565b6000819050919050565b60008160000b9050919050565b600073ffffffffffffffffffffffffffffffffffffffff82169050919050565b6000819050919050565b600060ff82169050919050565b61571182615838565b810181811067ffffffffffffffff821117156157305761572f615809565b5b80604052505050565b6000615744826156fb565b915060ff821415615758576157576157da565b5b600182019050919050565b600061576e82615775565b9050919050565b600061578082615849565b9050919050565b6000819050919050565b600061579c826156c4565b91507fffffffffffffffffffffffffffffffffffffffffffffffffffffffffffffff808214156157cf576157ce6157da565b5b816000039050919050565b7f4e487b7100000000000000000000000000000000000000000000000000000000600052601160045260246000fd5b7f4e487b7100000000000000000000000000000000000000000000000000000000600052604160045260246000fd5b6000601f19601f8301169050919050565b60008160601b9050919050565b7f696e697469616c2076616c7565206d757374206265206c657373207468616e2060008201527f3235362e00000000000000000000000000000000000000000000000000000000602082015250565b7f6d757374206265207a65726f206f72206f6e652e000000000000000000000000600082015250565b7f6d757374206265206e6565642072657665616c207374617475732e0000000000600082015250565b7f706c6179696e6720616e6f746865722067616d652e0000000000000000000000600082015250565b7f6d75737420626520796f7572207475726e2e0000000000000000000000000000600082015250565b7f6d7573742062652076657269666965642e000000000000000000000000000000600082015250565b7f6e65656420746f2072657665616c20796f75722070696563652e000000000000600082015250565b7f6d757374206265206d6f7661626c652e00000000000000000000000000000000600082015250565b7f6d75737420626520706c6179696e67207468652067616d652e00000000000000600082015250565b7f706c6179657273206d757374206e6f74206265207468652073616d6500000000600082015250565b615a1f8161569c565b8114615a2a57600080fd5b50565b615a36816156ae565b8114615a4157600080fd5b50565b615a4d816156ba565b8114615a5857600080fd5b50565b615a64816156f1565b8114615a6f57600080fd5b50565b615a7b816156fb565b8114615a8657600080fd5b5056fea26469706673582212202732107bd5c109bb357c71c0671276307ba0a1bcedae318f3f9eda71f228860464736f6c63430008040033",
  "linkReferences": {
    "contracts/Poseidon.sol": {
      "PoseidonT3": [
        {
          "length": 20,
          "start": 15207
        }
      ]
    }
  },
  "deployedLinkReferences": {
    "contracts/Poseidon.sol": {
      "PoseidonT3": [
        {
          "length": 20,
          "start": 14920
        }
      ]
    }
  }
}