{
  "_format": "hh-sol-artifact-1",
  "contractName": "GSTCoin",
  "sourceName": "contracts/GSTCoin.sol",
  "abi": [
    {
      "inputs": [
        {
          "internalType": "uint256",
          "name": "initialSupply",
          "type": "uint256"
        }
      ],
      "stateMutability": "nonpayable",
      "type": "constructor"
    },
    {
      "anonymous": false,
      "inputs": [
        {
          "indexed": true,
          "internalType": "address",
          "name": "owner",
          "type": "address"
        },
        {
          "indexed": true,
          "internalType": "address",
          "name": "spender",
          "type": "address"
        },
        {
          "indexed": false,
          "internalType": "uint256",
          "name": "value",
          "type": "uint256"
        }
      ],
      "name": "Approval",
      "type": "event"
    },
    {
      "anonymous": false,
      "inputs": [
        {
          "indexed": true,
          "internalType": "address",
          "name": "previousOwner",
          "type": "address"
        },
        {
          "indexed": true,
          "internalType": "address",
          "name": "newOwner",
          "type": "address"
        }
      ],
      "name": "OwnershipTransferred",
      "type": "event"
    },
    {
      "anonymous": false,
      "inputs": [
        {
          "indexed": true,
          "internalType": "address",
          "name": "from",
          "type": "address"
        },
        {
          "indexed": true,
          "internalType": "address",
          "name": "to",
          "type": "address"
        },
        {
          "indexed": false,
          "internalType": "uint256",
          "name": "value",
          "type": "uint256"
        }
      ],
      "name": "Transfer",
      "type": "event"
    },
    {
      "inputs": [
        {
          "internalType": "address",
          "name": "owner",
          "type": "address"
        },
        {
          "internalType": "address",
          "name": "spender",
          "type": "address"
        }
      ],
      "name": "allowance",
      "outputs": [
        {
          "internalType": "uint256",
          "name": "",
          "type": "uint256"
        }
      ],
      "stateMutability": "view",
      "type": "function"
    },
    {
      "inputs": [
        {
          "internalType": "address",
          "name": "spender",
          "type": "address"
        },
        {
          "internalType": "uint256",
          "name": "amount",
          "type": "uint256"
        }
      ],
      "name": "approve",
      "outputs": [
        {
          "internalType": "bool",
          "name": "",
          "type": "bool"
        }
      ],
      "stateMutability": "nonpayable",
      "type": "function"
    },
    {
      "inputs": [
        {
          "internalType": "address",
          "name": "account",
          "type": "address"
        }
      ],
      "name": "balanceOf",
      "outputs": [
        {
          "internalType": "uint256",
          "name": "",
          "type": "uint256"
        }
      ],
      "stateMutability": "view",
      "type": "function"
    },
    {
      "inputs": [],
      "name": "claim",
      "outputs": [],
      "stateMutability": "nonpayable",
      "type": "function"
    },
    {
      "inputs": [],
      "name": "claimEnabled",
      "outputs": [
        {
          "internalType": "bool",
          "name": "",
          "type": "bool"
        }
      ],
      "stateMutability": "view",
      "type": "function"
    },
    {
      "inputs": [],
      "name": "decimals",
      "outputs": [
        {
          "internalType": "uint8",
          "name": "",
          "type": "uint8"
        }
      ],
      "stateMutability": "view",
      "type": "function"
    },
    {
      "inputs": [
        {
          "internalType": "address",
          "name": "spender",
          "type": "address"
        },
        {
          "internalType": "uint256",
          "name": "subtractedValue",
          "type": "uint256"
        }
      ],
      "name": "decreaseAllowance",
      "outputs": [
        {
          "internalType": "bool",
          "name": "",
          "type": "bool"
        }
      ],
      "stateMutability": "nonpayable",
      "type": "function"
    },
    {
      "inputs": [
        {
          "internalType": "address",
          "name": "spender",
          "type": "address"
        },
        {
          "internalType": "uint256",
          "name": "addedValue",
          "type": "uint256"
        }
      ],
      "name": "increaseAllowance",
      "outputs": [
        {
          "internalType": "bool",
          "name": "",
          "type": "bool"
        }
      ],
      "stateMutability": "nonpayable",
      "type": "function"
    },
    {
      "inputs": [
        {
          "internalType": "address",
          "name": "",
          "type": "address"
        }
      ],
      "name": "isClaimed",
      "outputs": [
        {
          "internalType": "bool",
          "name": "",
          "type": "bool"
        }
      ],
      "stateMutability": "view",
      "type": "function"
    },
    {
      "inputs": [
        {
          "internalType": "address",
          "name": "account",
          "type": "address"
        },
        {
          "internalType": "uint256",
          "name": "amount",
          "type": "uint256"
        }
      ],
      "name": "mint",
      "outputs": [],
      "stateMutability": "nonpayable",
      "type": "function"
    },
    {
      "inputs": [],
      "name": "name",
      "outputs": [
        {
          "internalType": "string",
          "name": "",
          "type": "string"
        }
      ],
      "stateMutability": "view",
      "type": "function"
    },
    {
      "inputs": [],
      "name": "owner",
      "outputs": [
        {
          "internalType": "address",
          "name": "",
          "type": "address"
        }
      ],
      "stateMutability": "view",
      "type": "function"
    },
    {
      "inputs": [
        {
          "internalType": "address",
          "name": "admin",
          "type": "address"
        }
      ],
      "name": "removeAdmin",
      "outputs": [],
      "stateMutability": "nonpayable",
      "type": "function"
    },
    {
      "inputs": [],
      "name": "renounceOwnership",
      "outputs": [],
      "stateMutability": "nonpayable",
      "type": "function"
    },
    {
      "inputs": [
        {
          "internalType": "address",
          "name": "admin",
          "type": "address"
        }
      ],
      "name": "setAdmin",
      "outputs": [],
      "stateMutability": "nonpayable",
      "type": "function"
    },
    {
      "inputs": [],
      "name": "symbol",
      "outputs": [
        {
          "internalType": "string",
          "name": "",
          "type": "string"
        }
      ],
      "stateMutability": "view",
      "type": "function"
    },
    {
      "inputs": [],
      "name": "totalSupply",
      "outputs": [
        {
          "internalType": "uint256",
          "name": "",
          "type": "uint256"
        }
      ],
      "stateMutability": "view",
      "type": "function"
    },
    {
      "inputs": [
        {
          "internalType": "address",
          "name": "to",
          "type": "address"
        },
        {
          "internalType": "uint256",
          "name": "amount",
          "type": "uint256"
        }
      ],
      "name": "transfer",
      "outputs": [
        {
          "internalType": "bool",
          "name": "",
          "type": "bool"
        }
      ],
      "stateMutability": "nonpayable",
      "type": "function"
    },
    {
      "inputs": [
        {
          "internalType": "address",
          "name": "from",
          "type": "address"
        },
        {
          "internalType": "address",
          "name": "to",
          "type": "address"
        },
        {
          "internalType": "uint256",
          "name": "amount",
          "type": "uint256"
        }
      ],
      "name": "transferFrom",
      "outputs": [
        {
          "internalType": "bool",
          "name": "",
          "type": "bool"
        }
      ],
      "stateMutability": "nonpayable",
      "type": "function"
    },
    {
      "inputs": [
        {
          "internalType": "address",
          "name": "newOwner",
          "type": "address"
        }
      ],
      "name": "transferOwnership",
      "outputs": [],
      "stateMutability": "nonpayable",
      "type": "function"
    }
  ],
  "bytecode": "0x60806040526001600860006101000a81548160ff0219169083151502179055503480156200002c57600080fd5b5060405162002059380380620020598339818101604052810190620000529190620002ae565b6040518060400160405280600781526020017f677374636f696e000000000000000000000000000000000000000000000000008152506040518060400160405280600381526020017f47535400000000000000000000000000000000000000000000000000000000008152508160039080519060200190620000d6929190620001e7565b508060049080519060200190620000ef929190620001e7565b50505062000112620001066200011960201b60201c565b6200012160201b60201c565b5062000363565b600033905090565b6000600560009054906101000a900473ffffffffffffffffffffffffffffffffffffffff16905081600560006101000a81548173ffffffffffffffffffffffffffffffffffffffff021916908373ffffffffffffffffffffffffffffffffffffffff1602179055508173ffffffffffffffffffffffffffffffffffffffff168173ffffffffffffffffffffffffffffffffffffffff167f8be0079c531659141344cd1fd0a4f28419497f9722a3daafe3b4186f6b6457e060405160405180910390a35050565b828054620001f590620002e4565b90600052602060002090601f01602090048101928262000219576000855562000265565b82601f106200023457805160ff191683800117855562000265565b8280016001018555821562000265579182015b828111156200026457825182559160200191906001019062000247565b5b50905062000274919062000278565b5090565b5b808211156200029357600081600090555060010162000279565b5090565b600081519050620002a88162000349565b92915050565b600060208284031215620002c157600080fd5b6000620002d18482850162000297565b91505092915050565b6000819050919050565b60006002820490506001821680620002fd57607f821691505b602082108114156200031457620003136200031a565b5b50919050565b7f4e487b7100000000000000000000000000000000000000000000000000000000600052602260045260246000fd5b6200035481620002da565b81146200036057600080fd5b50565b611ce680620003736000396000f3fe608060405234801561001057600080fd5b506004361061012c5760003560e01c8063704b6c02116100ad57806395d89b411161007157806395d89b411461031f578063a457c2d71461033d578063a9059cbb1461036d578063dd62ed3e1461039d578063f2fde38b146103cd5761012c565b8063704b6c021461027b57806370a0823114610297578063715018a6146102c75780638cc08025146102d15780638da5cb5b146103015761012c565b80632866ed21116100f45780632866ed21146101e9578063313ce56714610207578063395093511461022557806340c10f19146102555780634e71d92d146102715761012c565b806306fdde0314610131578063095ea7b31461014f5780631785f53c1461017f57806318160ddd1461019b57806323b872dd146101b9575b600080fd5b6101396103e9565b60405161014691906115d0565b60405180910390f35b61016960048036038101906101649190611322565b61047b565b60405161017691906115b5565b60405180910390f35b6101996004803603810190610194919061126e565b61049e565b005b6101a3610501565b6040516101b09190611792565b60405180910390f35b6101d360048036038101906101ce91906112d3565b61050b565b6040516101e091906115b5565b60405180910390f35b6101f161053a565b6040516101fe91906115b5565b60405180910390f35b61020f61054d565b60405161021c91906117ad565b60405180910390f35b61023f600480360381019061023a9190611322565b610556565b60405161024c91906115b5565b60405180910390f35b61026f600480360381019061026a9190611322565b61058d565b005b61027961062e565b005b6102956004803603810190610290919061126e565b610776565b005b6102b160048036038101906102ac919061126e565b6107d9565b6040516102be9190611792565b60405180910390f35b6102cf610821565b005b6102eb60048036038101906102e6919061126e565b610835565b6040516102f891906115b5565b60405180910390f35b610309610855565b604051610316919061159a565b60405180910390f35b61032761087f565b60405161033491906115d0565b60405180910390f35b61035760048036038101906103529190611322565b610911565b60405161036491906115b5565b60405180910390f35b61038760048036038101906103829190611322565b610988565b60405161039491906115b5565b60405180910390f35b6103b760048036038101906103b29190611297565b6109ab565b6040516103c49190611792565b60405180910390f35b6103e760048036038101906103e2919061126e565b610a32565b005b6060600380546103f8906118c2565b80601f0160208091040260200160405190810160405280929190818152602001828054610424906118c2565b80156104715780601f1061044657610100808354040283529160200191610471565b820191906000526020600020905b81548152906001019060200180831161045457829003601f168201915b5050505050905090565b600080610486610ab6565b9050610493818585610abe565b600191505092915050565b6104a6610c89565b6000600760008373ffffffffffffffffffffffffffffffffffffffff1673ffffffffffffffffffffffffffffffffffffffff16815260200190815260200160002060006101000a81548160ff02191690831515021790555050565b6000600254905090565b600080610516610ab6565b9050610523858285610d07565b61052e858585610d93565b60019150509392505050565b600860009054906101000a900460ff1681565b60006012905090565b600080610561610ab6565b905061058281858561057385896109ab565b61057d91906117e4565b610abe565b600191505092915050565b60011515600760003373ffffffffffffffffffffffffffffffffffffffff1673ffffffffffffffffffffffffffffffffffffffff16815260200190815260200160002060009054906101000a900460ff16151514610620576040517f08c379a000000000000000000000000000000000000000000000000000000000815260040161061790611612565b60405180910390fd5b61062a8282611014565b5050565b600860009054906101000a900460ff1661067d576040517f08c379a000000000000000000000000000000000000000000000000000000000815260040161067490611752565b60405180910390fd5b60011515600660003373ffffffffffffffffffffffffffffffffffffffff1673ffffffffffffffffffffffffffffffffffffffff16815260200190815260200160002060009054906101000a900460ff1615151415610711576040517f08c379a000000000000000000000000000000000000000000000000000000000815260040161070890611672565b60405180910390fd5b6001600660003373ffffffffffffffffffffffffffffffffffffffff1673ffffffffffffffffffffffffffffffffffffffff16815260200190815260200160002060006101000a81548160ff021916908315150217905550610774336064611014565b565b61077e610c89565b6001600760008373ffffffffffffffffffffffffffffffffffffffff1673ffffffffffffffffffffffffffffffffffffffff16815260200190815260200160002060006101000a81548160ff02191690831515021790555050565b60008060008373ffffffffffffffffffffffffffffffffffffffff1673ffffffffffffffffffffffffffffffffffffffff168152602001908152602001600020549050919050565b610829610c89565b6108336000611174565b565b60066020528060005260406000206000915054906101000a900460ff1681565b6000600560009054906101000a900473ffffffffffffffffffffffffffffffffffffffff16905090565b60606004805461088e906118c2565b80601f01602080910402602001604051908101604052809291908181526020018280546108ba906118c2565b80156109075780601f106108dc57610100808354040283529160200191610907565b820191906000526020600020905b8154815290600101906020018083116108ea57829003601f168201915b5050505050905090565b60008061091c610ab6565b9050600061092a82866109ab565b90508381101561096f576040517f08c379a000000000000000000000000000000000000000000000000000000000815260040161096690611732565b60405180910390fd5b61097c8286868403610abe565b60019250505092915050565b600080610993610ab6565b90506109a0818585610d93565b600191505092915050565b6000600160008473ffffffffffffffffffffffffffffffffffffffff1673ffffffffffffffffffffffffffffffffffffffff16815260200190815260200160002060008373ffffffffffffffffffffffffffffffffffffffff1673ffffffffffffffffffffffffffffffffffffffff16815260200190815260200160002054905092915050565b610a3a610c89565b600073ffffffffffffffffffffffffffffffffffffffff168173ffffffffffffffffffffffffffffffffffffffff161415610aaa576040517f08c379a0000000000000000000000000000000000000000000000000000000008152600401610aa190611632565b60405180910390fd5b610ab381611174565b50565b600033905090565b600073ffffffffffffffffffffffffffffffffffffffff168373ffffffffffffffffffffffffffffffffffffffff161415610b2e576040517f08c379a0000000000000000000000000000000000000000000000000000000008152600401610b2590611712565b60405180910390fd5b600073ffffffffffffffffffffffffffffffffffffffff168273ffffffffffffffffffffffffffffffffffffffff161415610b9e576040517f08c379a0000000000000000000000000000000000000000000000000000000008152600401610b9590611652565b60405180910390fd5b80600160008573ffffffffffffffffffffffffffffffffffffffff1673ffffffffffffffffffffffffffffffffffffffff16815260200190815260200160002060008473ffffffffffffffffffffffffffffffffffffffff1673ffffffffffffffffffffffffffffffffffffffff168152602001908152602001600020819055508173ffffffffffffffffffffffffffffffffffffffff168373ffffffffffffffffffffffffffffffffffffffff167f8c5be1e5ebec7d5bd14f71427d1e84f3dd0314c0f7b2291e5b200ac8c7c3b92583604051610c7c9190611792565b60405180910390a3505050565b610c91610ab6565b73ffffffffffffffffffffffffffffffffffffffff16610caf610855565b73ffffffffffffffffffffffffffffffffffffffff1614610d05576040517f08c379a0000000000000000000000000000000000000000000000000000000008152600401610cfc906116d2565b60405180910390fd5b565b6000610d1384846109ab565b90507fffffffffffffffffffffffffffffffffffffffffffffffffffffffffffffffff8114610d8d5781811015610d7f576040517f08c379a0000000000000000000000000000000000000000000000000000000008152600401610d7690611692565b60405180910390fd5b610d8c8484848403610abe565b5b50505050565b600073ffffffffffffffffffffffffffffffffffffffff168373ffffffffffffffffffffffffffffffffffffffff161415610e03576040517f08c379a0000000000000000000000000000000000000000000000000000000008152600401610dfa906116f2565b60405180910390fd5b600073ffffffffffffffffffffffffffffffffffffffff168273ffffffffffffffffffffffffffffffffffffffff161415610e73576040517f08c379a0000000000000000000000000000000000000000000000000000000008152600401610e6a906115f2565b60405180910390fd5b610e7e83838361123a565b60008060008573ffffffffffffffffffffffffffffffffffffffff1673ffffffffffffffffffffffffffffffffffffffff16815260200190815260200160002054905081811015610f04576040517f08c379a0000000000000000000000000000000000000000000000000000000008152600401610efb906116b2565b60405180910390fd5b8181036000808673ffffffffffffffffffffffffffffffffffffffff1673ffffffffffffffffffffffffffffffffffffffff16815260200190815260200160002081905550816000808573ffffffffffffffffffffffffffffffffffffffff1673ffffffffffffffffffffffffffffffffffffffff1681526020019081526020016000206000828254610f9791906117e4565b925050819055508273ffffffffffffffffffffffffffffffffffffffff168473ffffffffffffffffffffffffffffffffffffffff167fddf252ad1be2c89b69c2b068fc378daa952ba7f163c4a11628f55a4df523b3ef84604051610ffb9190611792565b60405180910390a361100e84848461123f565b50505050565b600073ffffffffffffffffffffffffffffffffffffffff168273ffffffffffffffffffffffffffffffffffffffff161415611084576040517f08c379a000000000000000000000000000000000000000000000000000000000815260040161107b90611772565b60405180910390fd5b6110906000838361123a565b80600260008282546110a291906117e4565b92505081905550806000808473ffffffffffffffffffffffffffffffffffffffff1673ffffffffffffffffffffffffffffffffffffffff16815260200190815260200160002060008282546110f791906117e4565b925050819055508173ffffffffffffffffffffffffffffffffffffffff16600073ffffffffffffffffffffffffffffffffffffffff167fddf252ad1be2c89b69c2b068fc378daa952ba7f163c4a11628f55a4df523b3ef8360405161115c9190611792565b60405180910390a36111706000838361123f565b5050565b6000600560009054906101000a900473ffffffffffffffffffffffffffffffffffffffff16905081600560006101000a81548173ffffffffffffffffffffffffffffffffffffffff021916908373ffffffffffffffffffffffffffffffffffffffff1602179055508173ffffffffffffffffffffffffffffffffffffffff168173ffffffffffffffffffffffffffffffffffffffff167f8be0079c531659141344cd1fd0a4f28419497f9722a3daafe3b4186f6b6457e060405160405180910390a35050565b505050565b505050565b60008135905061125381611c82565b92915050565b60008135905061126881611c99565b92915050565b60006020828403121561128057600080fd5b600061128e84828501611244565b91505092915050565b600080604083850312156112aa57600080fd5b60006112b885828601611244565b92505060206112c985828601611244565b9150509250929050565b6000806000606084860312156112e857600080fd5b60006112f686828701611244565b935050602061130786828701611244565b925050604061131886828701611259565b9150509250925092565b6000806040838503121561133557600080fd5b600061134385828601611244565b925050602061135485828601611259565b9150509250929050565b6113678161183a565b82525050565b6113768161184c565b82525050565b6000611387826117c8565b61139181856117d3565b93506113a181856020860161188f565b6113aa81611952565b840191505092915050565b60006113c26023836117d3565b91506113cd82611963565b604082019050919050565b60006113e5600e836117d3565b91506113f0826119b2565b602082019050919050565b60006114086026836117d3565b9150611413826119db565b604082019050919050565b600061142b6022836117d3565b915061143682611a2a565b604082019050919050565b600061144e600f836117d3565b915061145982611a79565b602082019050919050565b6000611471601d836117d3565b915061147c82611aa2565b602082019050919050565b60006114946026836117d3565b915061149f82611acb565b604082019050919050565b60006114b76020836117d3565b91506114c282611b1a565b602082019050919050565b60006114da6025836117d3565b91506114e582611b43565b604082019050919050565b60006114fd6024836117d3565b915061150882611b92565b604082019050919050565b60006115206025836117d3565b915061152b82611be1565b604082019050919050565b6000611543600e836117d3565b915061154e82611c30565b602082019050919050565b6000611566601f836117d3565b915061157182611c59565b602082019050919050565b61158581611878565b82525050565b61159481611882565b82525050565b60006020820190506115af600083018461135e565b92915050565b60006020820190506115ca600083018461136d565b92915050565b600060208201905081810360008301526115ea818461137c565b905092915050565b6000602082019050818103600083015261160b816113b5565b9050919050565b6000602082019050818103600083015261162b816113d8565b9050919050565b6000602082019050818103600083015261164b816113fb565b9050919050565b6000602082019050818103600083015261166b8161141e565b9050919050565b6000602082019050818103600083015261168b81611441565b9050919050565b600060208201905081810360008301526116ab81611464565b9050919050565b600060208201905081810360008301526116cb81611487565b9050919050565b600060208201905081810360008301526116eb816114aa565b9050919050565b6000602082019050818103600083015261170b816114cd565b9050919050565b6000602082019050818103600083015261172b816114f0565b9050919050565b6000602082019050818103600083015261174b81611513565b9050919050565b6000602082019050818103600083015261176b81611536565b9050919050565b6000602082019050818103600083015261178b81611559565b9050919050565b60006020820190506117a7600083018461157c565b92915050565b60006020820190506117c2600083018461158b565b92915050565b600081519050919050565b600082825260208201905092915050565b60006117ef82611878565b91506117fa83611878565b9250827fffffffffffffffffffffffffffffffffffffffffffffffffffffffffffffffff0382111561182f5761182e6118f4565b5b828201905092915050565b600061184582611858565b9050919050565b60008115159050919050565b600073ffffffffffffffffffffffffffffffffffffffff82169050919050565b6000819050919050565b600060ff82169050919050565b60005b838110156118ad578082015181840152602081019050611892565b838111156118bc576000848401525b50505050565b600060028204905060018216806118da57607f821691505b602082108114156118ee576118ed611923565b5b50919050565b7f4e487b7100000000000000000000000000000000000000000000000000000000600052601160045260246000fd5b7f4e487b7100000000000000000000000000000000000000000000000000000000600052602260045260246000fd5b6000601f19601f8301169050919050565b7f45524332303a207472616e7366657220746f20746865207a65726f206164647260008201527f6573730000000000000000000000000000000000000000000000000000000000602082015250565b7f6d7573742062652061646d696e2e000000000000000000000000000000000000600082015250565b7f4f776e61626c653a206e6577206f776e657220697320746865207a65726f206160008201527f6464726573730000000000000000000000000000000000000000000000000000602082015250565b7f45524332303a20617070726f766520746f20746865207a65726f20616464726560008201527f7373000000000000000000000000000000000000000000000000000000000000602082015250565b7f616c726561647920636c61696d65640000000000000000000000000000000000600082015250565b7f45524332303a20696e73756666696369656e7420616c6c6f77616e6365000000600082015250565b7f45524332303a207472616e7366657220616d6f756e742065786365656473206260008201527f616c616e63650000000000000000000000000000000000000000000000000000602082015250565b7f4f776e61626c653a2063616c6c6572206973206e6f7420746865206f776e6572600082015250565b7f45524332303a207472616e736665722066726f6d20746865207a65726f20616460008201527f6472657373000000000000000000000000000000000000000000000000000000602082015250565b7f45524332303a20617070726f76652066726f6d20746865207a65726f2061646460008201527f7265737300000000000000000000000000000000000000000000000000000000602082015250565b7f45524332303a2064656372656173656420616c6c6f77616e63652062656c6f7760008201527f207a65726f000000000000000000000000000000000000000000000000000000602082015250565b7f636c61696d2064697361626c6564000000000000000000000000000000000000600082015250565b7f45524332303a206d696e7420746f20746865207a65726f206164647265737300600082015250565b611c8b8161183a565b8114611c9657600080fd5b50565b611ca281611878565b8114611cad57600080fd5b5056fea26469706673582212206cc9103dd2ec64504d402bf7c193564c7e3bd003bdb10455ed5f31f7a6e8bd9f64736f6c63430008040033",
  "linkReferences": {},
  "deployedLinkReferences": {}
}